{
  "_format": "hh-sol-artifact-1",
  "contractName": "CataGenPools",
  "sourceName": "contracts/pools/CataGenPools.sol",
  "abi": [
    {
      "inputs": [
        {
          "internalType": "address",
          "name": "_cata",
          "type": "address"
        },
        {
          "internalType": "address",
          "name": "_daoFund",
          "type": "address"
        },
        {
          "internalType": "uint256",
          "name": "_poolStartTime",
          "type": "uint256"
        }
      ],
      "stateMutability": "nonpayable",
      "type": "constructor"
    },
    {
      "anonymous": false,
      "inputs": [
        {
          "indexed": true,
          "internalType": "address",
          "name": "user",
          "type": "address"
        },
        {
          "indexed": true,
          "internalType": "uint256",
          "name": "pid",
          "type": "uint256"
        },
        {
          "indexed": false,
          "internalType": "uint256",
          "name": "amount",
          "type": "uint256"
        }
      ],
      "name": "Deposit",
      "type": "event"
    },
    {
      "anonymous": false,
      "inputs": [
        {
          "indexed": true,
          "internalType": "address",
          "name": "user",
          "type": "address"
        },
        {
          "indexed": true,
          "internalType": "uint256",
          "name": "pid",
          "type": "uint256"
        },
        {
          "indexed": false,
          "internalType": "uint256",
          "name": "amount",
          "type": "uint256"
        }
      ],
      "name": "EmergencyWithdraw",
      "type": "event"
    },
    {
      "anonymous": false,
      "inputs": [
        {
          "indexed": true,
          "internalType": "address",
          "name": "user",
          "type": "address"
        },
        {
          "indexed": false,
          "internalType": "uint256",
          "name": "amount",
          "type": "uint256"
        }
      ],
      "name": "RewardPaid",
      "type": "event"
    },
    {
      "anonymous": false,
      "inputs": [
        {
          "indexed": true,
          "internalType": "address",
          "name": "user",
          "type": "address"
        },
        {
          "indexed": true,
          "internalType": "uint256",
          "name": "pid",
          "type": "uint256"
        },
        {
          "indexed": false,
          "internalType": "uint256",
          "name": "amount",
          "type": "uint256"
        }
      ],
      "name": "Withdraw",
      "type": "event"
    },
    {
      "inputs": [],
      "name": "TOTAL_REWARDS",
      "outputs": [
        {
          "internalType": "uint256",
          "name": "",
          "type": "uint256"
        }
      ],
      "stateMutability": "view",
      "type": "function"
    },
    {
      "inputs": [
        {
          "internalType": "uint256",
          "name": "_allocPoint",
          "type": "uint256"
        },
        {
          "internalType": "contract IERC20",
          "name": "_token",
          "type": "address"
        },
        {
          "internalType": "bool",
          "name": "_withUpdate",
          "type": "bool"
        },
        {
          "internalType": "uint256",
          "name": "_lastRewardTime",
          "type": "uint256"
        }
      ],
      "name": "add",
      "outputs": [],
      "stateMutability": "nonpayable",
      "type": "function"
    },
    {
      "inputs": [],
      "name": "cata",
      "outputs": [
        {
          "internalType": "contract IERC20",
          "name": "",
          "type": "address"
        }
      ],
      "stateMutability": "view",
      "type": "function"
    },
    {
      "inputs": [],
      "name": "cataPerSecond",
      "outputs": [
        {
          "internalType": "uint256",
          "name": "",
          "type": "uint256"
        }
      ],
      "stateMutability": "view",
      "type": "function"
    },
    {
      "inputs": [],
      "name": "daoFundAddress",
      "outputs": [
        {
          "internalType": "address",
          "name": "",
          "type": "address"
        }
      ],
      "stateMutability": "view",
      "type": "function"
    },
    {
      "inputs": [
        {
          "internalType": "uint256",
          "name": "_pid",
          "type": "uint256"
        },
        {
          "internalType": "uint256",
          "name": "_amount",
          "type": "uint256"
        }
      ],
      "name": "deposit",
      "outputs": [],
      "stateMutability": "nonpayable",
      "type": "function"
    },
    {
      "inputs": [
        {
          "internalType": "uint256",
          "name": "_pid",
          "type": "uint256"
        }
      ],
      "name": "emergencyWithdraw",
      "outputs": [],
      "stateMutability": "nonpayable",
      "type": "function"
    },
    {
      "inputs": [
        {
          "internalType": "uint256",
          "name": "_fromTime",
          "type": "uint256"
        },
        {
          "internalType": "uint256",
          "name": "_toTime",
          "type": "uint256"
        }
      ],
      "name": "getGeneratedReward",
      "outputs": [
        {
          "internalType": "uint256",
          "name": "",
          "type": "uint256"
        }
      ],
      "stateMutability": "view",
      "type": "function"
    },
    {
      "inputs": [],
      "name": "massUpdatePools",
      "outputs": [],
      "stateMutability": "nonpayable",
      "type": "function"
    },
    {
      "inputs": [],
      "name": "operator",
      "outputs": [
        {
          "internalType": "address",
          "name": "",
          "type": "address"
        }
      ],
      "stateMutability": "view",
      "type": "function"
    },
    {
      "inputs": [
        {
          "internalType": "uint256",
          "name": "_pid",
          "type": "uint256"
        },
        {
          "internalType": "address",
          "name": "_user",
          "type": "address"
        }
      ],
      "name": "pendingCata",
      "outputs": [
        {
          "internalType": "uint256",
          "name": "",
          "type": "uint256"
        }
      ],
      "stateMutability": "view",
      "type": "function"
    },
    {
      "inputs": [],
      "name": "poolEndTime",
      "outputs": [
        {
          "internalType": "uint256",
          "name": "",
          "type": "uint256"
        }
      ],
      "stateMutability": "view",
      "type": "function"
    },
    {
      "inputs": [
        {
          "internalType": "uint256",
          "name": "",
          "type": "uint256"
        }
      ],
      "name": "poolInfo",
      "outputs": [
        {
          "internalType": "contract IERC20",
          "name": "token",
          "type": "address"
        },
        {
          "internalType": "uint256",
          "name": "allocPoint",
          "type": "uint256"
        },
        {
          "internalType": "uint256",
          "name": "lastRewardTime",
          "type": "uint256"
        },
        {
          "internalType": "uint256",
          "name": "accCataPerShare",
          "type": "uint256"
        },
        {
          "internalType": "bool",
          "name": "isStarted",
          "type": "bool"
        }
      ],
      "stateMutability": "view",
      "type": "function"
    },
    {
      "inputs": [],
      "name": "poolStartTime",
      "outputs": [
        {
          "internalType": "uint256",
          "name": "",
          "type": "uint256"
        }
      ],
      "stateMutability": "view",
      "type": "function"
    },
    {
      "inputs": [],
      "name": "runningTime",
      "outputs": [
        {
          "internalType": "uint256",
          "name": "",
          "type": "uint256"
        }
      ],
      "stateMutability": "view",
      "type": "function"
    },
    {
      "inputs": [
        {
          "internalType": "uint256",
          "name": "_pid",
          "type": "uint256"
        },
        {
          "internalType": "uint256",
          "name": "_allocPoint",
          "type": "uint256"
        }
      ],
      "name": "set",
      "outputs": [],
      "stateMutability": "nonpayable",
      "type": "function"
    },
    {
      "inputs": [
        {
          "internalType": "address",
          "name": "_operator",
          "type": "address"
        }
      ],
      "name": "setOperator",
      "outputs": [],
      "stateMutability": "nonpayable",
      "type": "function"
    },
    {
      "inputs": [],
      "name": "totalAllocPoint",
      "outputs": [
        {
          "internalType": "uint256",
          "name": "",
          "type": "uint256"
        }
      ],
      "stateMutability": "view",
      "type": "function"
    },
    {
      "inputs": [
        {
          "internalType": "uint256",
          "name": "",
          "type": "uint256"
        },
        {
          "internalType": "address",
          "name": "",
          "type": "address"
        }
      ],
      "name": "userInfo",
      "outputs": [
        {
          "internalType": "uint256",
          "name": "amount",
          "type": "uint256"
        },
        {
          "internalType": "uint256",
          "name": "rewardDebt",
          "type": "uint256"
        }
      ],
      "stateMutability": "view",
      "type": "function"
    },
    {
      "inputs": [
        {
          "internalType": "uint256",
          "name": "_pid",
          "type": "uint256"
        },
        {
          "internalType": "uint256",
          "name": "_amount",
          "type": "uint256"
        }
      ],
      "name": "withdraw",
      "outputs": [],
      "stateMutability": "nonpayable",
      "type": "function"
    }
  ],
  "bytecode": "0x60806040526000600555670235642fd99a22e46009556202a300600a553480156200002957600080fd5b50604051620018a4380380620018a48339810160408190526200004c916200013b565b6001600055428111620000945760405162461bcd60e51b81526004016200008b906020808252600490820152636c61746560e01b604082015260600190565b60405180910390fd5b6001600160a01b03831615620000c057600280546001600160a01b0319166001600160a01b0385161790555b6001600160a01b03821615620000ec57600880546001600160a01b0319166001600160a01b0384161790555b6006819055600a546200010090826200017c565b6007555050600180546001600160a01b0319163317905550620001a3565b80516001600160a01b03811681146200013657600080fd5b919050565b6000806000606084860312156200015157600080fd5b6200015c846200011e565b92506200016c602085016200011e565b9150604084015190509250925092565b600082198211156200019e57634e487b7160e01b600052601160045260246000fd5b500190565b6116f180620001b36000396000f3fe608060405234801561001057600080fd5b506004361061012c5760003560e01c80636e271dd5116100ad578063b0b072fd11610071578063b0b072fd146102ae578063b3ab15fb146102b7578063c1830bfc146102ca578063e2bbb158146102dd578063efb4417f146102f057600080fd5b80636e271dd51461022f57806393f1a40b14610238578063943f013d1461027f57806396805e5414610288578063ad9bd68f1461029b57600080fd5b8063441a3e70116100f4578063441a3e70146101cd5780635312ea8e146101e0578063570ca735146101f35780635f96dc111461021e578063630b5ba11461022757600080fd5b806309cf6091146101315780631526fe271461015557806317caf6f11461019c5780631ab06ee5146101a5578063231f0c6a146101ba575b600080fd5b6101426905d2c72a2ac16a30000081565b6040519081526020015b60405180910390f35b61016861016336600461145d565b610303565b604080516001600160a01b03909616865260208601949094529284019190915260608301521515608082015260a00161014c565b61014260055481565b6101b86101b3366004611476565b610351565b005b6101426101c8366004611476565b61042b565b6101b86101db366004611476565b6104f0565b6101b86101ee36600461145d565b61071a565b600154610206906001600160a01b031681565b6040516001600160a01b03909116815260200161014c565b61014260065481565b6101b86107bc565b61014260075481565b61026a6102463660046114b0565b60046020908152600092835260408084209091529082529020805460019091015482565b6040805192835260208301919091520161014c565b610142600a5481565b6101b86102963660046114ee565b6107e7565b600854610206906001600160a01b031681565b61014260095481565b6101b86102c5366004611536565b610a12565b6101426102d83660046114b0565b610aab565b6101b86102eb366004611476565b610c2d565b600254610206906001600160a01b031681565b6003818154811061031357600080fd5b6000918252602090912060059091020180546001820154600283015460038401546004909401546001600160a01b0390931694509092909160ff1685565b6001546001600160a01b031633146103c05760405162461bcd60e51b815260206004820152602760248201527f4361746147656e506f6f6c3a2063616c6c6572206973206e6f7420746865206f6044820152663832b930ba37b960c91b60648201526084015b60405180910390fd5b6103c86107bc565b6000600383815481106103dd576103dd611553565b60009182526020909120600590910201600481015490915060ff1615610424576104208261041a8360010154600554610e3f90919063ffffffff16565b90610e52565b6005555b6001015550565b600081831061043c575060006104ea565b60075482106104a4576007548310610456575060006104ea565b60065483116104895761048260095461047c600654600754610e3f90919063ffffffff16565b90610e5e565b90506104ea565b61048260095461047c85600754610e3f90919063ffffffff16565b60065482116104b5575060006104ea565b60065483116104d95761048260095461047c60065485610e3f90919063ffffffff16565b6009546104829061047c8486610e3f565b92915050565b600260005414156105435760405162461bcd60e51b815260206004820152601f60248201527f5265656e7472616e637947756172643a207265656e7472616e742063616c6c0060448201526064016103b7565b6002600090815560038054339291908590811061056257610562611553565b600091825260208083208784526004825260408085206001600160a01b038816865290925292208054600590920290920192508411156105e45760405162461bcd60e51b815260206004820152601260248201527f77697468647261773a206e6f7420676f6f64000000000000000000000000000060448201526064016103b7565b6105ed85610e6a565b600061062a8260010154610624670de0b6b3a764000061061e87600301548760000154610e5e90919063ffffffff16565b90610fe2565b90610e3f565b905080156106805761063c8482610fee565b836001600160a01b03167fe2403640ba68fed3a2f88b7557551d1993f84b99bb10ff833f0cf8db0c5e04868260405161067791815260200190565b60405180910390a25b84156106aa5781546106929086610e3f565b825582546106aa906001600160a01b031685876110a9565b600383015482546106c891670de0b6b3a76400009161061e91610e5e565b600183015560405185815286906001600160a01b038616907ff279e6a1f5e320cca91135676d9cb6e44ca8a08c0b88342bcdb1144f6511b5689060200160405180910390a35050600160005550505050565b60006003828154811061072f5761072f611553565b60009182526020808320858452600482526040808520338087529352842080548582556001820195909555600590930201805490945091929161077f916001600160a01b039190911690836110a9565b604051818152849033907fbb757047c2b5f3974fe26b7c10f732e7bce710b0952a71082702781e62ae05959060200160405180910390a350505050565b60035460005b818110156107e3576107d381610e6a565b6107dc8161157f565b90506107c2565b5050565b6001546001600160a01b031633146108515760405162461bcd60e51b815260206004820152602760248201527f4361746147656e506f6f6c3a2063616c6c6572206973206e6f7420746865206f6044820152663832b930ba37b960c91b60648201526084016103b7565b61085a83611139565b8115610868576108686107bc565b600654421015610894578061088057506006546108a8565b60065481101561088f57506006545b6108a8565b8015806108a057504281105b156108a85750425b6000600654821115806108bb5750428211155b6040805160a0810182526001600160a01b03878116825260208201898152928201868152600060608401818152861580156080870190815260038054600181018255945295517fc2575a0e9e593c00f959f8c92f12db2869c3395a3b0502d05e2516446f71f85b6005909402938401805473ffffffffffffffffffffffffffffffffffffffff1916919096161790945594517fc2575a0e9e593c00f959f8c92f12db2869c3395a3b0502d05e2516446f71f85c82015590517fc2575a0e9e593c00f959f8c92f12db2869c3395a3b0502d05e2516446f71f85d82015592517fc2575a0e9e593c00f959f8c92f12db2869c3395a3b0502d05e2516446f71f85e84015590517fc2575a0e9e593c00f959f8c92f12db2869c3395a3b0502d05e2516446f71f85f909201805460ff191692151592909217909155909150610a0b57600554610a079086610e52565b6005555b5050505050565b6001546001600160a01b03163314610a7c5760405162461bcd60e51b815260206004820152602760248201527f4361746147656e506f6f6c3a2063616c6c6572206973206e6f7420746865206f6044820152663832b930ba37b960c91b60648201526084016103b7565b6001805473ffffffffffffffffffffffffffffffffffffffff19166001600160a01b0392909216919091179055565b60008060038481548110610ac157610ac1611553565b60009182526020808320878452600480835260408086206001600160a01b038a8116885294528086206005959095029092016003810154815493516370a0823160e01b8152309381019390935290965093949291909116906370a082319060240160206040518083038186803b158015610b3a57600080fd5b505afa158015610b4e573d6000803e3d6000fd5b505050506040513d601f19601f82011682018060405250810190610b72919061159a565b9050836002015442118015610b8657508015155b15610bf7576000610b9b85600201544261042b565b90506000610bb6866001015483610e5e90919063ffffffff16565b90506000610bcf60055483610fe290919063ffffffff16565b9050610bf1610bea8561061e84670de0b6b3a7640000610e5e565b8690610e52565b94505050505b610c228360010154610624670de0b6b3a764000061061e868860000154610e5e90919063ffffffff16565b979650505050505050565b60026000541415610c805760405162461bcd60e51b815260206004820152601f60248201527f5265656e7472616e637947756172643a207265656e7472616e742063616c6c0060448201526064016103b7565b60026000908155600380543392919085908110610c9f57610c9f611553565b600091825260208083208784526004825260408085206001600160a01b0388168652909252922060059091029091019150610cd985610e6a565b805415610d69576000610d118260010154610624670de0b6b3a764000061061e87600301548760000154610e5e90919063ffffffff16565b90508015610d6757610d238482610fee565b836001600160a01b03167fe2403640ba68fed3a2f88b7557551d1993f84b99bb10ff833f0cf8db0c5e048682604051610d5e91815260200190565b60405180910390a25b505b8315610dd0578154610d86906001600160a01b03168430876111dc565b6000610d9961271061061e876064610e5e565b9050610db0610da88683610e3f565b835490610e52565b82556008548354610dce916001600160a01b039182169116836110a9565b505b60038201548154610dee91670de0b6b3a76400009161061e91610e5e565b600182015560405184815285906001600160a01b038516907f90890809c654f11d6e72a28fa60149770a0d11ec6c92319d6ceb2bb0a4ea1a159060200160405180910390a350506001600055505050565b6000610e4b82846115b3565b9392505050565b6000610e4b82846115ca565b6000610e4b82846115e2565b600060038281548110610e7f57610e7f611553565b9060005260206000209060050201905080600201544211610e9e575050565b80546040516370a0823160e01b81523060048201526000916001600160a01b0316906370a082319060240160206040518083038186803b158015610ee157600080fd5b505afa158015610ef5573d6000803e3d6000fd5b505050506040513d601f19601f82011682018060405250810190610f19919061159a565b905080610f2b57504260029091015550565b600482015460ff16610f5c5760048201805460ff19166001908117909155820154600554610f5891610e52565b6005555b60055415610fd7576000610f7483600201544261042b565b90506000610f8f846001015483610e5e90919063ffffffff16565b90506000610fa860055483610fe290919063ffffffff16565b9050610fce610fc38561061e84670de0b6b3a7640000610e5e565b600387015490610e52565b60038601555050505b504260029091015550565b6000610e4b8284611601565b6002546040516370a0823160e01b81523060048201526000916001600160a01b0316906370a082319060240160206040518083038186803b15801561103257600080fd5b505afa158015611046573d6000803e3d6000fd5b505050506040513d601f19601f8201168201806040525081019061106a919061159a565b90508015611091578082111561109657600254611091906001600160a01b031684836110a9565b505050565b600254611091906001600160a01b031684845b6040516001600160a01b03831660248201526044810182905261109190849063a9059cbb60e01b906064015b60408051601f198184030181529190526020810180517bffffffffffffffffffffffffffffffffffffffffffffffffffffffff167fffffffff000000000000000000000000000000000000000000000000000000009093169290921790915261121a565b60035460005b8181101561109157826001600160a01b03166003828154811061116457611164611553565b60009182526020909120600590910201546001600160a01b031614156111cc5760405162461bcd60e51b815260206004820152601b60248201527f4361746147656e506f6f6c3a206578697374696e6720706f6f6c3f000000000060448201526064016103b7565b6111d58161157f565b905061113f565b6040516001600160a01b03808516602483015283166044820152606481018290526112149085906323b872dd60e01b906084016110d5565b50505050565b600061126f826040518060400160405280602081526020017f5361666545524332303a206c6f772d6c6576656c2063616c6c206661696c6564815250856001600160a01b03166112ec9092919063ffffffff16565b805190915015611091578080602001905181019061128d9190611623565b6110915760405162461bcd60e51b815260206004820152602a60248201527f5361666545524332303a204552433230206f7065726174696f6e20646964206e6044820152691bdd081cdd58d8d9595960b21b60648201526084016103b7565b60606112fb8484600085611303565b949350505050565b6060824710156113645760405162461bcd60e51b815260206004820152602660248201527f416464726573733a20696e73756666696369656e742062616c616e636520666f6044820152651c8818d85b1b60d21b60648201526084016103b7565b6001600160a01b0385163b6113bb5760405162461bcd60e51b815260206004820152601d60248201527f416464726573733a2063616c6c20746f206e6f6e2d636f6e747261637400000060448201526064016103b7565b600080866001600160a01b031685876040516113d7919061166c565b60006040518083038185875af1925050503d8060008114611414576040519150601f19603f3d011682016040523d82523d6000602084013e611419565b606091505b5091509150610c2282828660608315611433575081610e4b565b8251156114435782518084602001fd5b8160405162461bcd60e51b81526004016103b79190611688565b60006020828403121561146f57600080fd5b5035919050565b6000806040838503121561148957600080fd5b50508035926020909101359150565b6001600160a01b03811681146114ad57600080fd5b50565b600080604083850312156114c357600080fd5b8235915060208301356114d581611498565b809150509250929050565b80151581146114ad57600080fd5b6000806000806080858703121561150457600080fd5b84359350602085013561151681611498565b92506040850135611526816114e0565b9396929550929360600135925050565b60006020828403121561154857600080fd5b8135610e4b81611498565b634e487b7160e01b600052603260045260246000fd5b634e487b7160e01b600052601160045260246000fd5b600060001982141561159357611593611569565b5060010190565b6000602082840312156115ac57600080fd5b5051919050565b6000828210156115c5576115c5611569565b500390565b600082198211156115dd576115dd611569565b500190565b60008160001904831182151516156115fc576115fc611569565b500290565b60008261161e57634e487b7160e01b600052601260045260246000fd5b500490565b60006020828403121561163557600080fd5b8151610e4b816114e0565b60005b8381101561165b578181015183820152602001611643565b838111156112145750506000910152565b6000825161167e818460208701611640565b9190910192915050565b60208152600082518060208401526116a7816040850160208701611640565b601f01601f1916919091016040019291505056fea26469706673582212201f1ff2a08aa57611893ed31bad44582ef88a579622b4631cafefed7b315d48bb64736f6c63430008090033",
  "linkReferences": {},
  "deployedLinkReferences": {}
}