{
  "_format": "hh-sol-artifact-1",
  "contractName": "CataGenPools",
  "sourceName": "contracts/pools/CataGenPools.sol",
  "abi": [
    {
      "inputs": [
        {
          "internalType": "address",
          "name": "_cata",
          "type": "address"
        },
        {
          "internalType": "address",
          "name": "_daoFund",
          "type": "address"
        },
        {
          "internalType": "uint256",
          "name": "_poolStartTime",
          "type": "uint256"
        }
      ],
      "stateMutability": "nonpayable",
      "type": "constructor"
    },
    {
      "anonymous": false,
      "inputs": [
        {
          "indexed": true,
          "internalType": "address",
          "name": "user",
          "type": "address"
        },
        {
          "indexed": true,
          "internalType": "uint256",
          "name": "pid",
          "type": "uint256"
        },
        {
          "indexed": false,
          "internalType": "uint256",
          "name": "amount",
          "type": "uint256"
        }
      ],
      "name": "Deposit",
      "type": "event"
    },
    {
      "anonymous": false,
      "inputs": [
        {
          "indexed": true,
          "internalType": "address",
          "name": "user",
          "type": "address"
        },
        {
          "indexed": true,
          "internalType": "uint256",
          "name": "pid",
          "type": "uint256"
        },
        {
          "indexed": false,
          "internalType": "uint256",
          "name": "amount",
          "type": "uint256"
        }
      ],
      "name": "EmergencyWithdraw",
      "type": "event"
    },
    {
      "anonymous": false,
      "inputs": [
        {
          "indexed": true,
          "internalType": "address",
          "name": "user",
          "type": "address"
        },
        {
          "indexed": false,
          "internalType": "uint256",
          "name": "amount",
          "type": "uint256"
        }
      ],
      "name": "RewardPaid",
      "type": "event"
    },
    {
      "anonymous": false,
      "inputs": [
        {
          "indexed": true,
          "internalType": "address",
          "name": "user",
          "type": "address"
        },
        {
          "indexed": true,
          "internalType": "uint256",
          "name": "pid",
          "type": "uint256"
        },
        {
          "indexed": false,
          "internalType": "uint256",
          "name": "amount",
          "type": "uint256"
        }
      ],
      "name": "Withdraw",
      "type": "event"
    },
    {
      "inputs": [],
      "name": "TOTAL_REWARDS",
      "outputs": [
        {
          "internalType": "uint256",
          "name": "",
          "type": "uint256"
        }
      ],
      "stateMutability": "view",
      "type": "function"
    },
    {
      "inputs": [
        {
          "internalType": "uint256",
          "name": "_allocPoint",
          "type": "uint256"
        },
        {
          "internalType": "contract IERC20",
          "name": "_token",
          "type": "address"
        },
        {
          "internalType": "bool",
          "name": "_withUpdate",
          "type": "bool"
        },
        {
          "internalType": "uint256",
          "name": "_lastRewardTime",
          "type": "uint256"
        }
      ],
      "name": "add",
      "outputs": [],
      "stateMutability": "nonpayable",
      "type": "function"
    },
    {
      "inputs": [],
      "name": "cata",
      "outputs": [
        {
          "internalType": "contract IERC20",
          "name": "",
          "type": "address"
        }
      ],
      "stateMutability": "view",
      "type": "function"
    },
    {
      "inputs": [],
      "name": "cataPerSecond",
      "outputs": [
        {
          "internalType": "uint256",
          "name": "",
          "type": "uint256"
        }
      ],
      "stateMutability": "view",
      "type": "function"
    },
    {
      "inputs": [],
      "name": "daoFundAddress",
      "outputs": [
        {
          "internalType": "address",
          "name": "",
          "type": "address"
        }
      ],
      "stateMutability": "view",
      "type": "function"
    },
    {
      "inputs": [
        {
          "internalType": "uint256",
          "name": "_pid",
          "type": "uint256"
        },
        {
          "internalType": "uint256",
          "name": "_amount",
          "type": "uint256"
        }
      ],
      "name": "deposit",
      "outputs": [],
      "stateMutability": "nonpayable",
      "type": "function"
    },
    {
      "inputs": [
        {
          "internalType": "uint256",
          "name": "_pid",
          "type": "uint256"
        }
      ],
      "name": "emergencyWithdraw",
      "outputs": [],
      "stateMutability": "nonpayable",
      "type": "function"
    },
    {
      "inputs": [
        {
          "internalType": "uint256",
          "name": "_fromTime",
          "type": "uint256"
        },
        {
          "internalType": "uint256",
          "name": "_toTime",
          "type": "uint256"
        }
      ],
      "name": "getGeneratedReward",
      "outputs": [
        {
          "internalType": "uint256",
          "name": "",
          "type": "uint256"
        }
      ],
      "stateMutability": "view",
      "type": "function"
    },
    {
      "inputs": [],
      "name": "massUpdatePools",
      "outputs": [],
      "stateMutability": "nonpayable",
      "type": "function"
    },
    {
      "inputs": [],
      "name": "operator",
      "outputs": [
        {
          "internalType": "address",
          "name": "",
          "type": "address"
        }
      ],
      "stateMutability": "view",
      "type": "function"
    },
    {
      "inputs": [
        {
          "internalType": "uint256",
          "name": "_pid",
          "type": "uint256"
        },
        {
          "internalType": "address",
          "name": "_user",
          "type": "address"
        }
      ],
      "name": "pendingCata",
      "outputs": [
        {
          "internalType": "uint256",
          "name": "",
          "type": "uint256"
        }
      ],
      "stateMutability": "view",
      "type": "function"
    },
    {
      "inputs": [],
      "name": "poolEndTime",
      "outputs": [
        {
          "internalType": "uint256",
          "name": "",
          "type": "uint256"
        }
      ],
      "stateMutability": "view",
      "type": "function"
    },
    {
      "inputs": [
        {
          "internalType": "uint256",
          "name": "",
          "type": "uint256"
        }
      ],
      "name": "poolInfo",
      "outputs": [
        {
          "internalType": "contract IERC20",
          "name": "token",
          "type": "address"
        },
        {
          "internalType": "uint256",
          "name": "allocPoint",
          "type": "uint256"
        },
        {
          "internalType": "uint256",
          "name": "lastRewardTime",
          "type": "uint256"
        },
        {
          "internalType": "uint256",
          "name": "accCataPerShare",
          "type": "uint256"
        },
        {
          "internalType": "bool",
          "name": "isStarted",
          "type": "bool"
        }
      ],
      "stateMutability": "view",
      "type": "function"
    },
    {
      "inputs": [],
      "name": "poolStartTime",
      "outputs": [
        {
          "internalType": "uint256",
          "name": "",
          "type": "uint256"
        }
      ],
      "stateMutability": "view",
      "type": "function"
    },
    {
      "inputs": [],
      "name": "runningTime",
      "outputs": [
        {
          "internalType": "uint256",
          "name": "",
          "type": "uint256"
        }
      ],
      "stateMutability": "view",
      "type": "function"
    },
    {
      "inputs": [
        {
          "internalType": "uint256",
          "name": "_pid",
          "type": "uint256"
        },
        {
          "internalType": "uint256",
          "name": "_allocPoint",
          "type": "uint256"
        }
      ],
      "name": "set",
      "outputs": [],
      "stateMutability": "nonpayable",
      "type": "function"
    },
    {
      "inputs": [
        {
          "internalType": "address",
          "name": "_operator",
          "type": "address"
        }
      ],
      "name": "setOperator",
      "outputs": [],
      "stateMutability": "nonpayable",
      "type": "function"
    },
    {
      "inputs": [],
      "name": "totalAllocPoint",
      "outputs": [
        {
          "internalType": "uint256",
          "name": "",
          "type": "uint256"
        }
      ],
      "stateMutability": "view",
      "type": "function"
    },
    {
      "inputs": [
        {
          "internalType": "uint256",
          "name": "",
          "type": "uint256"
        },
        {
          "internalType": "address",
          "name": "",
          "type": "address"
        }
      ],
      "name": "userInfo",
      "outputs": [
        {
          "internalType": "uint256",
          "name": "amount",
          "type": "uint256"
        },
        {
          "internalType": "uint256",
          "name": "rewardDebt",
          "type": "uint256"
        }
      ],
      "stateMutability": "view",
      "type": "function"
    },
    {
      "inputs": [
        {
          "internalType": "uint256",
          "name": "_pid",
          "type": "uint256"
        },
        {
          "internalType": "uint256",
          "name": "_amount",
          "type": "uint256"
        }
      ],
      "name": "withdraw",
      "outputs": [],
      "stateMutability": "nonpayable",
      "type": "function"
    }
  ],
  "bytecode": "0x6080604052600060055567023563b71f7d70006009556202a300600a553480156200002957600080fd5b5060405162002bdd38038062002bdd83398181016040528101906200004f919062000221565b60016000819055508042106200009c576040517f08c379a000000000000000000000000000000000000000000000000000000000815260040162000093906200029e565b60405180910390fd5b600073ffffffffffffffffffffffffffffffffffffffff168373ffffffffffffffffffffffffffffffffffffffff1614620001135782600260006101000a81548173ffffffffffffffffffffffffffffffffffffffff021916908373ffffffffffffffffffffffffffffffffffffffff1602179055505b600073ffffffffffffffffffffffffffffffffffffffff168273ffffffffffffffffffffffffffffffffffffffff16146200018a5781600860006101000a81548173ffffffffffffffffffffffffffffffffffffffff021916908373ffffffffffffffffffffffffffffffffffffffff1602179055505b80600681905550600a54600654620001a39190620002d1565b60078190555033600160006101000a81548173ffffffffffffffffffffffffffffffffffffffff021916908373ffffffffffffffffffffffffffffffffffffffff160217905550505050620003f8565b6000815190506200020481620003c4565b92915050565b6000815190506200021b81620003de565b92915050565b6000806000606084860312156200023757600080fd5b60006200024786828701620001f3565b93505060206200025a86828701620001f3565b92505060406200026d868287016200020a565b9150509250925092565b600062000286600483620002c0565b915062000293826200039b565b602082019050919050565b60006020820190508181036000830152620002b98162000277565b9050919050565b600082825260208201905092915050565b6000620002de8262000362565b9150620002eb8362000362565b9250827fffffffffffffffffffffffffffffffffffffffffffffffffffffffffffffffff038211156200032357620003226200036c565b5b828201905092915050565b60006200033b8262000342565b9050919050565b600073ffffffffffffffffffffffffffffffffffffffff82169050919050565b6000819050919050565b7f4e487b7100000000000000000000000000000000000000000000000000000000600052601160045260246000fd5b7f6c61746500000000000000000000000000000000000000000000000000000000600082015250565b620003cf816200032e565b8114620003db57600080fd5b50565b620003e98162000362565b8114620003f557600080fd5b50565b6127d580620004086000396000f3fe608060405234801561001057600080fd5b506004361061012c5760003560e01c80636e271dd5116100ad578063b0b072fd11610071578063b0b072fd14610312578063b3ab15fb14610330578063c1830bfc1461034c578063e2bbb1581461037c578063efb4417f146103985761012c565b80636e271dd51461026b57806393f1a40b14610289578063943f013d146102ba57806396805e54146102d8578063ad9bd68f146102f45761012c565b8063441a3e70116100f4578063441a3e70146101ed5780635312ea8e14610209578063570ca735146102255780635f96dc1114610243578063630b5ba1146102615761012c565b806309cf6091146101315780631526fe271461014f57806317caf6f1146101835780631ab06ee5146101a1578063231f0c6a146101bd575b600080fd5b6101396103b6565b60405161014691906122be565b60405180910390f35b61016960048036038101906101649190611df4565b6103c4565b60405161017a959493929190612169565b60405180910390f35b61018b610437565b60405161019891906122be565b60405180910390f35b6101bb60048036038101906101b69190611ee5565b61043d565b005b6101d760048036038101906101d29190611ee5565b610578565b6040516101e491906122be565b60405180910390f35b61020760048036038101906102029190611ee5565b61068b565b005b610223600480360381019061021e9190611df4565b610993565b005b61022d610af4565b60405161023a91906120d3565b60405180910390f35b61024b610b1a565b60405161025891906122be565b60405180910390f35b610269610b20565b005b610273610b53565b60405161028091906122be565b60405180910390f35b6102a3600480360381019061029e9190611e46565b610b59565b6040516102b19291906122d9565b60405180910390f35b6102c2610b8a565b6040516102cf91906122be565b60405180910390f35b6102f260048036038101906102ed9190611e82565b610b90565b005b6102fc610db3565b60405161030991906120d3565b60405180910390f35b61031a610dd9565b60405161032791906122be565b60405180910390f35b61034a60048036038101906103459190611da2565b610ddf565b005b61036660048036038101906103619190611e46565b610eb3565b60405161037391906122be565b60405180910390f35b61039660048036038101906103919190611ee5565b611105565b005b6103a0611486565b6040516103ad919061214e565b60405180910390f35b6905d2c72a2ac16a30000081565b600381815481106103d457600080fd5b90600052602060002090600502016000915090508060000160009054906101000a900473ffffffffffffffffffffffffffffffffffffffff16908060010154908060020154908060030154908060040160009054906101000a900460ff16905085565b60055481565b3373ffffffffffffffffffffffffffffffffffffffff16600160009054906101000a900473ffffffffffffffffffffffffffffffffffffffff1673ffffffffffffffffffffffffffffffffffffffff16146104cd576040517f08c379a00000000000000000000000000000000000000000000000000000000081526004016104c4906121de565b60405180910390fd5b6104d5610b20565b600060038381548110610511577f4e487b7100000000000000000000000000000000000000000000000000000000600052603260045260246000fd5b906000526020600020906005020190508060040160009054906101000a900460ff161561056a576105638261055583600101546005546114ac90919063ffffffff16565b6114c290919063ffffffff16565b6005819055505b818160010181905550505050565b600081831061058a5760009050610685565b60075482106106105760075483106105a55760009050610685565b60065483116105e0576105d96009546105cb6006546007546114ac90919063ffffffff16565b6114d890919063ffffffff16565b9050610685565b6106096009546105fb856007546114ac90919063ffffffff16565b6114d890919063ffffffff16565b9050610685565b60065482116106225760009050610685565b600654831161065b57610654600954610646600654856114ac90919063ffffffff16565b6114d890919063ffffffff16565b9050610685565b61068260095461067485856114ac90919063ffffffff16565b6114d890919063ffffffff16565b90505b92915050565b600260005414156106d1576040517f08c379a00000000000000000000000000000000000000000000000000000000081526004016106c89061229e565b60405180910390fd5b6002600081905550600033905060006003848154811061071a577f4e487b7100000000000000000000000000000000000000000000000000000000600052603260045260246000fd5b9060005260206000209060050201905060006004600086815260200190815260200160002060008473ffffffffffffffffffffffffffffffffffffffff1673ffffffffffffffffffffffffffffffffffffffff168152602001908152602001600020905083816000015410156107c5576040517f08c379a00000000000000000000000000000000000000000000000000000000081526004016107bc9061225e565b60405180910390fd5b6107ce856114ee565b600061081b826001015461080d670de0b6b3a76400006107ff876003015487600001546114d890919063ffffffff16565b61171790919063ffffffff16565b6114ac90919063ffffffff16565b9050600081111561087f57610830848261172d565b8373ffffffffffffffffffffffffffffffffffffffff167fe2403640ba68fed3a2f88b7557551d1993f84b99bb10ff833f0cf8db0c5e04868260405161087691906122be565b60405180910390a25b60008511156108f75761089f8583600001546114ac90919063ffffffff16565b82600001819055506108f684868560000160009054906101000a900473ffffffffffffffffffffffffffffffffffffffff1673ffffffffffffffffffffffffffffffffffffffff166118939092919063ffffffff16565b5b61092c670de0b6b3a764000061091e856003015485600001546114d890919063ffffffff16565b61171790919063ffffffff16565b8260010181905550858473ffffffffffffffffffffffffffffffffffffffff167ff279e6a1f5e320cca91135676d9cb6e44ca8a08c0b88342bcdb1144f6511b5688760405161097b91906122be565b60405180910390a35050505060016000819055505050565b6000600382815481106109cf577f4e487b7100000000000000000000000000000000000000000000000000000000600052603260045260246000fd5b9060005260206000209060050201905060006004600084815260200190815260200160002060003373ffffffffffffffffffffffffffffffffffffffff1673ffffffffffffffffffffffffffffffffffffffff16815260200190815260200160002090506000816000015490506000826000018190555060008260010181905550610a9f33828560000160009054906101000a900473ffffffffffffffffffffffffffffffffffffffff1673ffffffffffffffffffffffffffffffffffffffff166118939092919063ffffffff16565b833373ffffffffffffffffffffffffffffffffffffffff167fbb757047c2b5f3974fe26b7c10f732e7bce710b0952a71082702781e62ae059583604051610ae691906122be565b60405180910390a350505050565b600160009054906101000a900473ffffffffffffffffffffffffffffffffffffffff1681565b60065481565b6000600380549050905060005b81811015610b4f57610b3e816114ee565b80610b48906124fa565b9050610b2d565b5050565b60075481565b6004602052816000526040600020602052806000526040600020600091509150508060000154908060010154905082565b600a5481565b3373ffffffffffffffffffffffffffffffffffffffff16600160009054906101000a900473ffffffffffffffffffffffffffffffffffffffff1673ffffffffffffffffffffffffffffffffffffffff1614610c20576040517f08c379a0000000000000000000000000000000000000000000000000000000008152600401610c17906121de565b60405180910390fd5b610c2983611919565b8115610c3857610c37610b20565b5b600654421015610c6b576000811415610c55576006549050610c66565b600654811015610c655760065490505b5b610c83565b6000811480610c7957504281105b15610c82574290505b5b600060065482111580610c965750428211155b905060036040518060a001604052808673ffffffffffffffffffffffffffffffffffffffff16815260200187815260200184815260200160008152602001831515815250908060018154018082558091505060019003906000526020600020906005020160009091909190915060008201518160000160006101000a81548173ffffffffffffffffffffffffffffffffffffffff021916908373ffffffffffffffffffffffffffffffffffffffff16021790555060208201518160010155604082015181600201556060820151816003015560808201518160040160006101000a81548160ff02191690831515021790555050508015610dac57610da5856005546114c290919063ffffffff16565b6005819055505b5050505050565b600860009054906101000a900473ffffffffffffffffffffffffffffffffffffffff1681565b60095481565b3373ffffffffffffffffffffffffffffffffffffffff16600160009054906101000a900473ffffffffffffffffffffffffffffffffffffffff1673ffffffffffffffffffffffffffffffffffffffff1614610e6f576040517f08c379a0000000000000000000000000000000000000000000000000000000008152600401610e66906121de565b60405180910390fd5b80600160006101000a81548173ffffffffffffffffffffffffffffffffffffffff021916908373ffffffffffffffffffffffffffffffffffffffff16021790555050565b60008060038481548110610ef0577f4e487b7100000000000000000000000000000000000000000000000000000000600052603260045260246000fd5b9060005260206000209060050201905060006004600086815260200190815260200160002060008573ffffffffffffffffffffffffffffffffffffffff1673ffffffffffffffffffffffffffffffffffffffff168152602001908152602001600020905060008260030154905060008360000160009054906101000a900473ffffffffffffffffffffffffffffffffffffffff1673ffffffffffffffffffffffffffffffffffffffff166370a08231306040518263ffffffff1660e01b8152600401610fbc91906120d3565b60206040518083038186803b158015610fd457600080fd5b505afa158015610fe8573d6000803e3d6000fd5b505050506040513d601f19601f8201168201806040525081019061100c9190611e1d565b9050836002015442118015611022575060008114155b156110b2576000611037856002015442610578565b905060006110528660010154836114d890919063ffffffff16565b9050600061106b6005548361171790919063ffffffff16565b90506110ac61109d8561108f670de0b6b3a7640000856114d890919063ffffffff16565b61171790919063ffffffff16565b866114c290919063ffffffff16565b94505050505b6110f983600101546110eb670de0b6b3a76400006110dd8688600001546114d890919063ffffffff16565b61171790919063ffffffff16565b6114ac90919063ffffffff16565b94505050505092915050565b6002600054141561114b576040517f08c379a00000000000000000000000000000000000000000000000000000000081526004016111429061229e565b60405180910390fd5b60026000819055506000339050600060038481548110611194577f4e487b7100000000000000000000000000000000000000000000000000000000600052603260045260246000fd5b9060005260206000209060050201905060006004600086815260200190815260200160002060008473ffffffffffffffffffffffffffffffffffffffff1673ffffffffffffffffffffffffffffffffffffffff1681526020019081526020016000209050611201856114ee565b6000816000015411156112c157600061125b826001015461124d670de0b6b3a764000061123f876003015487600001546114d890919063ffffffff16565b61171790919063ffffffff16565b6114ac90919063ffffffff16565b905060008111156112bf57611270848261172d565b8373ffffffffffffffffffffffffffffffffffffffff167fe2403640ba68fed3a2f88b7557551d1993f84b99bb10ff833f0cf8db0c5e0486826040516112b691906122be565b60405180910390a25b505b60008411156113eb5761131b8330868560000160009054906101000a900473ffffffffffffffffffffffffffffffffffffffff1673ffffffffffffffffffffffffffffffffffffffff16611a1e909392919063ffffffff16565b60006113456127106113376032886114d890919063ffffffff16565b61171790919063ffffffff16565b905061137061135d82876114ac90919063ffffffff16565b83600001546114c290919063ffffffff16565b82600001819055506113e9600860009054906101000a900473ffffffffffffffffffffffffffffffffffffffff16828560000160009054906101000a900473ffffffffffffffffffffffffffffffffffffffff1673ffffffffffffffffffffffffffffffffffffffff166118939092919063ffffffff16565b505b611420670de0b6b3a7640000611412846003015484600001546114d890919063ffffffff16565b61171790919063ffffffff16565b8160010181905550848373ffffffffffffffffffffffffffffffffffffffff167f90890809c654f11d6e72a28fa60149770a0d11ec6c92319d6ceb2bb0a4ea1a158660405161146f91906122be565b60405180910390a350505060016000819055505050565b600260009054906101000a900473ffffffffffffffffffffffffffffffffffffffff1681565b600081836114ba9190612415565b905092915050565b600081836114d09190612334565b905092915050565b600081836114e691906123bb565b905092915050565b60006003828154811061152a577f4e487b7100000000000000000000000000000000000000000000000000000000600052603260045260246000fd5b906000526020600020906005020190508060020154421161154b5750611714565b60008160000160009054906101000a900473ffffffffffffffffffffffffffffffffffffffff1673ffffffffffffffffffffffffffffffffffffffff166370a08231306040518263ffffffff1660e01b81526004016115aa91906120d3565b60206040518083038186803b1580156115c257600080fd5b505afa1580156115d6573d6000803e3d6000fd5b505050506040513d601f19601f820116820180604052508101906115fa9190611e1d565b90506000811415611615574282600201819055505050611714565b8160040160009054906101000a900460ff166116685760018260040160006101000a81548160ff02191690831515021790555061166182600101546005546114c290919063ffffffff16565b6005819055505b60006005541115611708576000611683836002015442610578565b9050600061169e8460010154836114d890919063ffffffff16565b905060006116b76005548361171790919063ffffffff16565b90506116fc6116e9856116db670de0b6b3a7640000856114d890919063ffffffff16565b61171790919063ffffffff16565b86600301546114c290919063ffffffff16565b85600301819055505050505b42826002018190555050505b50565b60008183611725919061238a565b905092915050565b6000600260009054906101000a900473ffffffffffffffffffffffffffffffffffffffff1673ffffffffffffffffffffffffffffffffffffffff166370a08231306040518263ffffffff1660e01b815260040161178a91906120d3565b60206040518083038186803b1580156117a257600080fd5b505afa1580156117b6573d6000803e3d6000fd5b505050506040513d601f19601f820116820180604052508101906117da9190611e1d565b9050600081111561188e578082111561183f5761183a8382600260009054906101000a900473ffffffffffffffffffffffffffffffffffffffff1673ffffffffffffffffffffffffffffffffffffffff166118939092919063ffffffff16565b61188d565b61188c8383600260009054906101000a900473ffffffffffffffffffffffffffffffffffffffff1673ffffffffffffffffffffffffffffffffffffffff166118939092919063ffffffff16565b5b5b505050565b6119148363a9059cbb60e01b84846040516024016118b2929190612125565b604051602081830303815290604052907bffffffffffffffffffffffffffffffffffffffffffffffffffffffff19166020820180517bffffffffffffffffffffffffffffffffffffffffffffffffffffffff8381831617835250505050611aa7565b505050565b6000600380549050905060005b81811015611a19578273ffffffffffffffffffffffffffffffffffffffff166003828154811061197f577f4e487b7100000000000000000000000000000000000000000000000000000000600052603260045260246000fd5b906000526020600020906005020160000160009054906101000a900473ffffffffffffffffffffffffffffffffffffffff1673ffffffffffffffffffffffffffffffffffffffff161415611a08576040517f08c379a00000000000000000000000000000000000000000000000000000000081526004016119ff9061221e565b60405180910390fd5b80611a12906124fa565b9050611926565b505050565b611aa1846323b872dd60e01b858585604051602401611a3f939291906120ee565b604051602081830303815290604052907bffffffffffffffffffffffffffffffffffffffffffffffffffffffff19166020820180517bffffffffffffffffffffffffffffffffffffffffffffffffffffffff8381831617835250505050611aa7565b50505050565b6000611b09826040518060400160405280602081526020017f5361666545524332303a206c6f772d6c6576656c2063616c6c206661696c65648152508573ffffffffffffffffffffffffffffffffffffffff16611b6e9092919063ffffffff16565b9050600081511115611b695780806020019051810190611b299190611dcb565b611b68576040517f08c379a0000000000000000000000000000000000000000000000000000000008152600401611b5f9061227e565b60405180910390fd5b5b505050565b6060611b7d8484600085611b86565b90509392505050565b606082471015611bcb576040517f08c379a0000000000000000000000000000000000000000000000000000000008152600401611bc2906121fe565b60405180910390fd5b611bd485611c9a565b611c13576040517f08c379a0000000000000000000000000000000000000000000000000000000008152600401611c0a9061223e565b60405180910390fd5b6000808673ffffffffffffffffffffffffffffffffffffffff168587604051611c3c91906120bc565b60006040518083038185875af1925050503d8060008114611c79576040519150601f19603f3d011682016040523d82523d6000602084013e611c7e565b606091505b5091509150611c8e828286611cbd565b92505050949350505050565b6000808273ffffffffffffffffffffffffffffffffffffffff163b119050919050565b60608315611ccd57829050611d1d565b600083511115611ce05782518084602001fd5b816040517f08c379a0000000000000000000000000000000000000000000000000000000008152600401611d1491906121bc565b60405180910390fd5b9392505050565b600081359050611d3381612743565b92915050565b600081359050611d488161275a565b92915050565b600081519050611d5d8161275a565b92915050565b600081359050611d7281612771565b92915050565b600081359050611d8781612788565b92915050565b600081519050611d9c81612788565b92915050565b600060208284031215611db457600080fd5b6000611dc284828501611d24565b91505092915050565b600060208284031215611ddd57600080fd5b6000611deb84828501611d4e565b91505092915050565b600060208284031215611e0657600080fd5b6000611e1484828501611d78565b91505092915050565b600060208284031215611e2f57600080fd5b6000611e3d84828501611d8d565b91505092915050565b60008060408385031215611e5957600080fd5b6000611e6785828601611d78565b9250506020611e7885828601611d24565b9150509250929050565b60008060008060808587031215611e9857600080fd5b6000611ea687828801611d78565b9450506020611eb787828801611d63565b9350506040611ec887828801611d39565b9250506060611ed987828801611d78565b91505092959194509250565b60008060408385031215611ef857600080fd5b6000611f0685828601611d78565b9250506020611f1785828601611d78565b9150509250929050565b611f2a81612449565b82525050565b611f398161245b565b82525050565b6000611f4a82612302565b611f548185612318565b9350611f648185602086016124c7565b80840191505092915050565b611f79816124a3565b82525050565b6000611f8a8261230d565b611f948185612323565b9350611fa48185602086016124c7565b611fad816125a1565b840191505092915050565b6000611fc5602783612323565b9150611fd0826125b2565b604082019050919050565b6000611fe8602683612323565b9150611ff382612601565b604082019050919050565b600061200b601b83612323565b915061201682612650565b602082019050919050565b600061202e601d83612323565b915061203982612679565b602082019050919050565b6000612051601283612323565b915061205c826126a2565b602082019050919050565b6000612074602a83612323565b915061207f826126cb565b604082019050919050565b6000612097601f83612323565b91506120a28261271a565b602082019050919050565b6120b681612499565b82525050565b60006120c88284611f3f565b915081905092915050565b60006020820190506120e86000830184611f21565b92915050565b60006060820190506121036000830186611f21565b6121106020830185611f21565b61211d60408301846120ad565b949350505050565b600060408201905061213a6000830185611f21565b61214760208301846120ad565b9392505050565b60006020820190506121636000830184611f70565b92915050565b600060a08201905061217e6000830188611f70565b61218b60208301876120ad565b61219860408301866120ad565b6121a560608301856120ad565b6121b26080830184611f30565b9695505050505050565b600060208201905081810360008301526121d68184611f7f565b905092915050565b600060208201905081810360008301526121f781611fb8565b9050919050565b6000602082019050818103600083015261221781611fdb565b9050919050565b6000602082019050818103600083015261223781611ffe565b9050919050565b6000602082019050818103600083015261225781612021565b9050919050565b6000602082019050818103600083015261227781612044565b9050919050565b6000602082019050818103600083015261229781612067565b9050919050565b600060208201905081810360008301526122b78161208a565b9050919050565b60006020820190506122d360008301846120ad565b92915050565b60006040820190506122ee60008301856120ad565b6122fb60208301846120ad565b9392505050565b600081519050919050565b600081519050919050565b600081905092915050565b600082825260208201905092915050565b600061233f82612499565b915061234a83612499565b9250827fffffffffffffffffffffffffffffffffffffffffffffffffffffffffffffffff0382111561237f5761237e612543565b5b828201905092915050565b600061239582612499565b91506123a083612499565b9250826123b0576123af612572565b5b828204905092915050565b60006123c682612499565b91506123d183612499565b9250817fffffffffffffffffffffffffffffffffffffffffffffffffffffffffffffffff048311821515161561240a57612409612543565b5b828202905092915050565b600061242082612499565b915061242b83612499565b92508282101561243e5761243d612543565b5b828203905092915050565b600061245482612479565b9050919050565b60008115159050919050565b600061247282612449565b9050919050565b600073ffffffffffffffffffffffffffffffffffffffff82169050919050565b6000819050919050565b60006124ae826124b5565b9050919050565b60006124c082612479565b9050919050565b60005b838110156124e55780820151818401526020810190506124ca565b838111156124f4576000848401525b50505050565b600061250582612499565b91507fffffffffffffffffffffffffffffffffffffffffffffffffffffffffffffffff82141561253857612537612543565b5b600182019050919050565b7f4e487b7100000000000000000000000000000000000000000000000000000000600052601160045260246000fd5b7f4e487b7100000000000000000000000000000000000000000000000000000000600052601260045260246000fd5b6000601f19601f8301169050919050565b7f4361746147656e506f6f6c3a2063616c6c6572206973206e6f7420746865206f60008201527f70657261746f7200000000000000000000000000000000000000000000000000602082015250565b7f416464726573733a20696e73756666696369656e742062616c616e636520666f60008201527f722063616c6c0000000000000000000000000000000000000000000000000000602082015250565b7f4361746147656e506f6f6c3a206578697374696e6720706f6f6c3f0000000000600082015250565b7f416464726573733a2063616c6c20746f206e6f6e2d636f6e7472616374000000600082015250565b7f77697468647261773a206e6f7420676f6f640000000000000000000000000000600082015250565b7f5361666545524332303a204552433230206f7065726174696f6e20646964206e60008201527f6f74207375636365656400000000000000000000000000000000000000000000602082015250565b7f5265656e7472616e637947756172643a207265656e7472616e742063616c6c00600082015250565b61274c81612449565b811461275757600080fd5b50565b6127638161245b565b811461276e57600080fd5b50565b61277a81612467565b811461278557600080fd5b50565b61279181612499565b811461279c57600080fd5b5056fea2646970667358221220106049f0feab47becb7294acfe33e6be103f5496f2a553ea0369fe1eeaad7dbb64736f6c63430008030033",
  "linkReferences": {},
  "deployedLinkReferences": {}
}