{
  "_format": "hh-sol-artifact-1",
  "contractName": "SimpleERCFund",
  "sourceName": "contracts/SimpleERCFund.sol",
  "abi": [
    {
      "anonymous": false,
      "inputs": [
        {
          "indexed": true,
          "internalType": "address",
          "name": "from",
          "type": "address"
        },
        {
          "indexed": true,
          "internalType": "uint256",
          "name": "at",
          "type": "uint256"
        },
        {
          "indexed": false,
          "internalType": "string",
          "name": "reason",
          "type": "string"
        }
      ],
      "name": "Deposit",
      "type": "event"
    },
    {
      "anonymous": false,
      "inputs": [
        {
          "indexed": true,
          "internalType": "address",
          "name": "previousOperator",
          "type": "address"
        },
        {
          "indexed": true,
          "internalType": "address",
          "name": "newOperator",
          "type": "address"
        }
      ],
      "name": "OperatorTransferred",
      "type": "event"
    },
    {
      "anonymous": false,
      "inputs": [
        {
          "indexed": true,
          "internalType": "address",
          "name": "previousOwner",
          "type": "address"
        },
        {
          "indexed": true,
          "internalType": "address",
          "name": "newOwner",
          "type": "address"
        }
      ],
      "name": "OwnershipTransferred",
      "type": "event"
    },
    {
      "anonymous": false,
      "inputs": [
        {
          "indexed": true,
          "internalType": "address",
          "name": "from",
          "type": "address"
        },
        {
          "indexed": true,
          "internalType": "address",
          "name": "to",
          "type": "address"
        },
        {
          "indexed": true,
          "internalType": "uint256",
          "name": "at",
          "type": "uint256"
        },
        {
          "indexed": false,
          "internalType": "string",
          "name": "reason",
          "type": "string"
        }
      ],
      "name": "Withdrawal",
      "type": "event"
    },
    {
      "inputs": [],
      "name": "_renounceOperator",
      "outputs": [],
      "stateMutability": "nonpayable",
      "type": "function"
    },
    {
      "inputs": [
        {
          "internalType": "address",
          "name": "token",
          "type": "address"
        },
        {
          "internalType": "uint256",
          "name": "amount",
          "type": "uint256"
        },
        {
          "internalType": "string",
          "name": "reason",
          "type": "string"
        }
      ],
      "name": "deposit",
      "outputs": [],
      "stateMutability": "nonpayable",
      "type": "function"
    },
    {
      "inputs": [],
      "name": "isOperator",
      "outputs": [
        {
          "internalType": "bool",
          "name": "",
          "type": "bool"
        }
      ],
      "stateMutability": "view",
      "type": "function"
    },
    {
      "inputs": [],
      "name": "operator",
      "outputs": [
        {
          "internalType": "address",
          "name": "",
          "type": "address"
        }
      ],
      "stateMutability": "view",
      "type": "function"
    },
    {
      "inputs": [],
      "name": "owner",
      "outputs": [
        {
          "internalType": "address",
          "name": "",
          "type": "address"
        }
      ],
      "stateMutability": "view",
      "type": "function"
    },
    {
      "inputs": [],
      "name": "renounceOwnership",
      "outputs": [],
      "stateMutability": "nonpayable",
      "type": "function"
    },
    {
      "inputs": [
        {
          "internalType": "address",
          "name": "newOperator_",
          "type": "address"
        }
      ],
      "name": "transferOperator",
      "outputs": [],
      "stateMutability": "nonpayable",
      "type": "function"
    },
    {
      "inputs": [
        {
          "internalType": "address",
          "name": "newOwner",
          "type": "address"
        }
      ],
      "name": "transferOwnership",
      "outputs": [],
      "stateMutability": "nonpayable",
      "type": "function"
    },
    {
      "inputs": [
        {
          "internalType": "address",
          "name": "token",
          "type": "address"
        },
        {
          "internalType": "uint256",
          "name": "amount",
          "type": "uint256"
        },
        {
          "internalType": "address",
          "name": "to",
          "type": "address"
        },
        {
          "internalType": "string",
          "name": "reason",
          "type": "string"
        }
      ],
      "name": "withdraw",
      "outputs": [],
      "stateMutability": "nonpayable",
      "type": "function"
    }
  ],
  "bytecode": "0x608060405234801561001057600080fd5b5061001a3361005f565b600180546001600160a01b031916339081179091556040516000907f74da04524d50c64947f5dd5381ef1a4dca5cba8ed1d816243f9e48aa0b5617ed908290a36100af565b600080546001600160a01b038381166001600160a01b0319831681178455604051919092169283917f8be0079c531659141344cd1fd0a4f28419497f9722a3daafe3b4186f6b6457e09190a35050565b610b5c806100be6000396000f3fe608060405234801561001057600080fd5b50600436106100935760003560e01c80638a27f103116100665780638a27f103146100fd5780638da5cb5b1461010557806395c66ddb14610116578063bfe07da614610129578063f2fde38b1461013c57600080fd5b806329605e77146100985780634456eda2146100ad578063570ca735146100d0578063715018a6146100f5575b600080fd5b6100ab6100a636600461090c565b61014f565b005b6001546001600160a01b0316331460405190151581526020015b60405180910390f35b6001546001600160a01b03165b6040516001600160a01b0390911681526020016100c7565b6100ab6101ba565b6100ab610220565b6000546001600160a01b03166100dd565b6100ab6101243660046109ca565b6102c4565b6100ab610137366004610a32565b610390565b6100ab61014a36600461090c565b6103ec565b6000546001600160a01b031633146101ae5760405162461bcd60e51b815260206004820181905260248201527f4f776e61626c653a2063616c6c6572206973206e6f7420746865206f776e657260448201526064015b60405180910390fd5b6101b7816104b4565b50565b6000546001600160a01b031633146102145760405162461bcd60e51b815260206004820181905260248201527f4f776e61626c653a2063616c6c6572206973206e6f7420746865206f776e657260448201526064016101a5565b61021e6000610578565b565b6000546001600160a01b0316331461027a5760405162461bcd60e51b815260206004820181905260248201527f4f776e61626c653a2063616c6c6572206973206e6f7420746865206f776e657260448201526064016101a5565b6001546040516000916001600160a01b0316907f74da04524d50c64947f5dd5381ef1a4dca5cba8ed1d816243f9e48aa0b5617ed908390a3600180546001600160a01b0319169055565b6001546001600160a01b0316331461032a5760405162461bcd60e51b8152602060048201526024808201527f6f70657261746f723a2063616c6c6572206973206e6f7420746865206f70657260448201526330ba37b960e11b60648201526084016101a5565b61033e6001600160a01b03851683856105c8565b42826001600160a01b0316336001600160a01b03167f2b0d35cc55a37536a00cf056f44b5f4b453659ddd18bc131a978463523ad3a1f846040516103829190610ab5565b60405180910390a450505050565b6103a56001600160a01b03841633308561065d565b42336001600160a01b03167f643e927b32d5bfd08eccd2fcbd97057ad413850f857a2359639114e8e8dd3d7b836040516103df9190610ab5565b60405180910390a3505050565b6000546001600160a01b031633146104465760405162461bcd60e51b815260206004820181905260248201527f4f776e61626c653a2063616c6c6572206973206e6f7420746865206f776e657260448201526064016101a5565b6001600160a01b0381166104ab5760405162461bcd60e51b815260206004820152602660248201527f4f776e61626c653a206e6577206f776e657220697320746865207a65726f206160448201526564647265737360d01b60648201526084016101a5565b6101b781610578565b6001600160a01b0381166105205760405162461bcd60e51b815260206004820152602d60248201527f6f70657261746f723a207a65726f206164647265737320676976656e20666f7260448201526c103732bb9037b832b930ba37b960991b60648201526084016101a5565b6040516001600160a01b038216906000907f74da04524d50c64947f5dd5381ef1a4dca5cba8ed1d816243f9e48aa0b5617ed908290a3600180546001600160a01b0319166001600160a01b0392909216919091179055565b600080546001600160a01b038381166001600160a01b0319831681178455604051919092169283917f8be0079c531659141344cd1fd0a4f28419497f9722a3daafe3b4186f6b6457e09190a35050565b6040516001600160a01b03831660248201526044810182905261065890849063a9059cbb60e01b906064015b60408051601f198184030181529190526020810180517bffffffffffffffffffffffffffffffffffffffffffffffffffffffff167fffffffff000000000000000000000000000000000000000000000000000000009093169290921790915261069b565b505050565b6040516001600160a01b03808516602483015283166044820152606481018290526106959085906323b872dd60e01b906084016105f4565b50505050565b60006106f0826040518060400160405280602081526020017f5361666545524332303a206c6f772d6c6576656c2063616c6c206661696c6564815250856001600160a01b031661076d9092919063ffffffff16565b805190915015610658578080602001905181019061070e9190610ae8565b6106585760405162461bcd60e51b815260206004820152602a60248201527f5361666545524332303a204552433230206f7065726174696f6e20646964206e6044820152691bdd081cdd58d8d9595960b21b60648201526084016101a5565b606061077c8484600085610786565b90505b9392505050565b6060824710156107e75760405162461bcd60e51b815260206004820152602660248201527f416464726573733a20696e73756666696369656e742062616c616e636520666f6044820152651c8818d85b1b60d21b60648201526084016101a5565b6001600160a01b0385163b61083e5760405162461bcd60e51b815260206004820152601d60248201527f416464726573733a2063616c6c20746f206e6f6e2d636f6e747261637400000060448201526064016101a5565b600080866001600160a01b0316858760405161085a9190610b0a565b60006040518083038185875af1925050503d8060008114610897576040519150601f19603f3d011682016040523d82523d6000602084013e61089c565b606091505b50915091506108ac8282866108b7565b979650505050505050565b606083156108c657508161077f565b8251156108d65782518084602001fd5b8160405162461bcd60e51b81526004016101a59190610ab5565b80356001600160a01b038116811461090757600080fd5b919050565b60006020828403121561091e57600080fd5b61077f826108f0565b634e487b7160e01b600052604160045260246000fd5b600082601f83011261094e57600080fd5b813567ffffffffffffffff8082111561096957610969610927565b604051601f8301601f19908116603f0116810190828211818310171561099157610991610927565b816040528381528660208588010111156109aa57600080fd5b836020870160208301376000602085830101528094505050505092915050565b600080600080608085870312156109e057600080fd5b6109e9856108f0565b9350602085013592506109fe604086016108f0565b9150606085013567ffffffffffffffff811115610a1a57600080fd5b610a268782880161093d565b91505092959194509250565b600080600060608486031215610a4757600080fd5b610a50846108f0565b925060208401359150604084013567ffffffffffffffff811115610a7357600080fd5b610a7f8682870161093d565b9150509250925092565b60005b83811015610aa4578181015183820152602001610a8c565b838111156106955750506000910152565b6020815260008251806020840152610ad4816040850160208701610a89565b601f01601f19169190910160400192915050565b600060208284031215610afa57600080fd5b8151801515811461077f57600080fd5b60008251610b1c818460208701610a89565b919091019291505056fea2646970667358221220e0872253a6a6e3cc9eae8bf33c4fcaf02a455662854e46f0aeb1b3d33e0c62ec64736f6c63430008090033",
  "linkReferences": {},
  "deployedLinkReferences": {}
}