{
  "_format": "hh-sol-artifact-1",
  "contractName": "Oracle",
  "sourceName": "contracts/Oracle.sol",
  "abi": [
    {
      "inputs": [
        {
          "internalType": "contract IUniswapV2Pair",
          "name": "_pair",
          "type": "address"
        },
        {
          "internalType": "uint256",
          "name": "_period",
          "type": "uint256"
        },
        {
          "internalType": "uint256",
          "name": "_startTime",
          "type": "uint256"
        }
      ],
      "stateMutability": "nonpayable",
      "type": "constructor"
    },
    {
      "anonymous": false,
      "inputs": [
        {
          "indexed": true,
          "internalType": "address",
          "name": "previousOperator",
          "type": "address"
        },
        {
          "indexed": true,
          "internalType": "address",
          "name": "newOperator",
          "type": "address"
        }
      ],
      "name": "OperatorTransferred",
      "type": "event"
    },
    {
      "anonymous": false,
      "inputs": [
        {
          "indexed": true,
          "internalType": "address",
          "name": "previousOwner",
          "type": "address"
        },
        {
          "indexed": true,
          "internalType": "address",
          "name": "newOwner",
          "type": "address"
        }
      ],
      "name": "OwnershipTransferred",
      "type": "event"
    },
    {
      "anonymous": false,
      "inputs": [
        {
          "indexed": false,
          "internalType": "uint256",
          "name": "price0CumulativeLast",
          "type": "uint256"
        },
        {
          "indexed": false,
          "internalType": "uint256",
          "name": "price1CumulativeLast",
          "type": "uint256"
        }
      ],
      "name": "Updated",
      "type": "event"
    },
    {
      "inputs": [],
      "name": "ALLOW_STALE_CONSULTS",
      "outputs": [
        {
          "internalType": "bool",
          "name": "",
          "type": "bool"
        }
      ],
      "stateMutability": "view",
      "type": "function"
    },
    {
      "inputs": [],
      "name": "CONSULT_LENIENCY",
      "outputs": [
        {
          "internalType": "uint256",
          "name": "",
          "type": "uint256"
        }
      ],
      "stateMutability": "view",
      "type": "function"
    },
    {
      "inputs": [],
      "name": "PERIOD",
      "outputs": [
        {
          "internalType": "uint256",
          "name": "",
          "type": "uint256"
        }
      ],
      "stateMutability": "view",
      "type": "function"
    },
    {
      "inputs": [],
      "name": "_renounceOperator",
      "outputs": [],
      "stateMutability": "nonpayable",
      "type": "function"
    },
    {
      "inputs": [],
      "name": "blockTimestampLast",
      "outputs": [
        {
          "internalType": "uint32",
          "name": "",
          "type": "uint32"
        }
      ],
      "stateMutability": "view",
      "type": "function"
    },
    {
      "inputs": [],
      "name": "canUpdate",
      "outputs": [
        {
          "internalType": "bool",
          "name": "",
          "type": "bool"
        }
      ],
      "stateMutability": "view",
      "type": "function"
    },
    {
      "inputs": [
        {
          "internalType": "address",
          "name": "_token",
          "type": "address"
        },
        {
          "internalType": "uint256",
          "name": "_amountIn",
          "type": "uint256"
        }
      ],
      "name": "consult",
      "outputs": [
        {
          "internalType": "uint144",
          "name": "amountOut",
          "type": "uint144"
        }
      ],
      "stateMutability": "view",
      "type": "function"
    },
    {
      "inputs": [],
      "name": "getCurrentEpoch",
      "outputs": [
        {
          "internalType": "uint256",
          "name": "",
          "type": "uint256"
        }
      ],
      "stateMutability": "view",
      "type": "function"
    },
    {
      "inputs": [],
      "name": "getLastEpochTime",
      "outputs": [
        {
          "internalType": "uint256",
          "name": "",
          "type": "uint256"
        }
      ],
      "stateMutability": "view",
      "type": "function"
    },
    {
      "inputs": [],
      "name": "getPeriod",
      "outputs": [
        {
          "internalType": "uint256",
          "name": "",
          "type": "uint256"
        }
      ],
      "stateMutability": "view",
      "type": "function"
    },
    {
      "inputs": [],
      "name": "getStartTime",
      "outputs": [
        {
          "internalType": "uint256",
          "name": "",
          "type": "uint256"
        }
      ],
      "stateMutability": "view",
      "type": "function"
    },
    {
      "inputs": [],
      "name": "isOperator",
      "outputs": [
        {
          "internalType": "bool",
          "name": "",
          "type": "bool"
        }
      ],
      "stateMutability": "view",
      "type": "function"
    },
    {
      "inputs": [],
      "name": "nextEpochPoint",
      "outputs": [
        {
          "internalType": "uint256",
          "name": "",
          "type": "uint256"
        }
      ],
      "stateMutability": "view",
      "type": "function"
    },
    {
      "inputs": [],
      "name": "operator",
      "outputs": [
        {
          "internalType": "address",
          "name": "",
          "type": "address"
        }
      ],
      "stateMutability": "view",
      "type": "function"
    },
    {
      "inputs": [],
      "name": "owner",
      "outputs": [
        {
          "internalType": "address",
          "name": "",
          "type": "address"
        }
      ],
      "stateMutability": "view",
      "type": "function"
    },
    {
      "inputs": [],
      "name": "pair",
      "outputs": [
        {
          "internalType": "contract IUniswapV2Pair",
          "name": "",
          "type": "address"
        }
      ],
      "stateMutability": "view",
      "type": "function"
    },
    {
      "inputs": [],
      "name": "price0Average",
      "outputs": [
        {
          "internalType": "uint224",
          "name": "_x",
          "type": "uint224"
        }
      ],
      "stateMutability": "view",
      "type": "function"
    },
    {
      "inputs": [],
      "name": "price0CumulativeLast",
      "outputs": [
        {
          "internalType": "uint256",
          "name": "",
          "type": "uint256"
        }
      ],
      "stateMutability": "view",
      "type": "function"
    },
    {
      "inputs": [],
      "name": "price1Average",
      "outputs": [
        {
          "internalType": "uint224",
          "name": "_x",
          "type": "uint224"
        }
      ],
      "stateMutability": "view",
      "type": "function"
    },
    {
      "inputs": [],
      "name": "price1CumulativeLast",
      "outputs": [
        {
          "internalType": "uint256",
          "name": "",
          "type": "uint256"
        }
      ],
      "stateMutability": "view",
      "type": "function"
    },
    {
      "inputs": [],
      "name": "renounceOwnership",
      "outputs": [],
      "stateMutability": "nonpayable",
      "type": "function"
    },
    {
      "inputs": [
        {
          "internalType": "bool",
          "name": "_allow_stale_consults",
          "type": "bool"
        }
      ],
      "name": "setAllowStaleConsults",
      "outputs": [],
      "stateMutability": "nonpayable",
      "type": "function"
    },
    {
      "inputs": [
        {
          "internalType": "uint256",
          "name": "_consult_leniency",
          "type": "uint256"
        }
      ],
      "name": "setConsultLeniency",
      "outputs": [],
      "stateMutability": "nonpayable",
      "type": "function"
    },
    {
      "inputs": [
        {
          "internalType": "uint256",
          "name": "_epoch",
          "type": "uint256"
        }
      ],
      "name": "setEpoch",
      "outputs": [],
      "stateMutability": "nonpayable",
      "type": "function"
    },
    {
      "inputs": [
        {
          "internalType": "uint256",
          "name": "_period",
          "type": "uint256"
        }
      ],
      "name": "setNewPeriod",
      "outputs": [],
      "stateMutability": "nonpayable",
      "type": "function"
    },
    {
      "inputs": [
        {
          "internalType": "uint256",
          "name": "_period",
          "type": "uint256"
        }
      ],
      "name": "setPeriod",
      "outputs": [],
      "stateMutability": "nonpayable",
      "type": "function"
    },
    {
      "inputs": [],
      "name": "token0",
      "outputs": [
        {
          "internalType": "address",
          "name": "",
          "type": "address"
        }
      ],
      "stateMutability": "view",
      "type": "function"
    },
    {
      "inputs": [],
      "name": "token1",
      "outputs": [
        {
          "internalType": "address",
          "name": "",
          "type": "address"
        }
      ],
      "stateMutability": "view",
      "type": "function"
    },
    {
      "inputs": [
        {
          "internalType": "address",
          "name": "newOperator_",
          "type": "address"
        }
      ],
      "name": "transferOperator",
      "outputs": [],
      "stateMutability": "nonpayable",
      "type": "function"
    },
    {
      "inputs": [
        {
          "internalType": "address",
          "name": "newOwner",
          "type": "address"
        }
      ],
      "name": "transferOwnership",
      "outputs": [],
      "stateMutability": "nonpayable",
      "type": "function"
    },
    {
      "inputs": [
        {
          "internalType": "address",
          "name": "_token",
          "type": "address"
        },
        {
          "internalType": "uint256",
          "name": "_amountIn",
          "type": "uint256"
        }
      ],
      "name": "twap",
      "outputs": [
        {
          "internalType": "uint144",
          "name": "_amountOut",
          "type": "uint144"
        }
      ],
      "stateMutability": "view",
      "type": "function"
    },
    {
      "inputs": [],
      "name": "update",
      "outputs": [],
      "stateMutability": "nonpayable",
      "type": "function"
    }
  ],
  "bytecode": "0x608060405261546060065560786007556008805460ff191690553480156200002657600080fd5b5060405162001c7938038062001c798339810160408190526200004991620004b5565b81816000620000583362000437565b600180546001600160a01b031916339081179091556040516000907f74da04524d50c64947f5dd5381ef1a4dca5cba8ed1d816243f9e48aa0b5617ed908290a3600283905560038290556005819055620000bf828462000487602090811b62000f4b17901c565b6004908155600a80546001600160a01b0319166001600160a01b03891690811790915560408051630dfe168160e01b81529051919550630dfe16819450808301935060209290829003018186803b1580156200011a57600080fd5b505afa1580156200012f573d6000803e3d6000fd5b505050506040513d601f19601f82011682018060405250810190620001559190620004ef565b60088054610100600160a81b0319166101006001600160a01b0393841602179055600a546040805163d21220a760e01b81529051919092169163d21220a7916004808301926020929190829003018186803b158015620001b457600080fd5b505afa158015620001c9573d6000803e3d6000fd5b505050506040513d601f19601f82011682018060405250810190620001ef9190620004ef565b600980546001600160a01b0319166001600160a01b03928316179055600a5460408051635909c0d560e01b815290519190921691635909c0d5916004808301926020929190829003018186803b1580156200024957600080fd5b505afa1580156200025e573d6000803e3d6000fd5b505050506040513d601f19601f820116820180604052508101906200028491906200050f565b600b55600a5460408051635a3d549360e01b815290516001600160a01b0390921691635a3d549391600480820192602092909190829003018186803b158015620002cd57600080fd5b505afa158015620002e2573d6000803e3d6000fd5b505050506040513d601f19601f820116820180604052508101906200030891906200050f565b600c55600a5460408051630240bc6b60e21b8152905160009283926001600160a01b0390911691630902f1ac91600480820192606092909190829003018186803b1580156200035657600080fd5b505afa1580156200036b573d6000803e3d6000fd5b505050506040513d601f19601f8201168201806040525081019062000391919062000546565b600a805463ffffffff909216600160a01b0263ffffffff60a01b1990921691909117905590925090506001600160701b03821615801590620003db57506001600160701b03811615155b6200042c5760405162461bcd60e51b815260206004820152601360248201527f4f7261636c653a204e4f5f524553455256455300000000000000000000000000604482015260640160405180910390fd5b5050505050620005c2565b600080546001600160a01b038381166001600160a01b0319831681178455604051919092169283917f8be0079c531659141344cd1fd0a4f28419497f9722a3daafe3b4186f6b6457e09190a35050565b60006200049582846200059c565b9392505050565b6001600160a01b0381168114620004b257600080fd5b50565b600080600060608486031215620004cb57600080fd5b8351620004d8816200049c565b602085015160409095015190969495509392505050565b6000602082840312156200050257600080fd5b815162000495816200049c565b6000602082840312156200052257600080fd5b5051919050565b80516001600160701b03811681146200054157600080fd5b919050565b6000806000606084860312156200055c57600080fd5b620005678462000529565b9250620005776020850162000529565b9150604084015163ffffffff811681146200059157600080fd5b809150509250925092565b600082821015620005bd57634e487b7160e01b600052601160045260246000fd5b500390565b6116a780620005d26000396000f3fe608060405234801561001057600080fd5b50600436106101f05760003560e01c80638a27f1031161010f578063ba522458116100a2578063d21220a711610071578063d21220a714610406578063eff631cf14610419578063f1551aea1461042c578063f2fde38b1461043f57600080fd5b8063ba522458146103c2578063c5700a02146103ca578063c5967c26146103f6578063c828371e146103fe57600080fd5b8063a6bb4539116100de578063a6bb45391461038b578063a8aa1b311461039e578063b4d1d795146103b1578063b97dd9e2146103ba57600080fd5b80638a27f103146103625780638da5cb5b1461036a578063a17a26851461037b578063a2e620451461038357600080fd5b80634456eda2116101875780635cb9a714116101565780635cb9a714146103095780635e6aaf2c1461031c5780636808a12814610347578063715018a61461035a57600080fd5b80634456eda2146102d3578063570ca735146102e65780635909c0d5146102f75780635a3d54931461030057600080fd5b80631ed24195116101c35780631ed241951461026f57806329605e77146102815780633ddac953146102945780633fcb55ca146102ca57600080fd5b80630ceb2cef146101f55780630dfe16811461020a5780630f3a9f651461023f5780631ac2c82514610252575b600080fd5b610208610203366004611402565b610452565b005b6008546102229061010090046001600160a01b031681565b6040516001600160a01b0390911681526020015b60405180910390f35b61020861024d366004611402565b61048a565b60085461025f9060ff1681565b6040519015158152602001610236565b6002545b604051908152602001610236565b61020861028f366004611437565b61051a565b6102a76102a2366004611452565b610580565b60405171ffffffffffffffffffffffffffffffffffff9091168152602001610236565b61027360075481565b6001546001600160a01b0316331461025f565b6001546001600160a01b0316610222565b610273600b5481565b610273600c5481565b610208610317366004611402565b6106f2565b600e5461032f906001600160e01b031681565b6040516001600160e01b039091168152602001610236565b6102a7610355366004611452565b610721565b610208610885565b6102086108eb565b6000546001600160a01b0316610222565b61025f61098f565b6102086109ce565b600d5461032f906001600160e01b031681565b600a54610222906001600160a01b031681565b61027360065481565b600554610273565b600454610273565b600a546103e190600160a01b900463ffffffff1681565b60405163ffffffff9091168152602001610236565b610273610daa565b600354610273565b600954610222906001600160a01b031681565b610208610427366004611402565b610dc8565b61020861043a36600461147c565b610e46565b61020861044d366004611437565b610e83565b6001546001600160a01b031633146104855760405162461bcd60e51b815260040161047c9061149e565b60405180910390fd5b600555565b6001546001600160a01b031633146104b45760405162461bcd60e51b815260040161047c9061149e565b610e1081101580156104c957506202a3008111155b6105155760405162461bcd60e51b815260206004820152601560248201527f5f706572696f643a206f7574206f662072616e67650000000000000000000000604482015260640161047c565b600255565b6000546001600160a01b031633146105745760405162461bcd60e51b815260206004820181905260248201527f4f776e61626c653a2063616c6c6572206973206e6f7420746865206f776e6572604482015260640161047c565b61057d81610f5e565b50565b60008061058b611022565b600a54600754600654929350600160a01b90910463ffffffff168303916105b291906114f8565b8163ffffffff1610806105c7575060085460ff165b6106135760405162461bcd60e51b815260206004820152601f60248201527f5354414c455f50524943455f4e4545445f544f5f43414c4c5f55504441544500604482015260640161047c565b6008546001600160a01b03868116610100909204161415610663576040805160208101909152600d546001600160e01b0316815261065c906106559086611033565b5160701c90565b92506106ea565b6009546001600160a01b038681169116146106c05760405162461bcd60e51b815260206004820152601560248201527f4f7261636c653a20494e56414c49445f544f4b454e0000000000000000000000604482015260640161047c565b6040805160208101909152600e546001600160e01b031681526106e7906106559086611033565b92505b505092915050565b6001546001600160a01b0316331461071c5760405162461bcd60e51b815260040161047c9061149e565b600755565b600a5460009081908190819061073f906001600160a01b03166110dd565b600a54929550909350915060009061076490600160a01b900463ffffffff1683611510565b905060075460065461077691906114f8565b8163ffffffff16108061078b575060085460ff165b6107d75760405162461bcd60e51b815260206004820181905260248201527f205354414c455f50524943455f4e4545445f544f5f43414c4c5f555044415445604482015260640161047c565b6008546001600160a01b0388811661010090920416141561083b576108346106558760405180602001604052808563ffffffff16600b548a6108199190611535565b6108239190611562565b6001600160e01b0316905290611033565b945061087b565b6009546001600160a01b038881169116141561087b576108786106558760405180602001604052808563ffffffff16600c54896108199190611535565b94505b5050505092915050565b6000546001600160a01b031633146108df5760405162461bcd60e51b815260206004820181905260248201527f4f776e61626c653a2063616c6c6572206973206e6f7420746865206f776e6572604482015260640161047c565b6108e960006112dd565b565b6000546001600160a01b031633146109455760405162461bcd60e51b815260206004820181905260248201527f4f776e61626c653a2063616c6c6572206973206e6f7420746865206f776e6572604482015260640161047c565b6001546040516000916001600160a01b0316907f74da04524d50c64947f5dd5381ef1a4dca5cba8ed1d816243f9e48aa0b5617ed908390a3600180546001600160a01b0319169055565b60008061099a611022565b600a549091506000906109ba90600160a01b900463ffffffff1683611510565b60065463ffffffff90911610159392505050565b60006109d8610daa565b905080421015610be3576001546001600160a01b03163314610a4f5760405162461bcd60e51b815260206004820152602a60248201527f45706f63683a206f6e6c79206f70657261746f7220616c6c6f77656420666f72604482015269040e0e4ca5acae0dec6d60b31b606482015260840161047c565b600a5460009081908190610a6b906001600160a01b03166110dd565b600a54600654939650919450925063ffffffff600160a01b90910481168303919082161015610ad25760405162461bcd60e51b8152602060048201526013602482015272081411549253d117d393d517d153105414d151606a1b604482015260640161047c565b63ffffffff8116610ae4575050505050565b60405180602001604052808263ffffffff16600b54870381610b0857610b0861154c565b046001600160e01b039081169091529051600d80546001600160e01b031916919092161790556040805160208101909152600c54819063ffffffff841690860381610b5557610b5561154c565b046001600160e01b039081169091529051600e80546001600160e01b03191691909216179055600b849055600c839055600a805463ffffffff60a01b1916600160a01b63ffffffff85160217905560408051858152602081018590527fd78a0cb8bb633d06981248b816e7bd33c2a35a6089241d099fa519e361cab902910160405180910390a15050505050565b600a5460009081908190610bff906001600160a01b03166110dd565b600a54600654939650919450925063ffffffff600160a01b90910481168303919082161015610c665760405162461bcd60e51b8152602060048201526013602482015272081411549253d117d393d517d153105414d151606a1b604482015260640161047c565b63ffffffff8116610c7a5750505050610d77565b60405180602001604052808263ffffffff16600b54870381610c9e57610c9e61154c565b046001600160e01b039081169091529051600d80546001600160e01b031916919092161790556040805160208101909152600c54819063ffffffff841690860381610ceb57610ceb61154c565b046001600160e01b039081169091529051600e80546001600160e01b03191691909216179055600b849055600c839055600a805463ffffffff60a01b1916600160a01b63ffffffff85160217905560408051858152602081018590527fd78a0cb8bb633d06981248b816e7bd33c2a35a6089241d099fa519e361cab902910160405180910390a1505050505b600481905560058054600090610d8c90611576565b90915550610d98610daa565b905080421015610da55750565b610d77565b6000610dc360025460045461132d90919063ffffffff16565b905090565b6001546001600160a01b03163314610df25760405162461bcd60e51b815260040161047c9061149e565b604051630f3a9f6560e01b8152600481018290523090630f3a9f6590602401600060405180830381600087803b158015610e2b57600080fd5b505af1158015610e3f573d6000803e3d6000fd5b5050505050565b6001546001600160a01b03163314610e705760405162461bcd60e51b815260040161047c9061149e565b6008805460ff1916911515919091179055565b6000546001600160a01b03163314610edd5760405162461bcd60e51b815260206004820181905260248201527f4f776e61626c653a2063616c6c6572206973206e6f7420746865206f776e6572604482015260640161047c565b6001600160a01b038116610f425760405162461bcd60e51b815260206004820152602660248201527f4f776e61626c653a206e6577206f776e657220697320746865207a65726f206160448201526564647265737360d01b606482015260840161047c565b61057d816112dd565b6000610f578284611535565b9392505050565b6001600160a01b038116610fca5760405162461bcd60e51b815260206004820152602d60248201527f6f70657261746f723a207a65726f206164647265737320676976656e20666f7260448201526c103732bb9037b832b930ba37b960991b606482015260840161047c565b6040516001600160a01b038216906000907f74da04524d50c64947f5dd5381ef1a4dca5cba8ed1d816243f9e48aa0b5617ed908290a3600180546001600160a01b0319166001600160a01b0392909216919091179055565b6000610dc364010000000042611591565b6040805160208101909152600081526000821580611070575083516001600160e01b03168361106281836115a5565b925061106e9083611562565b145b6110c85760405162461bcd60e51b815260206004820152602360248201527f4669786564506f696e743a204d554c5449504c49434154494f4e5f4f564552466044820152624c4f5760e81b606482015260840161047c565b60408051602081019091529081529392505050565b60008060006110ea611022565b9050836001600160a01b0316635909c0d56040518163ffffffff1660e01b815260040160206040518083038186803b15801561112557600080fd5b505afa158015611139573d6000803e3d6000fd5b505050506040513d601f19601f8201168201806040525081019061115d91906115c4565b9250836001600160a01b0316635a3d54936040518163ffffffff1660e01b815260040160206040518083038186803b15801561119857600080fd5b505afa1580156111ac573d6000803e3d6000fd5b505050506040513d601f19601f820116820180604052508101906111d091906115c4565b91506000806000866001600160a01b0316630902f1ac6040518163ffffffff1660e01b815260040160606040518083038186803b15801561121057600080fd5b505afa158015611224573d6000803e3d6000fd5b505050506040513d601f19601f8201168201806040525081019061124891906115fb565b9250925092508363ffffffff168163ffffffff16146112d357600061126d8286611510565b90508063ffffffff166112808486611339565b5161129491906001600160e01b03166115a5565b61129e90886114f8565b96508063ffffffff166112b18585611339565b516112c591906001600160e01b03166115a5565b6112cf90876114f8565b9550505b5050509193909250565b600080546001600160a01b038381166001600160a01b0319831681178455604051919092169283917f8be0079c531659141344cd1fd0a4f28419497f9722a3daafe3b4186f6b6457e09190a35050565b6000610f5782846114f8565b6040805160208101909152600081526000826dffffffffffffffffffffffffffff16116113a85760405162461bcd60e51b815260206004820152601760248201527f4669786564506f696e743a204449565f42595f5a45524f000000000000000000604482015260640161047c565b6040805160208101909152806113f06dffffffffffffffffffffffffffff85167bffffffffffffffffffffffffffff0000000000000000000000000000607088901b1661164b565b6001600160e01b031690529392505050565b60006020828403121561141457600080fd5b5035919050565b80356001600160a01b038116811461143257600080fd5b919050565b60006020828403121561144957600080fd5b610f578261141b565b6000806040838503121561146557600080fd5b61146e8361141b565b946020939093013593505050565b60006020828403121561148e57600080fd5b81358015158114610f5757600080fd5b60208082526024908201527f6f70657261746f723a2063616c6c6572206973206e6f7420746865206f70657260408201526330ba37b960e11b606082015260800190565b634e487b7160e01b600052601160045260246000fd5b6000821982111561150b5761150b6114e2565b500190565b600063ffffffff8381169083168181101561152d5761152d6114e2565b039392505050565b600082821015611547576115476114e2565b500390565b634e487b7160e01b600052601260045260246000fd5b6000826115715761157161154c565b500490565b600060001982141561158a5761158a6114e2565b5060010190565b6000826115a0576115a061154c565b500690565b60008160001904831182151516156115bf576115bf6114e2565b500290565b6000602082840312156115d657600080fd5b5051919050565b80516dffffffffffffffffffffffffffff8116811461143257600080fd5b60008060006060848603121561161057600080fd5b611619846115dd565b9250611627602085016115dd565b9150604084015163ffffffff8116811461164057600080fd5b809150509250925092565b60006001600160e01b03808416806116655761166561154c565b9216919091049291505056fea264697066735822122035930d3c2a3a6e215bc3e30f96a9c180f3d86a12503bb265dbbdfc989863b75764736f6c63430008090033",
  "linkReferences": {},
  "deployedLinkReferences": {}
}