{
  "_format": "hh-sol-artifact-1",
  "contractName": "ProfitDistribution",
  "sourceName": "contracts/ProfitDistribution.sol",
  "abi": [
    {
      "inputs": [
        {
          "internalType": "contract IERC20",
          "name": "_depositToken",
          "type": "address"
        }
      ],
      "stateMutability": "nonpayable",
      "type": "constructor"
    },
    {
      "anonymous": false,
      "inputs": [
        {
          "indexed": false,
          "internalType": "contract IERC20",
          "name": "_token",
          "type": "address"
        }
      ],
      "name": "AddReward",
      "type": "event"
    },
    {
      "anonymous": false,
      "inputs": [
        {
          "indexed": true,
          "internalType": "address",
          "name": "previousOperator",
          "type": "address"
        },
        {
          "indexed": true,
          "internalType": "address",
          "name": "newOperator",
          "type": "address"
        }
      ],
      "name": "OperatorTransferred",
      "type": "event"
    },
    {
      "anonymous": false,
      "inputs": [
        {
          "indexed": true,
          "internalType": "address",
          "name": "previousOwner",
          "type": "address"
        },
        {
          "indexed": true,
          "internalType": "address",
          "name": "newOwner",
          "type": "address"
        }
      ],
      "name": "OwnershipTransferred",
      "type": "event"
    },
    {
      "anonymous": false,
      "inputs": [
        {
          "indexed": false,
          "internalType": "address",
          "name": "_user",
          "type": "address"
        }
      ],
      "name": "PendingRewardClaimed",
      "type": "event"
    },
    {
      "anonymous": false,
      "inputs": [
        {
          "indexed": false,
          "internalType": "address",
          "name": "_user",
          "type": "address"
        },
        {
          "indexed": false,
          "internalType": "uint256",
          "name": "_rewardId",
          "type": "uint256"
        },
        {
          "indexed": false,
          "internalType": "uint256",
          "name": "_amount",
          "type": "uint256"
        }
      ],
      "name": "PendingRewardIncrease",
      "type": "event"
    },
    {
      "anonymous": false,
      "inputs": [
        {
          "indexed": false,
          "internalType": "uint256",
          "name": "_rewardId",
          "type": "uint256"
        },
        {
          "indexed": false,
          "internalType": "uint256",
          "name": "_amount",
          "type": "uint256"
        }
      ],
      "name": "RewardDecrease",
      "type": "event"
    },
    {
      "anonymous": false,
      "inputs": [
        {
          "indexed": false,
          "internalType": "uint256",
          "name": "_rewardId",
          "type": "uint256"
        },
        {
          "indexed": false,
          "internalType": "uint256",
          "name": "_amount",
          "type": "uint256"
        }
      ],
      "name": "RewardIncrease",
      "type": "event"
    },
    {
      "anonymous": false,
      "inputs": [
        {
          "indexed": false,
          "internalType": "uint256",
          "name": "_amount",
          "type": "uint256"
        }
      ],
      "name": "TotalStakedDecrease",
      "type": "event"
    },
    {
      "anonymous": false,
      "inputs": [
        {
          "indexed": false,
          "internalType": "uint256",
          "name": "_amount",
          "type": "uint256"
        }
      ],
      "name": "TotalStakedIncrease",
      "type": "event"
    },
    {
      "anonymous": false,
      "inputs": [
        {
          "indexed": false,
          "internalType": "address",
          "name": "_burnAddress",
          "type": "address"
        }
      ],
      "name": "UpdateBurnAddress",
      "type": "event"
    },
    {
      "anonymous": false,
      "inputs": [
        {
          "indexed": false,
          "internalType": "uint256",
          "name": "_depositFee",
          "type": "uint256"
        }
      ],
      "name": "UpdateDepositFee",
      "type": "event"
    },
    {
      "anonymous": false,
      "inputs": [
        {
          "indexed": false,
          "internalType": "uint256",
          "name": "_Fee",
          "type": "uint256"
        }
      ],
      "name": "UpdateMaxWithdrawFee",
      "type": "event"
    },
    {
      "anonymous": false,
      "inputs": [
        {
          "indexed": false,
          "internalType": "uint256",
          "name": "_rewardId",
          "type": "uint256"
        },
        {
          "indexed": false,
          "internalType": "uint256",
          "name": "_amount",
          "type": "uint256"
        }
      ],
      "name": "UpdateRewardsPerEpoch",
      "type": "event"
    },
    {
      "anonymous": false,
      "inputs": [
        {
          "indexed": false,
          "internalType": "address",
          "name": "_user",
          "type": "address"
        },
        {
          "indexed": false,
          "internalType": "uint256",
          "name": "_amount",
          "type": "uint256"
        }
      ],
      "name": "UserStakedDecrease",
      "type": "event"
    },
    {
      "anonymous": false,
      "inputs": [
        {
          "indexed": false,
          "internalType": "address",
          "name": "_user",
          "type": "address"
        },
        {
          "indexed": false,
          "internalType": "uint256",
          "name": "_amount",
          "type": "uint256"
        }
      ],
      "name": "UserStakedIncrease",
      "type": "event"
    },
    {
      "anonymous": false,
      "inputs": [
        {
          "indexed": false,
          "internalType": "address",
          "name": "_user",
          "type": "address"
        },
        {
          "indexed": false,
          "internalType": "uint256",
          "name": "fees",
          "type": "uint256"
        }
      ],
      "name": "fees",
      "type": "event"
    },
    {
      "inputs": [],
      "name": "_renounceOperator",
      "outputs": [],
      "stateMutability": "nonpayable",
      "type": "function"
    },
    {
      "inputs": [
        {
          "internalType": "contract IERC20",
          "name": "_token",
          "type": "address"
        }
      ],
      "name": "addReward",
      "outputs": [],
      "stateMutability": "nonpayable",
      "type": "function"
    },
    {
      "inputs": [],
      "name": "burnAddress",
      "outputs": [
        {
          "internalType": "address",
          "name": "",
          "type": "address"
        }
      ],
      "stateMutability": "view",
      "type": "function"
    },
    {
      "inputs": [],
      "name": "collectRewards",
      "outputs": [],
      "stateMutability": "nonpayable",
      "type": "function"
    },
    {
      "inputs": [],
      "name": "depositFee",
      "outputs": [
        {
          "internalType": "uint256",
          "name": "",
          "type": "uint256"
        }
      ],
      "stateMutability": "view",
      "type": "function"
    },
    {
      "inputs": [],
      "name": "depositToken",
      "outputs": [
        {
          "internalType": "contract IERC20",
          "name": "",
          "type": "address"
        }
      ],
      "stateMutability": "view",
      "type": "function"
    },
    {
      "inputs": [],
      "name": "distributeRewards",
      "outputs": [],
      "stateMutability": "nonpayable",
      "type": "function"
    },
    {
      "inputs": [
        {
          "internalType": "address",
          "name": "_sender",
          "type": "address"
        },
        {
          "internalType": "uint256",
          "name": "_rewardId",
          "type": "uint256"
        }
      ],
      "name": "earned",
      "outputs": [
        {
          "internalType": "uint256",
          "name": "",
          "type": "uint256"
        }
      ],
      "stateMutability": "view",
      "type": "function"
    },
    {
      "inputs": [],
      "name": "feePeriod",
      "outputs": [
        {
          "internalType": "uint256",
          "name": "",
          "type": "uint256"
        }
      ],
      "stateMutability": "view",
      "type": "function"
    },
    {
      "inputs": [
        {
          "internalType": "uint256",
          "name": "_rewardId",
          "type": "uint256"
        },
        {
          "internalType": "address",
          "name": "_user",
          "type": "address"
        }
      ],
      "name": "getLastSnapShotIndex",
      "outputs": [
        {
          "internalType": "uint256",
          "name": "",
          "type": "uint256"
        }
      ],
      "stateMutability": "view",
      "type": "function"
    },
    {
      "inputs": [
        {
          "internalType": "uint256",
          "name": "_rewardId",
          "type": "uint256"
        },
        {
          "internalType": "address",
          "name": "_user",
          "type": "address"
        }
      ],
      "name": "getPendingRewards",
      "outputs": [
        {
          "internalType": "uint256",
          "name": "",
          "type": "uint256"
        }
      ],
      "stateMutability": "view",
      "type": "function"
    },
    {
      "inputs": [
        {
          "internalType": "address",
          "name": "_user",
          "type": "address"
        }
      ],
      "name": "getPoolShare",
      "outputs": [
        {
          "internalType": "uint256",
          "name": "",
          "type": "uint256"
        }
      ],
      "stateMutability": "view",
      "type": "function"
    },
    {
      "inputs": [],
      "name": "isOperator",
      "outputs": [
        {
          "internalType": "bool",
          "name": "",
          "type": "bool"
        }
      ],
      "stateMutability": "view",
      "type": "function"
    },
    {
      "inputs": [
        {
          "internalType": "uint256",
          "name": "_rewardId",
          "type": "uint256"
        }
      ],
      "name": "issueInterestToken",
      "outputs": [],
      "stateMutability": "nonpayable",
      "type": "function"
    },
    {
      "inputs": [],
      "name": "maxWithdrawFee",
      "outputs": [
        {
          "internalType": "uint256",
          "name": "",
          "type": "uint256"
        }
      ],
      "stateMutability": "view",
      "type": "function"
    },
    {
      "inputs": [],
      "name": "name",
      "outputs": [
        {
          "internalType": "string",
          "name": "",
          "type": "string"
        }
      ],
      "stateMutability": "view",
      "type": "function"
    },
    {
      "inputs": [],
      "name": "operator",
      "outputs": [
        {
          "internalType": "address",
          "name": "",
          "type": "address"
        }
      ],
      "stateMutability": "view",
      "type": "function"
    },
    {
      "inputs": [],
      "name": "owner",
      "outputs": [
        {
          "internalType": "address",
          "name": "",
          "type": "address"
        }
      ],
      "stateMutability": "view",
      "type": "function"
    },
    {
      "inputs": [],
      "name": "renounceOwnership",
      "outputs": [],
      "stateMutability": "nonpayable",
      "type": "function"
    },
    {
      "inputs": [
        {
          "internalType": "uint256",
          "name": "",
          "type": "uint256"
        }
      ],
      "name": "rewardInfo",
      "outputs": [
        {
          "internalType": "contract IERC20",
          "name": "token",
          "type": "address"
        },
        {
          "internalType": "uint256",
          "name": "rewardsPerEpoch",
          "type": "uint256"
        },
        {
          "internalType": "uint256",
          "name": "totalRewards",
          "type": "uint256"
        },
        {
          "internalType": "bool",
          "name": "isActive",
          "type": "bool"
        },
        {
          "internalType": "uint256",
          "name": "distributedAmount",
          "type": "uint256"
        },
        {
          "internalType": "uint256",
          "name": "LastDistributedAmountPerAlloc",
          "type": "uint256"
        }
      ],
      "stateMutability": "view",
      "type": "function"
    },
    {
      "inputs": [
        {
          "internalType": "uint256",
          "name": "_amount",
          "type": "uint256"
        }
      ],
      "name": "stakeTokens",
      "outputs": [],
      "stateMutability": "nonpayable",
      "type": "function"
    },
    {
      "inputs": [
        {
          "internalType": "uint256",
          "name": "",
          "type": "uint256"
        }
      ],
      "name": "stakers",
      "outputs": [
        {
          "internalType": "address",
          "name": "",
          "type": "address"
        }
      ],
      "stateMutability": "view",
      "type": "function"
    },
    {
      "inputs": [
        {
          "internalType": "uint256",
          "name": "_rewardId",
          "type": "uint256"
        },
        {
          "internalType": "uint256",
          "name": "_amount",
          "type": "uint256"
        }
      ],
      "name": "supplyRewards",
      "outputs": [],
      "stateMutability": "nonpayable",
      "type": "function"
    },
    {
      "inputs": [],
      "name": "totalAllocation",
      "outputs": [
        {
          "internalType": "uint256",
          "name": "",
          "type": "uint256"
        }
      ],
      "stateMutability": "view",
      "type": "function"
    },
    {
      "inputs": [],
      "name": "totalBurned",
      "outputs": [
        {
          "internalType": "uint256",
          "name": "",
          "type": "uint256"
        }
      ],
      "stateMutability": "view",
      "type": "function"
    },
    {
      "inputs": [],
      "name": "totalStaked",
      "outputs": [
        {
          "internalType": "uint256",
          "name": "",
          "type": "uint256"
        }
      ],
      "stateMutability": "view",
      "type": "function"
    },
    {
      "inputs": [
        {
          "internalType": "address",
          "name": "newOperator_",
          "type": "address"
        }
      ],
      "name": "transferOperator",
      "outputs": [],
      "stateMutability": "nonpayable",
      "type": "function"
    },
    {
      "inputs": [
        {
          "internalType": "address",
          "name": "newOwner",
          "type": "address"
        }
      ],
      "name": "transferOwnership",
      "outputs": [],
      "stateMutability": "nonpayable",
      "type": "function"
    },
    {
      "inputs": [
        {
          "internalType": "uint256",
          "name": "_amount",
          "type": "uint256"
        }
      ],
      "name": "unstakeTokens",
      "outputs": [],
      "stateMutability": "nonpayable",
      "type": "function"
    },
    {
      "inputs": [
        {
          "internalType": "address",
          "name": "_burnAddress",
          "type": "address"
        }
      ],
      "name": "updateBurnAddress",
      "outputs": [],
      "stateMutability": "nonpayable",
      "type": "function"
    },
    {
      "inputs": [
        {
          "internalType": "uint256",
          "name": "_depositFee",
          "type": "uint256"
        }
      ],
      "name": "updateDepositFee",
      "outputs": [],
      "stateMutability": "nonpayable",
      "type": "function"
    },
    {
      "inputs": [
        {
          "internalType": "uint256",
          "name": "_time",
          "type": "uint256"
        }
      ],
      "name": "updateFeeTime",
      "outputs": [],
      "stateMutability": "nonpayable",
      "type": "function"
    },
    {
      "inputs": [
        {
          "internalType": "uint256",
          "name": "_Fee",
          "type": "uint256"
        }
      ],
      "name": "updateMaxWithdrawFee",
      "outputs": [],
      "stateMutability": "nonpayable",
      "type": "function"
    },
    {
      "inputs": [
        {
          "internalType": "uint256",
          "name": "_rewardId",
          "type": "uint256"
        },
        {
          "internalType": "uint256",
          "name": "_amount",
          "type": "uint256"
        }
      ],
      "name": "updateRewardsPerEpoch",
      "outputs": [],
      "stateMutability": "nonpayable",
      "type": "function"
    },
    {
      "inputs": [
        {
          "internalType": "address",
          "name": "",
          "type": "address"
        }
      ],
      "name": "userInfo",
      "outputs": [
        {
          "internalType": "uint256",
          "name": "balance",
          "type": "uint256"
        },
        {
          "internalType": "uint256",
          "name": "allocation",
          "type": "uint256"
        },
        {
          "internalType": "bool",
          "name": "hasStaked",
          "type": "bool"
        },
        {
          "internalType": "bool",
          "name": "isStaking",
          "type": "bool"
        },
        {
          "internalType": "uint256",
          "name": "lastStakedTime",
          "type": "uint256"
        }
      ],
      "stateMutability": "view",
      "type": "function"
    },
    {
      "inputs": [
        {
          "internalType": "uint256",
          "name": "_rewardId",
          "type": "uint256"
        },
        {
          "internalType": "uint256",
          "name": "_amount",
          "type": "uint256"
        }
      ],
      "name": "withdrawRewards",
      "outputs": [],
      "stateMutability": "nonpayable",
      "type": "function"
    }
  ],
  "bytecode": "0x60c06040526012608081905271283937b334ba2234b9ba3934b13aba34b7b760711b60a09081526200003591600291906200014a565b503480156200004357600080fd5b50604051620024c0380380620024c08339810160408190526200006691620001f0565b6200007133620000fa565b600180546001600160a01b031916339081179091556040516000907f74da04524d50c64947f5dd5381ef1a4dca5cba8ed1d816243f9e48aa0b5617ed908290a3600380546001600160a01b039092166001600160a01b03199283161790556004805490911661dead1790556103e8600655611b5860085562093a8060095560006007556200025f565b600080546001600160a01b038381166001600160a01b0319831681178455604051919092169283917f8be0079c531659141344cd1fd0a4f28419497f9722a3daafe3b4186f6b6457e09190a35050565b828054620001589062000222565b90600052602060002090601f0160209004810192826200017c5760008555620001c7565b82601f106200019757805160ff1916838001178555620001c7565b82800160010185558215620001c7579182015b82811115620001c7578251825591602001919060010190620001aa565b50620001d5929150620001d9565b5090565b5b80821115620001d55760008155600101620001da565b6000602082840312156200020357600080fd5b81516001600160a01b03811681146200021b57600080fd5b9392505050565b600181811c908216806200023757607f821691505b602082108114156200025957634e487b7160e01b600052602260045260246000fd5b50919050565b612251806200026f6000396000f3fe608060405234801561001057600080fd5b506004361061021c5760003560e01c8063715018a6116101255780638da5cb5b116100ad578063cff0b4de1161007c578063cff0b4de14610524578063d89135cd14610537578063ef53b54914610540578063f2fde38b14610553578063fd5e6dd11461056657600080fd5b80638da5cb5b146104da5780639c9b2e21146104eb578063af4f1796146104fe578063c89039c51461051157600080fd5b8063792a882a116100f4578063792a882a14610433578063817b1cd21461044657806381a00f831461044f57806385dc0aaf1461049b5780638a27f103146104d257600080fd5b8063715018a6146104065780637547c7a31461040e57806376c1bcb61461042157806379203dc41461042a57600080fd5b806345deeda6116101a857806367a527931161017757806367a52793146103c75780636bd89cdd146103d05780636f4a2cd0146103e357806370bb45b3146103eb57806370d5ae05146103f357600080fd5b806345deeda61461037357806352cb51331461037c578063570ca7351461038f578063608e4dd0146103b457600080fd5b80631a706157116101ef5780631a706157146102d757806329605e771461031c5780632e5eb29d1461032f5780633e491d47146103425780634456eda21461035557600080fd5b8063017def571461022157806306fdde031461023657806310408731146102545780631959a00214610267575b600080fd5b61023461022f366004611f69565b610579565b005b61023e610630565b60405161024b9190611fae565b60405180910390f35b610234610262366004611f69565b6106be565b6102a9610275366004611ff6565b600d6020526000908152604090208054600182015460028301546003909301549192909160ff808316926101009004169085565b604080519586526020860194909452911515928401929092529015156060830152608082015260a00161024b565b61030e6102e5366004612013565b6001600160a01b03166000908152600d6020908152604080832093835260049093019052205490565b60405190815260200161024b565b61023461032a366004611ff6565b610765565b61023461033d366004612043565b6107cb565b61030e610350366004612065565b6108e7565b6001546001600160a01b03163314604051901515815260200161024b565b61030e60095481565b61023461038a366004612043565b6109c1565b6001546001600160a01b03165b6040516001600160a01b03909116815260200161024b565b6102346103c2366004611f69565b610b0c565b61030e60065481565b6102346103de366004611ff6565b610e6e565b610234610ee6565b610234610f6a565b60045461039c906001600160a01b031681565b6102346110cd565b61023461041c366004611f69565b611133565b61030e60085481565b61030e600a5481565b610234610441366004612043565b6113da565b61030e60055481565b61046261045d366004611f69565b611512565b604080516001600160a01b03909716875260208701959095529385019290925215156060840152608083015260a082015260c00161024b565b61030e6104a9366004612013565b6001600160a01b03166000908152600d6020908152604080832093835260059093019052205490565b610234611568565b6000546001600160a01b031661039c565b6102346104f9366004611ff6565b61160c565b61030e61050c366004611ff6565b61178b565b60035461039c906001600160a01b031681565b610234610532366004611f69565b6117cf565b61030e60075481565b61023461054e366004611f69565b61196b565b610234610561366004611ff6565b6119f0565b61039c610574366004611f69565b611ab8565b6001546001600160a01b031633146105ac5760405162461bcd60e51b81526004016105a390612091565b60405180910390fd5b610bb881106105f45760405162461bcd60e51b81526020600482015260146024820152730c8cae0dee6d2e840cccaca40e8dede40d0d2ced60631b60448201526064016105a3565b60068190556040518181527f721c401ac1df6aa6d76f66c40109ef145b3789fc067202fd5e3194ea0c2a4985906020015b60405180910390a150565b6002805461063d906120d5565b80601f0160208091040260200160405190810160405280929190818152602001828054610669906120d5565b80156106b65780601f1061068b576101008083540402835291602001916106b6565b820191906000526020600020905b81548152906001019060200180831161069957829003601f168201915b505050505081565b6001546001600160a01b031633146106e85760405162461bcd60e51b81526004016105a390612091565b61271081106107305760405162461bcd60e51b81526020600482015260146024820152730c8cae0dee6d2e840cccaca40e8dede40d0d2ced60631b60448201526064016105a3565b60088190556040518181527fa21e4b664efa6d5715a09f71e813a0805a04f33a13c84c6ff6193ff4fd929c6590602001610625565b6000546001600160a01b031633146107bf5760405162461bcd60e51b815260206004820181905260248201527f4f776e61626c653a2063616c6c6572206973206e6f7420746865206f776e657260448201526064016105a3565b6107c881611ae2565b50565b6001546001600160a01b031633146107f55760405162461bcd60e51b81526004016105a390612091565b6000600c838154811061080a5761080a612110565b906000526020600020906007020190508060020154821061087c5760405162461bcd60e51b815260206004820152602660248201527f616d6f756e74206d757374206265206c6f776572207468616e20746f74616c5260448201526565776172647360d01b60648201526084016105a3565b60018101829055816108995760038101805460ff191690556108a9565b60038101805460ff191660011790555b60408051848152602081018490527f0cc20b1e59c5061abd045d4d7867b2e3934bf1557e88d583f412c9082399aed2910160405180910390a1505050565b6001600160a01b0382166000908152600d60205260408120600c80548391908590811061091657610916612110565b90600052602060002090600702019050600081600501549050600082600601846004016000888152602001908152602001600020548154811061095b5761095b612110565b9060005260206000200154905083600501600087815260200190815260200160002054670de0b6b3a76400008284610993919061213c565b86600101546109a29190612153565b6109ac9190612172565b6109b69190612194565b979650505050505050565b6001546001600160a01b031633146109eb5760405162461bcd60e51b81526004016105a390612091565b6000600c8381548110610a0057610a00612110565b906000526020600020906007020190508060020154821115610a755760405162461bcd60e51b815260206004820152602860248201527f616d6f756e742073686f756c64206265206c657373207468616e20746f74616c604482015267207265776172647360c01b60648201526084016105a3565b81816002016000828254610a89919061213c565b909155505060408051848152602081018490527fb8f9e0ef8f651eda7570ff1a8ebe8a2acf07d57f7c18a9184d8e4395c2c82aa5910160405180910390a160028101541580610adf575080600101548160020154105b15610af15760038101805460ff191690555b8054610b07906001600160a01b03163384611ba6565b505050565b336000818152600d60205260408120905b600c54811015610b9a576000600c8281548110610b3c57610b3c612110565b90600052602060002090600702019050610b5684836108e7565b60008381526005850160205260409020556006810154610b789060019061213c565b600083815260048501602052604090205550610b93816121ac565b9050610b1d565b50336000818152600d6020526040902084610bf75760405162461bcd60e51b815260206004820152600f60248201527f63616e277420756e7374616b652030000000000000000000000000000000000060448201526064016105a3565b8054851115610c485760405162461bcd60e51b815260206004820152601760248201527f7374616b696e672062616c616e636520746f6f206c6f7700000000000000000060448201526064016105a3565b6000816003015442610c5a919061213c565b6009541115610cfc57670de0b6b3a7640000600854600954846003015442610c82919061213c565b600954610c8f919061213c565b610ca190670de0b6b3a7640000612153565b610cab9190612172565b610cb59190612153565b610cbf9190612172565b60408051338152602081018390529192507f263a5362d307ccd1e3185fcedd888fdbb98ea9165c7dbaff4a03c9a5c8f7563a910160405180910390a15b6000620186a0610d0c8389612153565b610d169190612172565b90506000610d24828961213c565b905087846000016000828254610d3a919061213c565b9091555050604080516001600160a01b0387168152602081018a90527fcde9510a4d55344b68331fe322c0ef3ce5826e6ed7f78bcda471678162f16fa5910160405180910390a187846001016000828254610d95919061213c565b9250508190555087600a6000828254610dae919061213c565b925050819055508760056000828254610dc7919061213c565b90915550506040518881527f9b0add0e8a1a8871ec815e0145e3576b5a1525b97b3f2d9e998746d96f1e732d9060200160405180910390a18354610e135760028401805461ff00191690555b600354610e2a906001600160a01b03168683611ba6565b8115610e64578160076000828254610e429190612194565b9091555050600454600354610e64916001600160a01b03918216911684611ba6565b5050505050505050565b6001546001600160a01b03163314610e985760405162461bcd60e51b81526004016105a390612091565b600480546001600160a01b0319166001600160a01b0383169081179091556040519081527f6a94f93d0f80241b5d6e8b868e1df78fc5f8024f40f9b79643a6d62bfdf6424290602001610625565b6001546001600160a01b03163314610f105760405162461bcd60e51b81526004016105a390612091565b600c5460005b81811015610f6657600c8181548110610f3157610f31612110565b600091825260209091206003600790920201015460ff1615610f5657610f56816117cf565b610f5f816121ac565b9050610f16565b5050565b336000818152600d60205260408120905b600c54811015610ff8576000600c8281548110610f9a57610f9a612110565b90600052602060002090600702019050610fb484836108e7565b60008381526005850160205260409020556006810154610fd69060019061213c565b600083815260048501602052604090205550610ff1816121ac565b9050610f7b565b50336000818152600d60205260408120905b600c548110156110c6576000818152600583016020526040902054156110b6576000600c828154811061103f5761103f612110565b6000918252602080832085845260058701825260408085208054959055516001600160a01b03891681526007939093020193507f7078a22f30028114785af28deb4d6f8a65157d70105963dbd2c49656283b5eda910160405180910390a181546110b3906001600160a01b03168683611ba6565b50505b6110bf816121ac565b905061100a565b5050505050565b6000546001600160a01b031633146111275760405162461bcd60e51b815260206004820181905260248201527f4f776e61626c653a2063616c6c6572206973206e6f7420746865206f776e657260448201526064016105a3565b6111316000611c36565b565b336000818152600d60205260408120905b600c548110156111c1576000600c828154811061116357611163612110565b9060005260206000209060070201905061117d84836108e7565b6000838152600585016020526040902055600681015461119f9060019061213c565b6000838152600485016020526040902055506111ba816121ac565b9050611144565b50336000818152600d602052604090208461120e5760405162461bcd60e51b815260206004820152600d60248201526c063616e2774207374616b65203609c1b60448201526064016105a3565b426003820155600654600090620186a0906112299088612153565b6112339190612172565b90506000611241828861213c565b905081600760008282546112559190612194565b909155505082548190849060009061126e908490612194565b9091555050604080516001600160a01b0386168152602081018390527f3884859c5e6bd2a0cd69d60d3c570fac48a24e131cbf00083e5aea8f43e8e85a910160405180910390a1808360010160008282546112c99190612194565b9250508190555080600a60008282546112e29190612194565b9250508190555080600560008282546112fb9190612194565b90915550506040518181527f85e846fb995598f2186038e1fff70cbf46f15c750d87b3e43a1420fb20a5ef9b9060200160405180910390a1600283015460ff1661138b57600b80546001810182556000919091527f0175b7a638427703f0dbe7bb9bbf987a2551717b34e79f33b5b1008d1fa01db90180546001600160a01b0319166001600160a01b0386161790555b60028301805461ffff19166101011790556003546113b4906001600160a01b031685308a611c86565b6004546003546113d1916001600160a01b03918216911684611ba6565b50505050505050565b6001546001600160a01b031633146114045760405162461bcd60e51b81526004016105a390612091565b6000600c838154811061141957611419612110565b90600052602060002090600702019050600082116114795760405162461bcd60e51b815260206004820152601260248201527f616d6f756e74206d757374206265203e2030000000000000000000000000000060448201526064016105a3565b8181600201600082825461148d9190612194565b909155505060408051848152602081018490527f4dffb45d6f962f8af66e8c830a9a6027cea8919fd29147db4be34dadb0fb5f1e910160405180910390a1600081600201541180156114e6575080600101548160020154115b156114fb5760038101805460ff191660011790555b8054610b07906001600160a01b0316333085611c86565b600c818154811061152257600080fd5b60009182526020909120600790910201805460018201546002830154600384015460048501546005909501546001600160a01b0390941695509193909260ff9092169186565b6000546001600160a01b031633146115c25760405162461bcd60e51b815260206004820181905260248201527f4f776e61626c653a2063616c6c6572206973206e6f7420746865206f776e657260448201526064016105a3565b6001546040516000916001600160a01b0316907f74da04524d50c64947f5dd5381ef1a4dca5cba8ed1d816243f9e48aa0b5617ed908390a3600180546001600160a01b0319169055565b6001546001600160a01b031633146116365760405162461bcd60e51b81526004016105a390612091565b600c6040518060e00160405280836001600160a01b0316815260200160008152602001600081526020016000151581526020016000815260200160008152602001600167ffffffffffffffff811115611691576116916121c7565b6040519080825280602002602001820160405280156116ba578160200160208202803683370190505b5090528154600180820184556000938452602093849020835160079093020180546001600160a01b0319166001600160a01b03909316929092178255828401519082015560408201516002820155606082015160038201805460ff19169115159190911790556080820151600482015560a0820151600582015560c082015180519293919261174f9260068501920190611f09565b50506040516001600160a01b03831681527f1714865bf5baa84e3439536a013c87cfe030b4cd69f344a5f2a4877de3d517ce9150602001610625565b6005546001600160a01b0382166000908152600d60205260408120600101549091906117bf90670de0b6b3a7640000612153565b6117c99190612172565b92915050565b6001546001600160a01b031633146117f95760405162461bcd60e51b81526004016105a390612091565b6000600c828154811061180e5761180e612110565b60009182526020909120600790910201600381015490915060ff166118625760405162461bcd60e51b815260206004820152600a6024820152694e6f207265776172647360b01b60448201526064016105a3565b806001015481600401600082825461187a9190612194565b9091555050600a5460018201546000919061189d90670de0b6b3a7640000612153565b6118a79190612172565b90508082600501546118b99190612194565b6005830181905560068301805460018101825560009182526020909120015560028201541561193f5781600101548260020160008282546118fa919061213c565b909155505060018201546040805185815260208101929092527fb8f9e0ef8f651eda7570ff1a8ebe8a2acf07d57f7c18a9184d8e4395c2c82aa5910160405180910390a15b60028201541580611957575081600101548260020154105b15610b075750600301805460ff1916905550565b6001546001600160a01b031633146119955760405162461bcd60e51b81526004016105a390612091565b62278d0081106119de5760405162461bcd60e51b81526020600482015260146024820152730c8cae0dee6d2e840cccaca40e8dede40d0d2ced60631b60448201526064016105a3565b6119ea81610e10612153565b60095550565b6000546001600160a01b03163314611a4a5760405162461bcd60e51b815260206004820181905260248201527f4f776e61626c653a2063616c6c6572206973206e6f7420746865206f776e657260448201526064016105a3565b6001600160a01b038116611aaf5760405162461bcd60e51b815260206004820152602660248201527f4f776e61626c653a206e6577206f776e657220697320746865207a65726f206160448201526564647265737360d01b60648201526084016105a3565b6107c881611c36565b600b8181548110611ac857600080fd5b6000918252602090912001546001600160a01b0316905081565b6001600160a01b038116611b4e5760405162461bcd60e51b815260206004820152602d60248201527f6f70657261746f723a207a65726f206164647265737320676976656e20666f7260448201526c103732bb9037b832b930ba37b960991b60648201526084016105a3565b6040516001600160a01b038216906000907f74da04524d50c64947f5dd5381ef1a4dca5cba8ed1d816243f9e48aa0b5617ed908290a3600180546001600160a01b0319166001600160a01b0392909216919091179055565b6040516001600160a01b038316602482015260448101829052610b0790849063a9059cbb60e01b906064015b60408051601f198184030181529190526020810180517bffffffffffffffffffffffffffffffffffffffffffffffffffffffff167fffffffff0000000000000000000000000000000000000000000000000000000090931692909217909152611cc4565b600080546001600160a01b038381166001600160a01b0319831681178455604051919092169283917f8be0079c531659141344cd1fd0a4f28419497f9722a3daafe3b4186f6b6457e09190a35050565b6040516001600160a01b0380851660248301528316604482015260648101829052611cbe9085906323b872dd60e01b90608401611bd2565b50505050565b6000611d19826040518060400160405280602081526020017f5361666545524332303a206c6f772d6c6576656c2063616c6c206661696c6564815250856001600160a01b0316611d969092919063ffffffff16565b805190915015610b075780806020019051810190611d3791906121dd565b610b075760405162461bcd60e51b815260206004820152602a60248201527f5361666545524332303a204552433230206f7065726174696f6e20646964206e6044820152691bdd081cdd58d8d9595960b21b60648201526084016105a3565b6060611da58484600085611daf565b90505b9392505050565b606082471015611e105760405162461bcd60e51b815260206004820152602660248201527f416464726573733a20696e73756666696369656e742062616c616e636520666f6044820152651c8818d85b1b60d21b60648201526084016105a3565b6001600160a01b0385163b611e675760405162461bcd60e51b815260206004820152601d60248201527f416464726573733a2063616c6c20746f206e6f6e2d636f6e747261637400000060448201526064016105a3565b600080866001600160a01b03168587604051611e8391906121ff565b60006040518083038185875af1925050503d8060008114611ec0576040519150601f19603f3d011682016040523d82523d6000602084013e611ec5565b606091505b50915091506109b682828660608315611edf575081611da8565b825115611eef5782518084602001fd5b8160405162461bcd60e51b81526004016105a39190611fae565b828054828255906000526020600020908101928215611f44579160200282015b82811115611f44578251825591602001919060010190611f29565b50611f50929150611f54565b5090565b5b80821115611f505760008155600101611f55565b600060208284031215611f7b57600080fd5b5035919050565b60005b83811015611f9d578181015183820152602001611f85565b83811115611cbe5750506000910152565b6020815260008251806020840152611fcd816040850160208701611f82565b601f01601f19169190910160400192915050565b6001600160a01b03811681146107c857600080fd5b60006020828403121561200857600080fd5b8135611da881611fe1565b6000806040838503121561202657600080fd5b82359150602083013561203881611fe1565b809150509250929050565b6000806040838503121561205657600080fd5b50508035926020909101359150565b6000806040838503121561207857600080fd5b823561208381611fe1565b946020939093013593505050565b60208082526024908201527f6f70657261746f723a2063616c6c6572206973206e6f7420746865206f70657260408201526330ba37b960e11b606082015260800190565b600181811c908216806120e957607f821691505b6020821081141561210a57634e487b7160e01b600052602260045260246000fd5b50919050565b634e487b7160e01b600052603260045260246000fd5b634e487b7160e01b600052601160045260246000fd5b60008282101561214e5761214e612126565b500390565b600081600019048311821515161561216d5761216d612126565b500290565b60008261218f57634e487b7160e01b600052601260045260246000fd5b500490565b600082198211156121a7576121a7612126565b500190565b60006000198214156121c0576121c0612126565b5060010190565b634e487b7160e01b600052604160045260246000fd5b6000602082840312156121ef57600080fd5b81518015158114611da857600080fd5b60008251612211818460208701611f82565b919091019291505056fea2646970667358221220ca881d3721b93f3c94ba06846297086d6cc066945a403418c306b2e84798fceb64736f6c63430008090033",
  "linkReferences": {},
  "deployedLinkReferences": {}
}