{
  "_format": "hh-sol-artifact-1",
  "contractName": "Boron",
  "sourceName": "contracts/Boron.sol",
  "abi": [
    {
      "inputs": [],
      "stateMutability": "nonpayable",
      "type": "constructor"
    },
    {
      "anonymous": false,
      "inputs": [
        {
          "indexed": true,
          "internalType": "address",
          "name": "owner",
          "type": "address"
        },
        {
          "indexed": true,
          "internalType": "address",
          "name": "spender",
          "type": "address"
        },
        {
          "indexed": false,
          "internalType": "uint256",
          "name": "value",
          "type": "uint256"
        }
      ],
      "name": "Approval",
      "type": "event"
    },
    {
      "anonymous": false,
      "inputs": [
        {
          "indexed": true,
          "internalType": "address",
          "name": "previousOperator",
          "type": "address"
        },
        {
          "indexed": true,
          "internalType": "address",
          "name": "newOperator",
          "type": "address"
        }
      ],
      "name": "OperatorTransferred",
      "type": "event"
    },
    {
      "anonymous": false,
      "inputs": [
        {
          "indexed": true,
          "internalType": "address",
          "name": "previousOwner",
          "type": "address"
        },
        {
          "indexed": true,
          "internalType": "address",
          "name": "newOwner",
          "type": "address"
        }
      ],
      "name": "OwnershipTransferred",
      "type": "event"
    },
    {
      "anonymous": false,
      "inputs": [
        {
          "indexed": true,
          "internalType": "address",
          "name": "from",
          "type": "address"
        },
        {
          "indexed": true,
          "internalType": "address",
          "name": "to",
          "type": "address"
        },
        {
          "indexed": false,
          "internalType": "uint256",
          "name": "value",
          "type": "uint256"
        }
      ],
      "name": "Transfer",
      "type": "event"
    },
    {
      "inputs": [],
      "name": "_renounceOperator",
      "outputs": [],
      "stateMutability": "nonpayable",
      "type": "function"
    },
    {
      "inputs": [
        {
          "internalType": "address",
          "name": "owner",
          "type": "address"
        },
        {
          "internalType": "address",
          "name": "spender",
          "type": "address"
        }
      ],
      "name": "allowance",
      "outputs": [
        {
          "internalType": "uint256",
          "name": "",
          "type": "uint256"
        }
      ],
      "stateMutability": "view",
      "type": "function"
    },
    {
      "inputs": [
        {
          "internalType": "address",
          "name": "spender",
          "type": "address"
        },
        {
          "internalType": "uint256",
          "name": "amount",
          "type": "uint256"
        }
      ],
      "name": "approve",
      "outputs": [
        {
          "internalType": "bool",
          "name": "",
          "type": "bool"
        }
      ],
      "stateMutability": "nonpayable",
      "type": "function"
    },
    {
      "inputs": [
        {
          "internalType": "address",
          "name": "account",
          "type": "address"
        }
      ],
      "name": "balanceOf",
      "outputs": [
        {
          "internalType": "uint256",
          "name": "",
          "type": "uint256"
        }
      ],
      "stateMutability": "view",
      "type": "function"
    },
    {
      "inputs": [
        {
          "internalType": "uint256",
          "name": "amount",
          "type": "uint256"
        }
      ],
      "name": "burn",
      "outputs": [],
      "stateMutability": "nonpayable",
      "type": "function"
    },
    {
      "inputs": [
        {
          "internalType": "address",
          "name": "account",
          "type": "address"
        },
        {
          "internalType": "uint256",
          "name": "amount",
          "type": "uint256"
        }
      ],
      "name": "burnFrom",
      "outputs": [],
      "stateMutability": "nonpayable",
      "type": "function"
    },
    {
      "inputs": [],
      "name": "decimals",
      "outputs": [
        {
          "internalType": "uint8",
          "name": "",
          "type": "uint8"
        }
      ],
      "stateMutability": "view",
      "type": "function"
    },
    {
      "inputs": [
        {
          "internalType": "address",
          "name": "spender",
          "type": "address"
        },
        {
          "internalType": "uint256",
          "name": "subtractedValue",
          "type": "uint256"
        }
      ],
      "name": "decreaseAllowance",
      "outputs": [
        {
          "internalType": "bool",
          "name": "",
          "type": "bool"
        }
      ],
      "stateMutability": "nonpayable",
      "type": "function"
    },
    {
      "inputs": [
        {
          "internalType": "contract IERC20",
          "name": "_token",
          "type": "address"
        },
        {
          "internalType": "uint256",
          "name": "_amount",
          "type": "uint256"
        },
        {
          "internalType": "address",
          "name": "_to",
          "type": "address"
        }
      ],
      "name": "governanceRecoverUnsupported",
      "outputs": [],
      "stateMutability": "nonpayable",
      "type": "function"
    },
    {
      "inputs": [
        {
          "internalType": "address",
          "name": "spender",
          "type": "address"
        },
        {
          "internalType": "uint256",
          "name": "addedValue",
          "type": "uint256"
        }
      ],
      "name": "increaseAllowance",
      "outputs": [
        {
          "internalType": "bool",
          "name": "",
          "type": "bool"
        }
      ],
      "stateMutability": "nonpayable",
      "type": "function"
    },
    {
      "inputs": [],
      "name": "isOperator",
      "outputs": [
        {
          "internalType": "bool",
          "name": "",
          "type": "bool"
        }
      ],
      "stateMutability": "view",
      "type": "function"
    },
    {
      "inputs": [],
      "name": "name",
      "outputs": [
        {
          "internalType": "string",
          "name": "",
          "type": "string"
        }
      ],
      "stateMutability": "view",
      "type": "function"
    },
    {
      "inputs": [],
      "name": "operator",
      "outputs": [
        {
          "internalType": "address",
          "name": "",
          "type": "address"
        }
      ],
      "stateMutability": "view",
      "type": "function"
    },
    {
      "inputs": [],
      "name": "owner",
      "outputs": [
        {
          "internalType": "address",
          "name": "",
          "type": "address"
        }
      ],
      "stateMutability": "view",
      "type": "function"
    },
    {
      "inputs": [],
      "name": "renounceOwnership",
      "outputs": [],
      "stateMutability": "nonpayable",
      "type": "function"
    },
    {
      "inputs": [],
      "name": "symbol",
      "outputs": [
        {
          "internalType": "string",
          "name": "",
          "type": "string"
        }
      ],
      "stateMutability": "view",
      "type": "function"
    },
    {
      "inputs": [],
      "name": "totalSupply",
      "outputs": [
        {
          "internalType": "uint256",
          "name": "",
          "type": "uint256"
        }
      ],
      "stateMutability": "view",
      "type": "function"
    },
    {
      "inputs": [
        {
          "internalType": "address",
          "name": "to",
          "type": "address"
        },
        {
          "internalType": "uint256",
          "name": "amount",
          "type": "uint256"
        }
      ],
      "name": "transfer",
      "outputs": [
        {
          "internalType": "bool",
          "name": "",
          "type": "bool"
        }
      ],
      "stateMutability": "nonpayable",
      "type": "function"
    },
    {
      "inputs": [
        {
          "internalType": "address",
          "name": "from",
          "type": "address"
        },
        {
          "internalType": "address",
          "name": "to",
          "type": "address"
        },
        {
          "internalType": "uint256",
          "name": "amount",
          "type": "uint256"
        }
      ],
      "name": "transferFrom",
      "outputs": [
        {
          "internalType": "bool",
          "name": "",
          "type": "bool"
        }
      ],
      "stateMutability": "nonpayable",
      "type": "function"
    },
    {
      "inputs": [
        {
          "internalType": "address",
          "name": "newOperator_",
          "type": "address"
        }
      ],
      "name": "transferOperator",
      "outputs": [],
      "stateMutability": "nonpayable",
      "type": "function"
    },
    {
      "inputs": [
        {
          "internalType": "address",
          "name": "newOwner",
          "type": "address"
        }
      ],
      "name": "transferOwnership",
      "outputs": [],
      "stateMutability": "nonpayable",
      "type": "function"
    }
  ],
  "bytecode": "0x60806040523480156200001157600080fd5b506040805180820182526005808252642127a927a760d91b60208084018281528551808701909652928552840152815191929162000052916003916200021e565b508051620000689060049060208401906200021e565b505050620000856200007f620000e060201b60201c565b620000e4565b600680546001600160a01b031916339081179091556040516000907f74da04524d50c64947f5dd5381ef1a4dca5cba8ed1d816243f9e48aa0b5617ed908290a3620000da33680270801d946c94000062000136565b62000328565b3390565b600580546001600160a01b038381166001600160a01b0319831681179093556040519116919082907f8be0079c531659141344cd1fd0a4f28419497f9722a3daafe3b4186f6b6457e090600090a35050565b6001600160a01b038216620001915760405162461bcd60e51b815260206004820152601f60248201527f45524332303a206d696e7420746f20746865207a65726f206164647265737300604482015260640160405180910390fd5b8060026000828254620001a59190620002c4565b90915550506001600160a01b03821660009081526020819052604081208054839290620001d4908490620002c4565b90915550506040518181526001600160a01b038316906000907fddf252ad1be2c89b69c2b068fc378daa952ba7f163c4a11628f55a4df523b3ef9060200160405180910390a35050565b8280546200022c90620002eb565b90600052602060002090601f0160209004810192826200025057600085556200029b565b82601f106200026b57805160ff19168380011785556200029b565b828001600101855582156200029b579182015b828111156200029b5782518255916020019190600101906200027e565b50620002a9929150620002ad565b5090565b5b80821115620002a95760008155600101620002ae565b60008219821115620002e657634e487b7160e01b600052601160045260246000fd5b500190565b600181811c908216806200030057607f821691505b602082108114156200032257634e487b7160e01b600052602260045260246000fd5b50919050565b61107380620003386000396000f3fe608060405234801561001057600080fd5b50600436106101475760003560e01c8063570ca735116100c85780638da5cb5b1161008c578063a9059cbb11610066578063a9059cbb146102bf578063dd62ed3e146102d2578063f2fde38b1461030b57600080fd5b80638da5cb5b1461029357806395d89b41146102a4578063a457c2d7146102ac57600080fd5b8063570ca7351461022257806370a0823114610247578063715018a61461027057806379cc6790146102785780638a27f1031461028b57600080fd5b8063313ce5671161010f578063313ce567146101c757806339509351146101d657806342966c68146101e95780634456eda2146101fc57806354575af41461020f57600080fd5b806306fdde031461014c578063095ea7b31461016a57806318160ddd1461018d57806323b872dd1461019f57806329605e77146101b2575b600080fd5b61015461031e565b6040516101619190610e0c565b60405180910390f35b61017d610178366004610e76565b6103b0565b6040519015158152602001610161565b6002545b604051908152602001610161565b61017d6101ad366004610ea2565b6103c8565b6101c56101c0366004610ee3565b6103ec565b005b60405160128152602001610161565b61017d6101e4366004610e76565b610457565b6101c56101f7366004610f07565b610496565b6006546001600160a01b0316331461017d565b6101c561021d366004610f20565b61049f565b6006546001600160a01b03165b6040516001600160a01b039091168152602001610161565b610191610255366004610ee3565b6001600160a01b031660009081526020819052604090205490565b6101c561058d565b6101c5610286366004610e76565b6105f3565b6101c561060c565b6005546001600160a01b031661022f565b6101546106b0565b61017d6102ba366004610e76565b6106bf565b61017d6102cd366004610e76565b610751565b6101916102e0366004610f62565b6001600160a01b03918216600090815260016020908152604080832093909416825291909152205490565b6101c5610319366004610ee3565b61075f565b60606003805461032d90610f9b565b80601f016020809104026020016040519081016040528092919081815260200182805461035990610f9b565b80156103a65780601f1061037b576101008083540402835291602001916103a6565b820191906000526020600020905b81548152906001019060200180831161038957829003601f168201915b5050505050905090565b6000336103be818585610827565b5060019392505050565b6000336103d685828561094c565b6103e18585856109d8565b506001949350505050565b6005546001600160a01b0316331461044b5760405162461bcd60e51b815260206004820181905260248201527f4f776e61626c653a2063616c6c6572206973206e6f7420746865206f776e657260448201526064015b60405180910390fd5b61045481610ba6565b50565b3360008181526001602090815260408083206001600160a01b03871684529091528120549091906103be9082908690610491908790610fec565b610827565b61045481610c6a565b6006546001600160a01b031633146105055760405162461bcd60e51b8152602060048201526024808201527f6f70657261746f723a2063616c6c6572206973206e6f7420746865206f70657260448201526330ba37b960e11b6064820152608401610442565b60405163a9059cbb60e01b81526001600160a01b0382811660048301526024820184905284169063a9059cbb90604401602060405180830381600087803b15801561054f57600080fd5b505af1158015610563573d6000803e3d6000fd5b505050506040513d601f19601f820116820180604052508101906105879190611004565b50505050565b6005546001600160a01b031633146105e75760405162461bcd60e51b815260206004820181905260248201527f4f776e61626c653a2063616c6c6572206973206e6f7420746865206f776e65726044820152606401610442565b6105f16000610c74565b565b6105fe82338361094c565b6106088282610cc6565b5050565b6005546001600160a01b031633146106665760405162461bcd60e51b815260206004820181905260248201527f4f776e61626c653a2063616c6c6572206973206e6f7420746865206f776e65726044820152606401610442565b6006546040516000916001600160a01b0316907f74da04524d50c64947f5dd5381ef1a4dca5cba8ed1d816243f9e48aa0b5617ed908390a3600680546001600160a01b0319169055565b60606004805461032d90610f9b565b3360008181526001602090815260408083206001600160a01b0387168452909152812054909190838110156107445760405162461bcd60e51b815260206004820152602560248201527f45524332303a2064656372656173656420616c6c6f77616e63652062656c6f77604482015264207a65726f60d81b6064820152608401610442565b6103e18286868403610827565b6000336103be8185856109d8565b6005546001600160a01b031633146107b95760405162461bcd60e51b815260206004820181905260248201527f4f776e61626c653a2063616c6c6572206973206e6f7420746865206f776e65726044820152606401610442565b6001600160a01b03811661081e5760405162461bcd60e51b815260206004820152602660248201527f4f776e61626c653a206e6577206f776e657220697320746865207a65726f206160448201526564647265737360d01b6064820152608401610442565b61045481610c74565b6001600160a01b0383166108895760405162461bcd60e51b8152602060048201526024808201527f45524332303a20617070726f76652066726f6d20746865207a65726f206164646044820152637265737360e01b6064820152608401610442565b6001600160a01b0382166108ea5760405162461bcd60e51b815260206004820152602260248201527f45524332303a20617070726f766520746f20746865207a65726f206164647265604482015261737360f01b6064820152608401610442565b6001600160a01b0383811660008181526001602090815260408083209487168084529482529182902085905590518481527f8c5be1e5ebec7d5bd14f71427d1e84f3dd0314c0f7b2291e5b200ac8c7c3b92591015b60405180910390a3505050565b6001600160a01b03838116600090815260016020908152604080832093861683529290522054600019811461058757818110156109cb5760405162461bcd60e51b815260206004820152601d60248201527f45524332303a20696e73756666696369656e7420616c6c6f77616e63650000006044820152606401610442565b6105878484848403610827565b6001600160a01b038316610a3c5760405162461bcd60e51b815260206004820152602560248201527f45524332303a207472616e736665722066726f6d20746865207a65726f206164604482015264647265737360d81b6064820152608401610442565b6001600160a01b038216610a9e5760405162461bcd60e51b815260206004820152602360248201527f45524332303a207472616e7366657220746f20746865207a65726f206164647260448201526265737360e81b6064820152608401610442565b6001600160a01b03831660009081526020819052604090205481811015610b165760405162461bcd60e51b815260206004820152602660248201527f45524332303a207472616e7366657220616d6f756e7420657863656564732062604482015265616c616e636560d01b6064820152608401610442565b6001600160a01b03808516600090815260208190526040808220858503905591851681529081208054849290610b4d908490610fec565b92505081905550826001600160a01b0316846001600160a01b03167fddf252ad1be2c89b69c2b068fc378daa952ba7f163c4a11628f55a4df523b3ef84604051610b9991815260200190565b60405180910390a3610587565b6001600160a01b038116610c125760405162461bcd60e51b815260206004820152602d60248201527f6f70657261746f723a207a65726f206164647265737320676976656e20666f7260448201526c103732bb9037b832b930ba37b960991b6064820152608401610442565b6040516001600160a01b038216906000907f74da04524d50c64947f5dd5381ef1a4dca5cba8ed1d816243f9e48aa0b5617ed908290a3600680546001600160a01b0319166001600160a01b0392909216919091179055565b6104543382610cc6565b600580546001600160a01b038381166001600160a01b0319831681179093556040519116919082907f8be0079c531659141344cd1fd0a4f28419497f9722a3daafe3b4186f6b6457e090600090a35050565b6001600160a01b038216610d265760405162461bcd60e51b815260206004820152602160248201527f45524332303a206275726e2066726f6d20746865207a65726f206164647265736044820152607360f81b6064820152608401610442565b6001600160a01b03821660009081526020819052604090205481811015610d9a5760405162461bcd60e51b815260206004820152602260248201527f45524332303a206275726e20616d6f756e7420657863656564732062616c616e604482015261636560f01b6064820152608401610442565b6001600160a01b0383166000908152602081905260408120838303905560028054849290610dc9908490611026565b90915550506040518281526000906001600160a01b038516907fddf252ad1be2c89b69c2b068fc378daa952ba7f163c4a11628f55a4df523b3ef9060200161093f565b600060208083528351808285015260005b81811015610e3957858101830151858201604001528201610e1d565b81811115610e4b576000604083870101525b50601f01601f1916929092016040019392505050565b6001600160a01b038116811461045457600080fd5b60008060408385031215610e8957600080fd5b8235610e9481610e61565b946020939093013593505050565b600080600060608486031215610eb757600080fd5b8335610ec281610e61565b92506020840135610ed281610e61565b929592945050506040919091013590565b600060208284031215610ef557600080fd5b8135610f0081610e61565b9392505050565b600060208284031215610f1957600080fd5b5035919050565b600080600060608486031215610f3557600080fd5b8335610f4081610e61565b9250602084013591506040840135610f5781610e61565b809150509250925092565b60008060408385031215610f7557600080fd5b8235610f8081610e61565b91506020830135610f9081610e61565b809150509250929050565b600181811c90821680610faf57607f821691505b60208210811415610fd057634e487b7160e01b600052602260045260246000fd5b50919050565b634e487b7160e01b600052601160045260246000fd5b60008219821115610fff57610fff610fd6565b500190565b60006020828403121561101657600080fd5b81518015158114610f0057600080fd5b60008282101561103857611038610fd6565b50039056fea2646970667358221220642688d15ad428fa2956f3cd96938ae44eacc002abe68dcd6d0fa9104eb77b2264736f6c63430008090033",
  "linkReferences": {},
  "deployedLinkReferences": {}
}