{
  "_format": "hh-sol-artifact-1",
  "contractName": "LystRewardPool",
  "sourceName": "contracts/pools/LystRewardPools.sol",
  "abi": [
    {
      "inputs": [
        {
          "internalType": "address",
          "name": "_lyst",
          "type": "address"
        },
        {
          "internalType": "address",
          "name": "_daoFund",
          "type": "address"
        },
        {
          "internalType": "uint256",
          "name": "_poolStartTime",
          "type": "uint256"
        }
      ],
      "stateMutability": "nonpayable",
      "type": "constructor"
    },
    {
      "anonymous": false,
      "inputs": [
        {
          "indexed": true,
          "internalType": "address",
          "name": "user",
          "type": "address"
        },
        {
          "indexed": true,
          "internalType": "uint256",
          "name": "pid",
          "type": "uint256"
        },
        {
          "indexed": false,
          "internalType": "uint256",
          "name": "amount",
          "type": "uint256"
        }
      ],
      "name": "Deposit",
      "type": "event"
    },
    {
      "anonymous": false,
      "inputs": [
        {
          "indexed": true,
          "internalType": "address",
          "name": "user",
          "type": "address"
        },
        {
          "indexed": true,
          "internalType": "uint256",
          "name": "pid",
          "type": "uint256"
        },
        {
          "indexed": false,
          "internalType": "uint256",
          "name": "amount",
          "type": "uint256"
        }
      ],
      "name": "EmergencyWithdraw",
      "type": "event"
    },
    {
      "anonymous": false,
      "inputs": [
        {
          "indexed": true,
          "internalType": "address",
          "name": "user",
          "type": "address"
        },
        {
          "indexed": false,
          "internalType": "uint256",
          "name": "amount",
          "type": "uint256"
        }
      ],
      "name": "RewardPaid",
      "type": "event"
    },
    {
      "anonymous": false,
      "inputs": [
        {
          "indexed": true,
          "internalType": "address",
          "name": "user",
          "type": "address"
        },
        {
          "indexed": true,
          "internalType": "uint256",
          "name": "pid",
          "type": "uint256"
        },
        {
          "indexed": false,
          "internalType": "uint256",
          "name": "amount",
          "type": "uint256"
        }
      ],
      "name": "Withdraw",
      "type": "event"
    },
    {
      "inputs": [],
      "name": "Lyst",
      "outputs": [
        {
          "internalType": "contract IERC20",
          "name": "",
          "type": "address"
        }
      ],
      "stateMutability": "view",
      "type": "function"
    },
    {
      "inputs": [],
      "name": "TOTAL_REWARDS",
      "outputs": [
        {
          "internalType": "uint256",
          "name": "",
          "type": "uint256"
        }
      ],
      "stateMutability": "view",
      "type": "function"
    },
    {
      "inputs": [
        {
          "internalType": "uint256",
          "name": "_allocPoint",
          "type": "uint256"
        },
        {
          "internalType": "uint256",
          "name": "_depFee",
          "type": "uint256"
        },
        {
          "internalType": "contract IERC20",
          "name": "_token",
          "type": "address"
        },
        {
          "internalType": "bool",
          "name": "_withUpdate",
          "type": "bool"
        },
        {
          "internalType": "uint256",
          "name": "_lastRewardTime",
          "type": "uint256"
        }
      ],
      "name": "add",
      "outputs": [],
      "stateMutability": "nonpayable",
      "type": "function"
    },
    {
      "inputs": [],
      "name": "daoFundAddress",
      "outputs": [
        {
          "internalType": "address",
          "name": "",
          "type": "address"
        }
      ],
      "stateMutability": "view",
      "type": "function"
    },
    {
      "inputs": [
        {
          "internalType": "uint256",
          "name": "_pid",
          "type": "uint256"
        },
        {
          "internalType": "uint256",
          "name": "_amount",
          "type": "uint256"
        }
      ],
      "name": "deposit",
      "outputs": [],
      "stateMutability": "nonpayable",
      "type": "function"
    },
    {
      "inputs": [
        {
          "internalType": "uint256",
          "name": "_pid",
          "type": "uint256"
        }
      ],
      "name": "emergencyWithdraw",
      "outputs": [],
      "stateMutability": "nonpayable",
      "type": "function"
    },
    {
      "inputs": [
        {
          "internalType": "uint256",
          "name": "_fromTime",
          "type": "uint256"
        },
        {
          "internalType": "uint256",
          "name": "_toTime",
          "type": "uint256"
        }
      ],
      "name": "getGeneratedReward",
      "outputs": [
        {
          "internalType": "uint256",
          "name": "",
          "type": "uint256"
        }
      ],
      "stateMutability": "view",
      "type": "function"
    },
    {
      "inputs": [],
      "name": "lystPerSecond",
      "outputs": [
        {
          "internalType": "uint256",
          "name": "",
          "type": "uint256"
        }
      ],
      "stateMutability": "view",
      "type": "function"
    },
    {
      "inputs": [],
      "name": "massUpdatePools",
      "outputs": [],
      "stateMutability": "nonpayable",
      "type": "function"
    },
    {
      "inputs": [],
      "name": "operator",
      "outputs": [
        {
          "internalType": "address",
          "name": "",
          "type": "address"
        }
      ],
      "stateMutability": "view",
      "type": "function"
    },
    {
      "inputs": [
        {
          "internalType": "uint256",
          "name": "_pid",
          "type": "uint256"
        },
        {
          "internalType": "address",
          "name": "_user",
          "type": "address"
        }
      ],
      "name": "pendingShare",
      "outputs": [
        {
          "internalType": "uint256",
          "name": "",
          "type": "uint256"
        }
      ],
      "stateMutability": "view",
      "type": "function"
    },
    {
      "inputs": [],
      "name": "poolEndTime",
      "outputs": [
        {
          "internalType": "uint256",
          "name": "",
          "type": "uint256"
        }
      ],
      "stateMutability": "view",
      "type": "function"
    },
    {
      "inputs": [
        {
          "internalType": "uint256",
          "name": "",
          "type": "uint256"
        }
      ],
      "name": "poolInfo",
      "outputs": [
        {
          "internalType": "contract IERC20",
          "name": "token",
          "type": "address"
        },
        {
          "internalType": "uint256",
          "name": "depFee",
          "type": "uint256"
        },
        {
          "internalType": "uint256",
          "name": "allocPoint",
          "type": "uint256"
        },
        {
          "internalType": "uint256",
          "name": "lastRewardTime",
          "type": "uint256"
        },
        {
          "internalType": "uint256",
          "name": "accLystPerShare",
          "type": "uint256"
        },
        {
          "internalType": "bool",
          "name": "isStarted",
          "type": "bool"
        }
      ],
      "stateMutability": "view",
      "type": "function"
    },
    {
      "inputs": [],
      "name": "poolStartTime",
      "outputs": [
        {
          "internalType": "uint256",
          "name": "",
          "type": "uint256"
        }
      ],
      "stateMutability": "view",
      "type": "function"
    },
    {
      "inputs": [],
      "name": "runningTime",
      "outputs": [
        {
          "internalType": "uint256",
          "name": "",
          "type": "uint256"
        }
      ],
      "stateMutability": "view",
      "type": "function"
    },
    {
      "inputs": [
        {
          "internalType": "uint256",
          "name": "_pid",
          "type": "uint256"
        },
        {
          "internalType": "uint256",
          "name": "_allocPoint",
          "type": "uint256"
        },
        {
          "internalType": "uint256",
          "name": "_depFee",
          "type": "uint256"
        }
      ],
      "name": "set",
      "outputs": [],
      "stateMutability": "nonpayable",
      "type": "function"
    },
    {
      "inputs": [
        {
          "internalType": "address",
          "name": "_operator",
          "type": "address"
        }
      ],
      "name": "setOperator",
      "outputs": [],
      "stateMutability": "nonpayable",
      "type": "function"
    },
    {
      "inputs": [],
      "name": "totalAllocPoint",
      "outputs": [
        {
          "internalType": "uint256",
          "name": "",
          "type": "uint256"
        }
      ],
      "stateMutability": "view",
      "type": "function"
    },
    {
      "inputs": [
        {
          "internalType": "uint256",
          "name": "",
          "type": "uint256"
        },
        {
          "internalType": "address",
          "name": "",
          "type": "address"
        }
      ],
      "name": "userInfo",
      "outputs": [
        {
          "internalType": "uint256",
          "name": "amount",
          "type": "uint256"
        },
        {
          "internalType": "uint256",
          "name": "rewardDebt",
          "type": "uint256"
        }
      ],
      "stateMutability": "view",
      "type": "function"
    },
    {
      "inputs": [
        {
          "internalType": "uint256",
          "name": "_pid",
          "type": "uint256"
        },
        {
          "internalType": "uint256",
          "name": "_amount",
          "type": "uint256"
        }
      ],
      "name": "withdraw",
      "outputs": [],
      "stateMutability": "nonpayable",
      "type": "function"
    }
  ],
  "bytecode": "0x60806040526000600555660443a4a62bb564600955630163f500600a553480156200002957600080fd5b5060405162001a6538038062001a658339810160408190526200004c916200014c565b6001600055428111620000a55760405162461bcd60e51b815260206004820181905260248201527f706f6f6c2063616e74206265207374617274656420696e207468652070617374604482015260640160405180910390fd5b6001600160a01b03831615620000d157600280546001600160a01b0319166001600160a01b0385161790555b6001600160a01b03821615620000fd57600880546001600160a01b0319166001600160a01b0384161790555b6006819055600a546200011190826200018d565b6007555050600180546001600160a01b0319163317905550620001b4565b80516001600160a01b03811681146200014757600080fd5b919050565b6000806000606084860312156200016257600080fd5b6200016d846200012f565b92506200017d602085016200012f565b9150604084015190509250925092565b60008219821115620001af57634e487b7160e01b600052601160045260246000fd5b500190565b6118a180620001c46000396000f3fe608060405234801561001057600080fd5b506004361061012c5760003560e01c8063630b5ba1116100ad578063ad9bd68f11610071578063ad9bd68f146102b3578063b3ab15fb146102c6578063c5b38ce9146102d9578063cf4b55cb146102e2578063e2bbb158146102f557600080fd5b8063630b5ba11461023f5780636e271dd51461024757806390c5ed6a1461025057806393f1a40b14610263578063943f013d146102aa57600080fd5b806343b0e8df116100f457806343b0e8df146101e8578063441a3e70146101fd5780635312ea8e14610210578063570ca735146102235780635f96dc111461023657600080fd5b806309cf6091146101315780631526fe271461015557806317caf6f1146101a15780631f899c26146101aa578063231f0c6a146101d5575b600080fd5b6101426905ede20f01a45980000081565b6040519081526020015b60405180910390f35b6101686101633660046115d7565b610308565b604080516001600160a01b03909716875260208701959095529385019290925260608401526080830152151560a082015260c00161014c565b61014260055481565b6002546101bd906001600160a01b031681565b6040516001600160a01b03909116815260200161014c565b6101426101e33660046115f0565b61035b565b6101fb6101f6366004611612565b610420565b005b6101fb61020b3660046115f0565b610655565b6101fb61021e3660046115d7565b61087f565b6001546101bd906001600160a01b031681565b61014260065481565b6101fb610921565b61014260075481565b6101fb61025e366004611664565b61094c565b6102956102713660046116b6565b60046020908152600092835260408084209091529082529020805460019091015482565b6040805192835260208301919091520161014c565b610142600a5481565b6008546101bd906001600160a01b031681565b6101fb6102d43660046116e6565b610ba7565b61014260095481565b6101426102f03660046116b6565b610c43565b6101fb6103033660046115f0565b610db0565b6003818154811061031857600080fd5b60009182526020909120600690910201805460018201546002830154600384015460048501546005909501546001600160a01b0390941695509193909260ff1686565b600081831061036c5750600061041a565b60075482106103d45760075483106103865750600061041a565b60065483116103b9576103b26009546103ac600654600754610fce90919063ffffffff16565b90610fe1565b905061041a565b6103b26009546103ac85600754610fce90919063ffffffff16565b60065482116103e55750600061041a565b6006548311610409576103b26009546103ac60065485610fce90919063ffffffff16565b6009546103b2906103ac8486610fce565b92915050565b6001546001600160a01b031633146104925760405162461bcd60e51b815260206004820152602a60248201527f4c797374526577617264506f6f6c3a2063616c6c6572206973206e6f74207468604482015269329037b832b930ba37b960b11b60648201526084015b60405180910390fd5b61049a610921565b82600214156104eb5760405162461bcd60e51b815260206004820152601f60248201527f43414e204e4f542041444a555354205445414d20414c4c4f434154494f4e53006044820152606401610489565b60006003848154811061050057610500611703565b90600052602060002090600602019050836000148061051f5750836001145b156105a65769028a857425466f80000083101561056d5760405162461bcd60e51b815260206004820152600c60248201526b6f7574206f662072616e676560a01b6044820152606401610489565b600581015460ff16156105a15761059d836105978360020154600554610fce90919063ffffffff16565b90610fed565b6005555b61064a565b600284111561064a5769028a857425466f80000083106106085760405162461bcd60e51b815260206004820152601c60248201527f63616e74206265206d6f7265207468656e206e6174697665206c7073000000006044820152606401610489565b60c8821061061557600080fd5b60018101829055600581015460ff161561064a57610646836105978360020154600554610fce90919063ffffffff16565b6005555b600201919091555050565b600260005414156106a85760405162461bcd60e51b815260206004820152601f60248201527f5265656e7472616e637947756172643a207265656e7472616e742063616c6c006044820152606401610489565b600260009081556003805433929190859081106106c7576106c7611703565b600091825260208083208784526004825260408085206001600160a01b038816865290925292208054600690920290920192508411156107495760405162461bcd60e51b815260206004820152601260248201527f77697468647261773a206e6f7420676f6f6400000000000000000000000000006044820152606401610489565b61075285610ff9565b600061078f8260010154610789670de0b6b3a764000061078387600401548760000154610fe190919063ffffffff16565b9061115c565b90610fce565b905080156107e5576107a18482611168565b836001600160a01b03167fe2403640ba68fed3a2f88b7557551d1993f84b99bb10ff833f0cf8db0c5e0486826040516107dc91815260200190565b60405180910390a25b841561080f5781546107f79086610fce565b8255825461080f906001600160a01b03168587611223565b6004830154825461082d91670de0b6b3a76400009161078391610fe1565b600183015560405185815286906001600160a01b038616907ff279e6a1f5e320cca91135676d9cb6e44ca8a08c0b88342bcdb1144f6511b5689060200160405180910390a35050600160005550505050565b60006003828154811061089457610894611703565b6000918252602080832085845260048252604080852033808752935284208054858255600182019590955560069093020180549094509192916108e4916001600160a01b03919091169083611223565b604051818152849033907fbb757047c2b5f3974fe26b7c10f732e7bce710b0952a71082702781e62ae05959060200160405180910390a350505050565b60035460005b818110156109485761093881610ff9565b6109418161172f565b9050610927565b5050565b6001546001600160a01b031633146109b95760405162461bcd60e51b815260206004820152602a60248201527f4c797374526577617264506f6f6c3a2063616c6c6572206973206e6f74207468604482015269329037b832b930ba37b960b11b6064820152608401610489565b6109c2836112b3565b81156109d0576109d0610921565b6006544210156109fc57806109e85750600654610a10565b6006548110156109f757506006545b610a10565b801580610a0857504281105b15610a105750425b600060065482111580610a235750428211155b6040805160c0810182526001600160a01b038781168252602082018981529282018a8152606083018781526000608085018181528715801560a0880190815260038054600181018255945296517fc2575a0e9e593c00f959f8c92f12db2869c3395a3b0502d05e2516446f71f85b6006909402938401805473ffffffffffffffffffffffffffffffffffffffff1916919097161790955595517fc2575a0e9e593c00f959f8c92f12db2869c3395a3b0502d05e2516446f71f85c82015591517fc2575a0e9e593c00f959f8c92f12db2869c3395a3b0502d05e2516446f71f85d830155517fc2575a0e9e593c00f959f8c92f12db2869c3395a3b0502d05e2516446f71f85e82015592517fc2575a0e9e593c00f959f8c92f12db2869c3395a3b0502d05e2516446f71f85f84015590517fc2575a0e9e593c00f959f8c92f12db2869c3395a3b0502d05e2516446f71f860909201805460ff191692151592909217909155909150610b9f57600554610b9b9087610fed565b6005555b505050505050565b6001546001600160a01b03163314610c145760405162461bcd60e51b815260206004820152602a60248201527f4c797374526577617264506f6f6c3a2063616c6c6572206973206e6f74207468604482015269329037b832b930ba37b960b11b6064820152608401610489565b6001805473ffffffffffffffffffffffffffffffffffffffff19166001600160a01b0392909216919091179055565b60008060038481548110610c5957610c59611703565b60009182526020808320878452600480835260408086206001600160a01b038a81168852945280862060069590950290920180820154815493516370a0823160e01b8152309381019390935290965093949291909116906370a082319060240160206040518083038186803b158015610cd157600080fd5b505afa158015610ce5573d6000803e3d6000fd5b505050506040513d601f19601f82011682018060405250810190610d09919061174a565b9050836003015442118015610d1d57508015155b15610d7a576000610d3285600301544261035b565b90506000610d53600554610783886002015485610fe190919063ffffffff16565b9050610d75610d6e8461078384670de0b6b3a7640000610fe1565b8590610fed565b935050505b610da58360010154610789670de0b6b3a7640000610783868860000154610fe190919063ffffffff16565b979650505050505050565b60026000541415610e035760405162461bcd60e51b815260206004820152601f60248201527f5265656e7472616e637947756172643a207265656e7472616e742063616c6c006044820152606401610489565b60026000908155600380543392919085908110610e2257610e22611703565b600091825260208083208784526004825260408085206001600160a01b0388168652909252922060069091029091019150610e5c85610ff9565b805415610eec576000610e948260010154610789670de0b6b3a764000061078387600401548760000154610fe190919063ffffffff16565b90508015610eea57610ea68482611168565b836001600160a01b03167fe2403640ba68fed3a2f88b7557551d1993f84b99bb10ff833f0cf8db0c5e048682604051610ee191815260200190565b60405180910390a25b505b8315610f5f578154610f09906001600160a01b0316843087611356565b6000610f28612710610783856001015488610fe190919063ffffffff16565b9050610f3f610f378683610fce565b835490610fed565b82556008548354610f5d916001600160a01b03918216911683611223565b505b60048201548154610f7d91670de0b6b3a76400009161078391610fe1565b600182015560405184815285906001600160a01b038516907f90890809c654f11d6e72a28fa60149770a0d11ec6c92319d6ceb2bb0a4ea1a159060200160405180910390a350506001600055505050565b6000610fda8284611763565b9392505050565b6000610fda828461177a565b6000610fda8284611799565b60006003828154811061100e5761100e611703565b906000526020600020906006020190508060030154421161102d575050565b80546040516370a0823160e01b81523060048201526000916001600160a01b0316906370a082319060240160206040518083038186803b15801561107057600080fd5b505afa158015611084573d6000803e3d6000fd5b505050506040513d601f19601f820116820180604052508101906110a8919061174a565b9050806110ba57504260039091015550565b600582015460ff166110ea576005808301805460ff19166001179055600283015490546110e691610fed565b6005555b6005541561115157600061110283600301544261035b565b90506000611123600554610783866002015485610fe190919063ffffffff16565b905061114961113e8461078384670de0b6b3a7640000610fe1565b600486015490610fed565b600485015550505b504260039091015550565b6000610fda82846117b1565b6002546040516370a0823160e01b81523060048201526000916001600160a01b0316906370a082319060240160206040518083038186803b1580156111ac57600080fd5b505afa1580156111c0573d6000803e3d6000fd5b505050506040513d601f19601f820116820180604052508101906111e4919061174a565b9050801561120b57808211156112105760025461120b906001600160a01b03168483611223565b505050565b60025461120b906001600160a01b031684845b6040516001600160a01b03831660248201526044810182905261120b90849063a9059cbb60e01b906064015b60408051601f198184030181529190526020810180517bffffffffffffffffffffffffffffffffffffffffffffffffffffffff167fffffffff0000000000000000000000000000000000000000000000000000000090931692909217909152611394565b60035460005b8181101561120b57826001600160a01b0316600382815481106112de576112de611703565b60009182526020909120600690910201546001600160a01b031614156113465760405162461bcd60e51b815260206004820152601e60248201527f4c797374526577617264506f6f6c3a206578697374696e6720706f6f6c3f00006044820152606401610489565b61134f8161172f565b90506112b9565b6040516001600160a01b038085166024830152831660448201526064810182905261138e9085906323b872dd60e01b9060840161124f565b50505050565b60006113e9826040518060400160405280602081526020017f5361666545524332303a206c6f772d6c6576656c2063616c6c206661696c6564815250856001600160a01b03166114669092919063ffffffff16565b80519091501561120b578080602001905181019061140791906117d3565b61120b5760405162461bcd60e51b815260206004820152602a60248201527f5361666545524332303a204552433230206f7065726174696f6e20646964206e6044820152691bdd081cdd58d8d9595960b21b6064820152608401610489565b6060611475848460008561147d565b949350505050565b6060824710156114de5760405162461bcd60e51b815260206004820152602660248201527f416464726573733a20696e73756666696369656e742062616c616e636520666f6044820152651c8818d85b1b60d21b6064820152608401610489565b6001600160a01b0385163b6115355760405162461bcd60e51b815260206004820152601d60248201527f416464726573733a2063616c6c20746f206e6f6e2d636f6e74726163740000006044820152606401610489565b600080866001600160a01b03168587604051611551919061181c565b60006040518083038185875af1925050503d806000811461158e576040519150601f19603f3d011682016040523d82523d6000602084013e611593565b606091505b5091509150610da5828286606083156115ad575081610fda565b8251156115bd5782518084602001fd5b8160405162461bcd60e51b81526004016104899190611838565b6000602082840312156115e957600080fd5b5035919050565b6000806040838503121561160357600080fd5b50508035926020909101359150565b60008060006060848603121561162757600080fd5b505081359360208301359350604090920135919050565b6001600160a01b038116811461165357600080fd5b50565b801515811461165357600080fd5b600080600080600060a0868803121561167c57600080fd5b853594506020860135935060408601356116958161163e565b925060608601356116a581611656565b949793965091946080013592915050565b600080604083850312156116c957600080fd5b8235915060208301356116db8161163e565b809150509250929050565b6000602082840312156116f857600080fd5b8135610fda8161163e565b634e487b7160e01b600052603260045260246000fd5b634e487b7160e01b600052601160045260246000fd5b600060001982141561174357611743611719565b5060010190565b60006020828403121561175c57600080fd5b5051919050565b60008282101561177557611775611719565b500390565b600081600019048311821515161561179457611794611719565b500290565b600082198211156117ac576117ac611719565b500190565b6000826117ce57634e487b7160e01b600052601260045260246000fd5b500490565b6000602082840312156117e557600080fd5b8151610fda81611656565b60005b8381101561180b5781810151838201526020016117f3565b8381111561138e5750506000910152565b6000825161182e8184602087016117f0565b9190910192915050565b60208152600082518060208401526118578160408501602087016117f0565b601f01601f1916919091016040019291505056fea2646970667358221220fa3d365913d8754f5d846c1a4725d22b0b8860b58076bec5cd8d55edf4e218ec64736f6c63430008090033",
  "linkReferences": {},
  "deployedLinkReferences": {}
}