{
  "_format": "hh-sol-artifact-1",
  "contractName": "Epoch",
  "sourceName": "contracts/utils/Epoch.sol",
  "abi": [
    {
      "inputs": [
        {
          "internalType": "uint256",
          "name": "_period",
          "type": "uint256"
        },
        {
          "internalType": "uint256",
          "name": "_startTime",
          "type": "uint256"
        },
        {
          "internalType": "uint256",
          "name": "_startEpoch",
          "type": "uint256"
        }
      ],
      "stateMutability": "nonpayable",
      "type": "constructor"
    },
    {
      "anonymous": false,
      "inputs": [
        {
          "indexed": true,
          "internalType": "address",
          "name": "previousOperator",
          "type": "address"
        },
        {
          "indexed": true,
          "internalType": "address",
          "name": "newOperator",
          "type": "address"
        }
      ],
      "name": "OperatorTransferred",
      "type": "event"
    },
    {
      "anonymous": false,
      "inputs": [
        {
          "indexed": true,
          "internalType": "address",
          "name": "previousOwner",
          "type": "address"
        },
        {
          "indexed": true,
          "internalType": "address",
          "name": "newOwner",
          "type": "address"
        }
      ],
      "name": "OwnershipTransferred",
      "type": "event"
    },
    {
      "inputs": [],
      "name": "_renounceOperator",
      "outputs": [],
      "stateMutability": "nonpayable",
      "type": "function"
    },
    {
      "inputs": [],
      "name": "getCurrentEpoch",
      "outputs": [
        {
          "internalType": "uint256",
          "name": "",
          "type": "uint256"
        }
      ],
      "stateMutability": "view",
      "type": "function"
    },
    {
      "inputs": [],
      "name": "getLastEpochTime",
      "outputs": [
        {
          "internalType": "uint256",
          "name": "",
          "type": "uint256"
        }
      ],
      "stateMutability": "view",
      "type": "function"
    },
    {
      "inputs": [],
      "name": "getPeriod",
      "outputs": [
        {
          "internalType": "uint256",
          "name": "",
          "type": "uint256"
        }
      ],
      "stateMutability": "view",
      "type": "function"
    },
    {
      "inputs": [],
      "name": "getStartTime",
      "outputs": [
        {
          "internalType": "uint256",
          "name": "",
          "type": "uint256"
        }
      ],
      "stateMutability": "view",
      "type": "function"
    },
    {
      "inputs": [],
      "name": "isOperator",
      "outputs": [
        {
          "internalType": "bool",
          "name": "",
          "type": "bool"
        }
      ],
      "stateMutability": "view",
      "type": "function"
    },
    {
      "inputs": [],
      "name": "nextEpochPoint",
      "outputs": [
        {
          "internalType": "uint256",
          "name": "",
          "type": "uint256"
        }
      ],
      "stateMutability": "view",
      "type": "function"
    },
    {
      "inputs": [],
      "name": "operator",
      "outputs": [
        {
          "internalType": "address",
          "name": "",
          "type": "address"
        }
      ],
      "stateMutability": "view",
      "type": "function"
    },
    {
      "inputs": [],
      "name": "owner",
      "outputs": [
        {
          "internalType": "address",
          "name": "",
          "type": "address"
        }
      ],
      "stateMutability": "view",
      "type": "function"
    },
    {
      "inputs": [],
      "name": "renounceOwnership",
      "outputs": [],
      "stateMutability": "nonpayable",
      "type": "function"
    },
    {
      "inputs": [
        {
          "internalType": "uint256",
          "name": "_epoch",
          "type": "uint256"
        }
      ],
      "name": "setEpoch",
      "outputs": [],
      "stateMutability": "nonpayable",
      "type": "function"
    },
    {
      "inputs": [
        {
          "internalType": "uint256",
          "name": "_period",
          "type": "uint256"
        }
      ],
      "name": "setPeriod",
      "outputs": [],
      "stateMutability": "nonpayable",
      "type": "function"
    },
    {
      "inputs": [
        {
          "internalType": "address",
          "name": "newOperator_",
          "type": "address"
        }
      ],
      "name": "transferOperator",
      "outputs": [],
      "stateMutability": "nonpayable",
      "type": "function"
    },
    {
      "inputs": [
        {
          "internalType": "address",
          "name": "newOwner",
          "type": "address"
        }
      ],
      "name": "transferOwnership",
      "outputs": [],
      "stateMutability": "nonpayable",
      "type": "function"
    }
  ],
  "bytecode": "0x608060405234801561001057600080fd5b506040516108c73803806108c783398101604081905261002f9161010b565b610038336100a8565b600180546001600160a01b031916339081179091556040516000907f74da04524d50c64947f5dd5381ef1a4dca5cba8ed1d816243f9e48aa0b5617ed908290a360028390556003829055600581905561009c82846100f8602090811b61056a17901c565b6004555061015e915050565b600080546001600160a01b038381166001600160a01b0319831681178455604051919092169283917f8be0079c531659141344cd1fd0a4f28419497f9722a3daafe3b4186f6b6457e09190a35050565b60006101048284610139565b9392505050565b60008060006060848603121561012057600080fd5b8351925060208401519150604084015190509250925092565b60008282101561015957634e487b7160e01b600052601160045260246000fd5b500390565b61075a8061016d6000396000f3fe608060405234801561001057600080fd5b50600436106100ea5760003560e01c80638a27f1031161008c578063ba52245811610066578063ba522458146101ad578063c5967c26146101b5578063c828371e146101bd578063f2fde38b146101c557600080fd5b80638a27f1031461018c5780638da5cb5b14610194578063b97dd9e2146101a557600080fd5b806329605e77116100c857806329605e771461012e5780634456eda214610141578063570ca7351461015f578063715018a61461018457600080fd5b80630ceb2cef146100ef5780630f3a9f65146101045780631ed2419514610117575b600080fd5b6101026100fd36600461069d565b6101d8565b005b61010261011236600461069d565b610248565b6002545b6040519081526020015b60405180910390f35b61010261013c3660046106b6565b610314565b6001546001600160a01b031633146040519015158152602001610125565b6001546001600160a01b03165b6040516001600160a01b039091168152602001610125565b61010261037a565b6101026103e0565b6000546001600160a01b031661016c565b60055461011b565b60045461011b565b61011b610484565b60035461011b565b6101026101d33660046106b6565b6104a2565b6001546001600160a01b031633146102435760405162461bcd60e51b8152602060048201526024808201527f6f70657261746f723a2063616c6c6572206973206e6f7420746865206f70657260448201526330ba37b960e11b60648201526084015b60405180910390fd5b600555565b6001546001600160a01b031633146102ae5760405162461bcd60e51b8152602060048201526024808201527f6f70657261746f723a2063616c6c6572206973206e6f7420746865206f70657260448201526330ba37b960e11b606482015260840161023a565b610e1081101580156102c357506202a3008111155b61030f5760405162461bcd60e51b815260206004820152601560248201527f5f706572696f643a206f7574206f662072616e67650000000000000000000000604482015260640161023a565b600255565b6000546001600160a01b0316331461036e5760405162461bcd60e51b815260206004820181905260248201527f4f776e61626c653a2063616c6c6572206973206e6f7420746865206f776e6572604482015260640161023a565b6103778161057d565b50565b6000546001600160a01b031633146103d45760405162461bcd60e51b815260206004820181905260248201527f4f776e61626c653a2063616c6c6572206973206e6f7420746865206f776e6572604482015260640161023a565b6103de6000610641565b565b6000546001600160a01b0316331461043a5760405162461bcd60e51b815260206004820181905260248201527f4f776e61626c653a2063616c6c6572206973206e6f7420746865206f776e6572604482015260640161023a565b6001546040516000916001600160a01b0316907f74da04524d50c64947f5dd5381ef1a4dca5cba8ed1d816243f9e48aa0b5617ed908390a3600180546001600160a01b0319169055565b600061049d60025460045461069190919063ffffffff16565b905090565b6000546001600160a01b031633146104fc5760405162461bcd60e51b815260206004820181905260248201527f4f776e61626c653a2063616c6c6572206973206e6f7420746865206f776e6572604482015260640161023a565b6001600160a01b0381166105615760405162461bcd60e51b815260206004820152602660248201527f4f776e61626c653a206e6577206f776e657220697320746865207a65726f206160448201526564647265737360d01b606482015260840161023a565b61037781610641565b600061057682846106f5565b9392505050565b6001600160a01b0381166105e95760405162461bcd60e51b815260206004820152602d60248201527f6f70657261746f723a207a65726f206164647265737320676976656e20666f7260448201526c103732bb9037b832b930ba37b960991b606482015260840161023a565b6040516001600160a01b038216906000907f74da04524d50c64947f5dd5381ef1a4dca5cba8ed1d816243f9e48aa0b5617ed908290a3600180546001600160a01b0319166001600160a01b0392909216919091179055565b600080546001600160a01b038381166001600160a01b0319831681178455604051919092169283917f8be0079c531659141344cd1fd0a4f28419497f9722a3daafe3b4186f6b6457e09190a35050565b6000610576828461070c565b6000602082840312156106af57600080fd5b5035919050565b6000602082840312156106c857600080fd5b81356001600160a01b038116811461057657600080fd5b634e487b7160e01b600052601160045260246000fd5b600082821015610707576107076106df565b500390565b6000821982111561071f5761071f6106df565b50019056fea26469706673582212205636a7eaf361267a4c8b4cff5b562698a80d3fb8f13e00af75d909460e5e6ed064736f6c63430008090033",
  "linkReferences": {},
  "deployedLinkReferences": {}
}