{
  "_format": "hh-sol-artifact-1",
  "contractName": "LystWrapper",
  "sourceName": "contracts/Reactor.sol",
  "abi": [
    {
      "inputs": [
        {
          "internalType": "address",
          "name": "account",
          "type": "address"
        }
      ],
      "name": "balanceOf",
      "outputs": [
        {
          "internalType": "uint256",
          "name": "",
          "type": "uint256"
        }
      ],
      "stateMutability": "view",
      "type": "function"
    },
    {
      "inputs": [],
      "name": "lyst",
      "outputs": [
        {
          "internalType": "contract IERC20",
          "name": "",
          "type": "address"
        }
      ],
      "stateMutability": "view",
      "type": "function"
    },
    {
      "inputs": [
        {
          "internalType": "uint256",
          "name": "amount",
          "type": "uint256"
        }
      ],
      "name": "stake",
      "outputs": [],
      "stateMutability": "nonpayable",
      "type": "function"
    },
    {
      "inputs": [],
      "name": "totalSupply",
      "outputs": [
        {
          "internalType": "uint256",
          "name": "",
          "type": "uint256"
        }
      ],
      "stateMutability": "view",
      "type": "function"
    },
    {
      "inputs": [
        {
          "internalType": "uint256",
          "name": "amount",
          "type": "uint256"
        }
      ],
      "name": "withdraw",
      "outputs": [],
      "stateMutability": "nonpayable",
      "type": "function"
    }
  ],
  "bytecode": "0x608060405234801561001057600080fd5b506106bb806100206000396000f3fe608060405234801561001057600080fd5b50600436106100575760003560e01c806318160ddd1461005c5780632b25592b146100735780632e1a7d4d1461009e57806370a08231146100b3578063a694fc3a146100dc575b600080fd5b6001545b6040519081526020015b60405180910390f35b600054610086906001600160a01b031681565b6040516001600160a01b03909116815260200161006a565b6100b16100ac366004610561565b6100ef565b005b6100606100c136600461057a565b6001600160a01b031660009081526002602052604090205490565b6100b16100ea366004610561565b6101c3565b336000908152600260205260409020548181101561017a5760405162461bcd60e51b815260206004820152603460248201527f52656163746f723a20776974686472617720726571756573742067726561746560448201527f72207468616e207374616b656420616d6f756e7400000000000000000000000060648201526084015b60405180910390fd5b600154610187908361021c565b600155610194818361021c565b3360008181526002602052604081209290925590546101bf916001600160a01b03909116908461022f565b5050565b6001546101d090826102c4565b600155336000908152600260205260409020546101ed90826102c4565b336000818152600260205260408120929092559054610219916001600160a01b039091169030846102d0565b50565b600061022882846105b9565b9392505050565b6040516001600160a01b0383166024820152604481018290526102bf90849063a9059cbb60e01b906064015b60408051601f198184030181529190526020810180517bffffffffffffffffffffffffffffffffffffffffffffffffffffffff167fffffffff000000000000000000000000000000000000000000000000000000009093169290921790915261030e565b505050565b600061022882846105d0565b6040516001600160a01b03808516602483015283166044820152606481018290526103089085906323b872dd60e01b9060840161025b565b50505050565b6000610363826040518060400160405280602081526020017f5361666545524332303a206c6f772d6c6576656c2063616c6c206661696c6564815250856001600160a01b03166103e09092919063ffffffff16565b8051909150156102bf578080602001905181019061038191906105e8565b6102bf5760405162461bcd60e51b815260206004820152602a60248201527f5361666545524332303a204552433230206f7065726174696f6e20646964206e6044820152691bdd081cdd58d8d9595960b21b6064820152608401610171565b60606103ef84846000856103f7565b949350505050565b6060824710156104585760405162461bcd60e51b815260206004820152602660248201527f416464726573733a20696e73756666696369656e742062616c616e636520666f6044820152651c8818d85b1b60d21b6064820152608401610171565b6001600160a01b0385163b6104af5760405162461bcd60e51b815260206004820152601d60248201527f416464726573733a2063616c6c20746f206e6f6e2d636f6e74726163740000006044820152606401610171565b600080866001600160a01b031685876040516104cb9190610636565b60006040518083038185875af1925050503d8060008114610508576040519150601f19603f3d011682016040523d82523d6000602084013e61050d565b606091505b509150915061051d828286610528565b979650505050505050565b60608315610537575081610228565b8251156105475782518084602001fd5b8160405162461bcd60e51b81526004016101719190610652565b60006020828403121561057357600080fd5b5035919050565b60006020828403121561058c57600080fd5b81356001600160a01b038116811461022857600080fd5b634e487b7160e01b600052601160045260246000fd5b6000828210156105cb576105cb6105a3565b500390565b600082198211156105e3576105e36105a3565b500190565b6000602082840312156105fa57600080fd5b8151801515811461022857600080fd5b60005b8381101561062557818101518382015260200161060d565b838111156103085750506000910152565b6000825161064881846020870161060a565b9190910192915050565b602081526000825180602084015261067181604085016020870161060a565b601f01601f1916919091016040019291505056fea26469706673582212200aabf4162267f7029eb919e202e63d853f778334f71888c1893f302794b81d6364736f6c63430008090033",
  "linkReferences": {},
  "deployedLinkReferences": {}
}