{
  "_format": "hh-sol-artifact-1",
  "contractName": "Reactor",
  "sourceName": "contracts/Reactor.sol",
  "abi": [
    {
      "anonymous": false,
      "inputs": [
        {
          "indexed": true,
          "internalType": "address",
          "name": "executor",
          "type": "address"
        },
        {
          "indexed": false,
          "internalType": "uint256",
          "name": "at",
          "type": "uint256"
        }
      ],
      "name": "Initialized",
      "type": "event"
    },
    {
      "anonymous": false,
      "inputs": [
        {
          "indexed": true,
          "internalType": "address",
          "name": "previousOperator",
          "type": "address"
        },
        {
          "indexed": true,
          "internalType": "address",
          "name": "newOperator",
          "type": "address"
        }
      ],
      "name": "OperatorTransferred",
      "type": "event"
    },
    {
      "anonymous": false,
      "inputs": [
        {
          "indexed": true,
          "internalType": "address",
          "name": "previousOwner",
          "type": "address"
        },
        {
          "indexed": true,
          "internalType": "address",
          "name": "newOwner",
          "type": "address"
        }
      ],
      "name": "OwnershipTransferred",
      "type": "event"
    },
    {
      "anonymous": false,
      "inputs": [
        {
          "indexed": true,
          "internalType": "address",
          "name": "user",
          "type": "address"
        },
        {
          "indexed": false,
          "internalType": "uint256",
          "name": "reward",
          "type": "uint256"
        }
      ],
      "name": "RewardAdded",
      "type": "event"
    },
    {
      "anonymous": false,
      "inputs": [
        {
          "indexed": true,
          "internalType": "address",
          "name": "user",
          "type": "address"
        },
        {
          "indexed": false,
          "internalType": "uint256",
          "name": "reward",
          "type": "uint256"
        }
      ],
      "name": "RewardPaid",
      "type": "event"
    },
    {
      "anonymous": false,
      "inputs": [
        {
          "indexed": true,
          "internalType": "address",
          "name": "user",
          "type": "address"
        },
        {
          "indexed": false,
          "internalType": "uint256",
          "name": "amount",
          "type": "uint256"
        }
      ],
      "name": "Staked",
      "type": "event"
    },
    {
      "anonymous": false,
      "inputs": [
        {
          "indexed": true,
          "internalType": "address",
          "name": "user",
          "type": "address"
        },
        {
          "indexed": false,
          "internalType": "uint256",
          "name": "amount",
          "type": "uint256"
        }
      ],
      "name": "Withdrawn",
      "type": "event"
    },
    {
      "inputs": [],
      "name": "_renounceOperator",
      "outputs": [],
      "stateMutability": "nonpayable",
      "type": "function"
    },
    {
      "inputs": [
        {
          "internalType": "uint256",
          "name": "amount",
          "type": "uint256"
        }
      ],
      "name": "allocateSeigniorage",
      "outputs": [],
      "stateMutability": "nonpayable",
      "type": "function"
    },
    {
      "inputs": [
        {
          "internalType": "address",
          "name": "account",
          "type": "address"
        }
      ],
      "name": "balanceOf",
      "outputs": [
        {
          "internalType": "uint256",
          "name": "",
          "type": "uint256"
        }
      ],
      "stateMutability": "view",
      "type": "function"
    },
    {
      "inputs": [
        {
          "internalType": "address",
          "name": "andras",
          "type": "address"
        }
      ],
      "name": "canClaimReward",
      "outputs": [
        {
          "internalType": "bool",
          "name": "",
          "type": "bool"
        }
      ],
      "stateMutability": "view",
      "type": "function"
    },
    {
      "inputs": [
        {
          "internalType": "address",
          "name": "andras",
          "type": "address"
        }
      ],
      "name": "canWithdraw",
      "outputs": [
        {
          "internalType": "bool",
          "name": "",
          "type": "bool"
        }
      ],
      "stateMutability": "view",
      "type": "function"
    },
    {
      "inputs": [],
      "name": "cata",
      "outputs": [
        {
          "internalType": "contract IERC20",
          "name": "",
          "type": "address"
        }
      ],
      "stateMutability": "view",
      "type": "function"
    },
    {
      "inputs": [],
      "name": "claimReward",
      "outputs": [],
      "stateMutability": "nonpayable",
      "type": "function"
    },
    {
      "inputs": [
        {
          "internalType": "address",
          "name": "andras",
          "type": "address"
        }
      ],
      "name": "earned",
      "outputs": [
        {
          "internalType": "uint256",
          "name": "",
          "type": "uint256"
        }
      ],
      "stateMutability": "view",
      "type": "function"
    },
    {
      "inputs": [],
      "name": "epoch",
      "outputs": [
        {
          "internalType": "uint256",
          "name": "",
          "type": "uint256"
        }
      ],
      "stateMutability": "view",
      "type": "function"
    },
    {
      "inputs": [],
      "name": "exit",
      "outputs": [],
      "stateMutability": "nonpayable",
      "type": "function"
    },
    {
      "inputs": [
        {
          "internalType": "address",
          "name": "andras",
          "type": "address"
        }
      ],
      "name": "getLastSnapshotIndexOf",
      "outputs": [
        {
          "internalType": "uint256",
          "name": "",
          "type": "uint256"
        }
      ],
      "stateMutability": "view",
      "type": "function"
    },
    {
      "inputs": [],
      "name": "getcataPrice",
      "outputs": [
        {
          "internalType": "uint256",
          "name": "",
          "type": "uint256"
        }
      ],
      "stateMutability": "view",
      "type": "function"
    },
    {
      "inputs": [
        {
          "internalType": "contract IERC20",
          "name": "_token",
          "type": "address"
        },
        {
          "internalType": "uint256",
          "name": "_amount",
          "type": "uint256"
        },
        {
          "internalType": "address",
          "name": "_to",
          "type": "address"
        }
      ],
      "name": "governanceRecoverUnsupported",
      "outputs": [],
      "stateMutability": "nonpayable",
      "type": "function"
    },
    {
      "inputs": [
        {
          "internalType": "contract IERC20",
          "name": "_cata",
          "type": "address"
        },
        {
          "internalType": "contract IERC20",
          "name": "_lyst",
          "type": "address"
        },
        {
          "internalType": "contract ITreasury",
          "name": "_treasury",
          "type": "address"
        }
      ],
      "name": "initialize",
      "outputs": [],
      "stateMutability": "nonpayable",
      "type": "function"
    },
    {
      "inputs": [],
      "name": "initialized",
      "outputs": [
        {
          "internalType": "bool",
          "name": "",
          "type": "bool"
        }
      ],
      "stateMutability": "view",
      "type": "function"
    },
    {
      "inputs": [],
      "name": "isOperator",
      "outputs": [
        {
          "internalType": "bool",
          "name": "",
          "type": "bool"
        }
      ],
      "stateMutability": "view",
      "type": "function"
    },
    {
      "inputs": [],
      "name": "latestSnapshotIndex",
      "outputs": [
        {
          "internalType": "uint256",
          "name": "",
          "type": "uint256"
        }
      ],
      "stateMutability": "view",
      "type": "function"
    },
    {
      "inputs": [],
      "name": "lyst",
      "outputs": [
        {
          "internalType": "contract IERC20",
          "name": "",
          "type": "address"
        }
      ],
      "stateMutability": "view",
      "type": "function"
    },
    {
      "inputs": [],
      "name": "nextEpochPoint",
      "outputs": [
        {
          "internalType": "uint256",
          "name": "",
          "type": "uint256"
        }
      ],
      "stateMutability": "view",
      "type": "function"
    },
    {
      "inputs": [],
      "name": "operator",
      "outputs": [
        {
          "internalType": "address",
          "name": "",
          "type": "address"
        }
      ],
      "stateMutability": "view",
      "type": "function"
    },
    {
      "inputs": [],
      "name": "owner",
      "outputs": [
        {
          "internalType": "address",
          "name": "",
          "type": "address"
        }
      ],
      "stateMutability": "view",
      "type": "function"
    },
    {
      "inputs": [
        {
          "internalType": "uint256",
          "name": "",
          "type": "uint256"
        }
      ],
      "name": "reactorHistory",
      "outputs": [
        {
          "internalType": "uint256",
          "name": "time",
          "type": "uint256"
        },
        {
          "internalType": "uint256",
          "name": "rewardReceived",
          "type": "uint256"
        },
        {
          "internalType": "uint256",
          "name": "rewardPerShare",
          "type": "uint256"
        }
      ],
      "stateMutability": "view",
      "type": "function"
    },
    {
      "inputs": [],
      "name": "renounceOperator",
      "outputs": [],
      "stateMutability": "nonpayable",
      "type": "function"
    },
    {
      "inputs": [],
      "name": "renounceOwnership",
      "outputs": [],
      "stateMutability": "nonpayable",
      "type": "function"
    },
    {
      "inputs": [],
      "name": "rewardLockupEpochs",
      "outputs": [
        {
          "internalType": "uint256",
          "name": "",
          "type": "uint256"
        }
      ],
      "stateMutability": "view",
      "type": "function"
    },
    {
      "inputs": [],
      "name": "rewardPerShare",
      "outputs": [
        {
          "internalType": "uint256",
          "name": "",
          "type": "uint256"
        }
      ],
      "stateMutability": "view",
      "type": "function"
    },
    {
      "inputs": [
        {
          "internalType": "uint256",
          "name": "_withdrawLockupEpochs",
          "type": "uint256"
        },
        {
          "internalType": "uint256",
          "name": "_rewardLockupEpochs",
          "type": "uint256"
        }
      ],
      "name": "setLockUp",
      "outputs": [],
      "stateMutability": "nonpayable",
      "type": "function"
    },
    {
      "inputs": [
        {
          "internalType": "address",
          "name": "_operator",
          "type": "address"
        }
      ],
      "name": "setOperator",
      "outputs": [],
      "stateMutability": "nonpayable",
      "type": "function"
    },
    {
      "inputs": [
        {
          "internalType": "uint256",
          "name": "amount",
          "type": "uint256"
        }
      ],
      "name": "stake",
      "outputs": [],
      "stateMutability": "nonpayable",
      "type": "function"
    },
    {
      "inputs": [
        {
          "internalType": "address",
          "name": "",
          "type": "address"
        }
      ],
      "name": "sulfide",
      "outputs": [
        {
          "internalType": "uint256",
          "name": "lastSnapshotIndex",
          "type": "uint256"
        },
        {
          "internalType": "uint256",
          "name": "rewardEarned",
          "type": "uint256"
        },
        {
          "internalType": "uint256",
          "name": "epochTimerStart",
          "type": "uint256"
        }
      ],
      "stateMutability": "view",
      "type": "function"
    },
    {
      "inputs": [],
      "name": "totalSupply",
      "outputs": [
        {
          "internalType": "uint256",
          "name": "",
          "type": "uint256"
        }
      ],
      "stateMutability": "view",
      "type": "function"
    },
    {
      "inputs": [
        {
          "internalType": "address",
          "name": "newOperator_",
          "type": "address"
        }
      ],
      "name": "transferOperator",
      "outputs": [],
      "stateMutability": "nonpayable",
      "type": "function"
    },
    {
      "inputs": [
        {
          "internalType": "address",
          "name": "newOwner",
          "type": "address"
        }
      ],
      "name": "transferOwnership",
      "outputs": [],
      "stateMutability": "nonpayable",
      "type": "function"
    },
    {
      "inputs": [],
      "name": "treasury",
      "outputs": [
        {
          "internalType": "contract ITreasury",
          "name": "",
          "type": "address"
        }
      ],
      "stateMutability": "view",
      "type": "function"
    },
    {
      "inputs": [
        {
          "internalType": "uint256",
          "name": "amount",
          "type": "uint256"
        }
      ],
      "name": "withdraw",
      "outputs": [],
      "stateMutability": "nonpayable",
      "type": "function"
    },
    {
      "inputs": [],
      "name": "withdrawLockupEpochs",
      "outputs": [
        {
          "internalType": "uint256",
          "name": "",
          "type": "uint256"
        }
      ],
      "stateMutability": "view",
      "type": "function"
    }
  ],
  "bytecode": "0x60806040526005805460ff60a01b1916905534801561001d57600080fd5b506100273361006c565b600580546001600160a01b031916339081179091556040516000907f74da04524d50c64947f5dd5381ef1a4dca5cba8ed1d816243f9e48aa0b5617ed908290a36100be565b600480546001600160a01b038381166001600160a01b0319831681179093556040519116919082907f8be0079c531659141344cd1fd0a4f28419497f9722a3daafe3b4186f6b6457e090600090a35050565b612239806100cd6000396000f3fe608060405234801561001057600080fd5b506004361061021b5760003560e01c806361d027b311610125578063b3ab15fb116100ad578063c0c53b8b1161007c578063c0c53b8b14610493578063c5967c26146104a6578063e9fad8ee146104ae578063efb4417f146104b6578063f2fde38b146104c957600080fd5b8063b3ab15fb1461045d578063b49ab9ae14610470578063b88a802f14610483578063bb19a03e1461048b57600080fd5b80638a27f103116100f45780638a27f103146104165780638da5cb5b1461041e578063900cf0cf1461042f57806397ffe1d714610437578063a694fc3a1461044a57600080fd5b806361d027b3146103a957806370a08231146103bc578063714b4658146103e5578063715018a61461040e57600080fd5b80632ab6f8db116101a85780633f9e3f04116101775780633f9e3f04146103625780634456eda21461036a578063446a2ec81461037d57806354575af414610385578063570ca7351461039857600080fd5b80632ab6f8db146103095780632b25592b146103115780632e1a7d4d1461033c5780632ffaaa091461034f57600080fd5b8063158ef93e116101ef578063158ef93e146102bc57806318160ddd146102d057806319262d30146102d85780631e85cd65146102eb57806329605e77146102f457600080fd5b80628cc26214610220578063022ba18d14610246578063046335d01461024f57806314406bf414610272575b600080fd5b61023361022e366004611f4d565b6104dc565b6040519081526020015b60405180910390f35b610233600b5481565b61026261025d366004611f4d565b61056d565b604051901515815260200161023d565b6102a1610280366004611f4d565b60086020526000908152604090208054600182015460029092015490919083565b6040805193845260208401929092529082015260600161023d565b60055461026290600160a01b900460ff1681565b600154610233565b6102626102e6366004611f4d565b61061a565b610233600a5481565b610307610302366004611f4d565b6106bf565b005b61030761072a565b600054610324906001600160a01b031681565b6040516001600160a01b03909116815260200161023d565b61030761034a366004611f6a565b61075e565b61030761035d366004611f83565b610a9f565b610233610b56565b6005546001600160a01b03163314610262565b610233610b6c565b610307610393366004611fa5565b610b7f565b6005546001600160a01b0316610324565b600754610324906001600160a01b031681565b6102336103ca366004611f4d565b6001600160a01b031660009081526002602052604090205490565b6102336103f3366004611f4d565b6001600160a01b031660009081526008602052604090205490565b610307610c50565b610307610cb4565b6004546001600160a01b0316610324565b610233610d58565b610307610445366004611f6a565b610dd5565b610307610458366004611f6a565b6110b4565b61030761046b366004611f4d565b6112e3565b6102a161047e366004611f6a565b611316565b610307611349565b6102336115df565b6103076104a1366004611fe7565b611624565b6102336117e7565b61030761182c565b600654610324906001600160a01b031681565b6103076104d7366004611f4d565b611845565b6000806104e761190d565b60400151905060006104f884611987565b6040908101516001600160a01b0386166000908152600860205291909120600101549091506105659061055f670de0b6b3a764000061055961053a8787611a1a565b6001600160a01b038a1660009081526002602052604090205490611a2d565b90611a39565b90611a45565b949350505050565b6007546040805163900cf0cf60e01b815290516000926001600160a01b03169163900cf0cf916004808301926020929190829003018186803b1580156105b257600080fd5b505afa1580156105c6573d6000803e3d6000fd5b505050506040513d601f19601f820116820180604052508101906105ea9190612027565b600b546001600160a01b03841660009081526008602052604090206002015461061291611a45565b111592915050565b6007546040805163900cf0cf60e01b815290516000926001600160a01b03169163900cf0cf916004808301926020929190829003018186803b15801561065f57600080fd5b505afa158015610673573d6000803e3d6000fd5b505050506040513d601f19601f820116820180604052508101906106979190612027565b600a546001600160a01b03841660009081526008602052604090206002015461061291611a45565b6004546001600160a01b0316331461071e5760405162461bcd60e51b815260206004820181905260248201527f4f776e61626c653a2063616c6c6572206973206e6f7420746865206f776e657260448201526064015b60405180910390fd5b61072781611a51565b50565b6005546001600160a01b031633146107545760405162461bcd60e51b815260040161071590612040565b61075c610cb4565b565b43600090815260036020908152604080832032845290915290205460ff16156107995760405162461bcd60e51b815260040161071590612084565b43600090815260036020908152604080832033845290915290205460ff16156107d45760405162461bcd60e51b815260040161071590612084565b336000908152600260205260408120541161083b5760405162461bcd60e51b815260206004820152602160248201527f52656163746f723a20546865206f7869646520646f6573206e6f7420657869736044820152601d60fa1b6064820152608401610715565b3380156108cc576001600160a01b038116600090815260086020908152604091829020825160608101845281548152600182015492810192909252600201549181019190915261088a826104dc565b6020820152610897610b56565b81526001600160a01b038216600090815260086020908152604091829020835181559083015160018201559101516002909101555b6000821161091c5760405162461bcd60e51b815260206004820152601a60248201527f52656163746f723a2043616e6e6f7420776974686472617720300000000000006044820152606401610715565b600760009054906101000a90046001600160a01b03166001600160a01b031663900cf0cf6040518163ffffffff1660e01b815260040160206040518083038186803b15801561096a57600080fd5b505afa15801561097e573d6000803e3d6000fd5b505050506040513d601f19601f820116820180604052508101906109a29190612027565b600a54336000908152600860205260409020600201546109c191611a45565b1115610a195760405162461bcd60e51b815260206004820152602160248201527f52656163746f723a207374696c6c20696e207769746864726177206c6f636b756044820152600760fc1b6064820152608401610715565b610a21611349565b610a2a82611b15565b60405182815233907f7084f5476618d8e60b11ef0d7d3f06914655adb8793e28ff7f018d4c76d505d5906020015b60405180910390a250504360009081526003602090815260408083203284529091528082208054600160ff1991821681179092553384529190922080549091169091179055565b6005546001600160a01b03163314610ac95760405162461bcd60e51b815260040161071590612040565b808210158015610ada575060388211155b610b325760405162461bcd60e51b815260206004820152602360248201527f5f77697468647261774c6f636b757045706f6368733a206f7574206f662072616044820152626e676560e81b6064820152608401610715565b600082118015610b425750600081115b610b4b57600080fd5b600a91909155600b55565b600954600090610b67906001611a1a565b905090565b6000610b7661190d565b60400151905090565b6005546001600160a01b03163314610ba95760405162461bcd60e51b815260040161071590612040565b6006546001600160a01b0384811691161415610bf05760405162461bcd60e51b8152600401610715906020808252600490820152636361746160e01b604082015260600190565b6000546001600160a01b0384811691161415610c375760405162461bcd60e51b8152600401610715906020808252600490820152631b1e5cdd60e21b604082015260600190565b610c4b6001600160a01b0384168284611bdc565b505050565b6004546001600160a01b03163314610caa5760405162461bcd60e51b815260206004820181905260248201527f4f776e61626c653a2063616c6c6572206973206e6f7420746865206f776e65726044820152606401610715565b61075c6000611c6c565b6004546001600160a01b03163314610d0e5760405162461bcd60e51b815260206004820181905260248201527f4f776e61626c653a2063616c6c6572206973206e6f7420746865206f776e65726044820152606401610715565b6005546040516000916001600160a01b0316907f74da04524d50c64947f5dd5381ef1a4dca5cba8ed1d816243f9e48aa0b5617ed908390a3600580546001600160a01b0319169055565b6007546040805163900cf0cf60e01b815290516000926001600160a01b03169163900cf0cf916004808301926020929190829003018186803b158015610d9d57600080fd5b505afa158015610db1573d6000803e3d6000fd5b505050506040513d601f19601f82011682018060405250810190610b679190612027565b43600090815260036020908152604080832032845290915290205460ff1615610e105760405162461bcd60e51b815260040161071590612084565b43600090815260036020908152604080832033845290915290205460ff1615610e4b5760405162461bcd60e51b815260040161071590612084565b6005546001600160a01b03163314610e755760405162461bcd60e51b815260040161071590612040565b60008111610ec55760405162461bcd60e51b815260206004820152601a60248201527f52656163746f723a2043616e6e6f7420616c6c6f6361746520300000000000006044820152606401610715565b6000610ed060015490565b11610f435760405162461bcd60e51b815260206004820152602e60248201527f52656163746f723a2043616e6e6f7420616c6c6f63617465207768656e20746f60448201527f74616c537570706c7920697320300000000000000000000000000000000000006064820152608401610715565b6000610f4d61190d565b6040015190506000610f7d610f76610f6460015490565b61055986670de0b6b3a7640000611a2d565b8390611a45565b60408051606081018252438152602081018681529181018381526009805460018101825560009190915282517f6e1540171b6c0c960b71a7020d9f60077f6af931a8bbf590da0223dacf75c7af60039092029182015592517f6e1540171b6c0c960b71a7020d9f60077f6af931a8bbf590da0223dacf75c7b0840155517f6e1540171b6c0c960b71a7020d9f60077f6af931a8bbf590da0223dacf75c7b1909201919091556006549192509061103e906001600160a01b0316333087611cbe565b60405184815233907fac24935fd910bc682b5ccb1a07b718cadf8cf2f6d1404c4f3ddc3662dae40e299060200160405180910390a250504360009081526003602090815260408083203284529091528082208054600160ff19918216811790925533845291909220805490911690911790555050565b43600090815260036020908152604080832032845290915290205460ff16156110ef5760405162461bcd60e51b815260040161071590612084565b43600090815260036020908152604080832033845290915290205460ff161561112a5760405162461bcd60e51b815260040161071590612084565b3380156111bb576001600160a01b0381166000908152600860209081526040918290208251606081018452815481526001820154928101929092526002015491810191909152611179826104dc565b6020820152611186610b56565b81526001600160a01b038216600090815260086020908152604091829020835181559083015160018201559101516002909101555b6000821161120b5760405162461bcd60e51b815260206004820152601760248201527f52656163746f723a2043616e6e6f74207374616b6520300000000000000000006044820152606401610715565b61121482611cfc565b600760009054906101000a90046001600160a01b03166001600160a01b031663900cf0cf6040518163ffffffff1660e01b815260040160206040518083038186803b15801561126257600080fd5b505afa158015611276573d6000803e3d6000fd5b505050506040513d601f19601f8201168201806040525081019061129a9190612027565b33600081815260086020526040908190206002019290925590517f9e71bc8eea02a63969f509818f2dafb9254532904319f9dbda79b67bd34a5f3d90610a589085815260200190565b6005546001600160a01b0316331461130d5760405162461bcd60e51b815260040161071590612040565b610727816106bf565b6009818154811061132657600080fd5b600091825260209091206003909102018054600182015460029092015490925083565b3380156113da576001600160a01b0381166000908152600860209081526040918290208251606081018452815481526001820154928101929092526002015491810191909152611398826104dc565b60208201526113a5610b56565b81526001600160a01b038216600090815260086020908152604091829020835181559083015160018201559101516002909101555b3360009081526008602052604090206001015480156115db57600760009054906101000a90046001600160a01b03166001600160a01b031663900cf0cf6040518163ffffffff1660e01b815260040160206040518083038186803b15801561144157600080fd5b505afa158015611455573d6000803e3d6000fd5b505050506040513d601f19601f820116820180604052508101906114799190612027565b600b543360009081526008602052604090206002015461149891611a45565b11156114e65760405162461bcd60e51b815260206004820152601f60248201527f52656163746f723a207374696c6c20696e20726577617264206c6f636b7570006044820152606401610715565b600760009054906101000a90046001600160a01b03166001600160a01b031663900cf0cf6040518163ffffffff1660e01b815260040160206040518083038186803b15801561153457600080fd5b505afa158015611548573d6000803e3d6000fd5b505050506040513d601f19601f8201168201806040525081019061156c9190612027565b33600081815260086020526040812060028101939093556001909201919091556006546115a5916001600160a01b039091169083611bdc565b60405181815233907fe2403640ba68fed3a2f88b7557551d1993f84b99bb10ff833f0cf8db0c5e04869060200160405180910390a25b5050565b60075460408051635d8cd01f60e11b815290516000926001600160a01b03169163bb19a03e916004808301926020929190829003018186803b158015610d9d57600080fd5b600554600160a01b900460ff161561167e5760405162461bcd60e51b815260206004820152601860248201527f52656163746f723a20616c726561647920456e61626c656400000000000000006044820152606401610715565b6005546001600160a01b031633146116a85760405162461bcd60e51b815260040161071590612040565b600680546001600160a01b038086166001600160a01b031992831617835560008054868316908416178155600780549286169290931691909117909155604080516060810182524380825260208201848152828401858152600980546001810182559652835160039687027f6e1540171b6c0c960b71a7020d9f60077f6af931a8bbf590da0223dacf75c7af81019190915591517f6e1540171b6c0c960b71a7020d9f60077f6af931a8bbf590da0223dacf75c7b0830155517f6e1540171b6c0c960b71a7020d9f60077f6af931a8bbf590da0223dacf75c7b190910155600a94909455600b929092556005805460ff60a01b1916600160a01b17905551909133917f25ff68dd81b34665b5ba7e553ee5511bf6812e12adb4a7e2c0d9e26b3099ce79916117d99190815260200190565b60405180910390a250505050565b600754604080516362cb3e1360e11b815290516000926001600160a01b03169163c5967c26916004808301926020929190829003018186803b158015610d9d57600080fd5b3360009081526002602052604090205461075c9061075e565b6004546001600160a01b0316331461189f5760405162461bcd60e51b815260206004820181905260248201527f4f776e61626c653a2063616c6c6572206973206e6f7420746865206f776e65726044820152606401610715565b6001600160a01b0381166119045760405162461bcd60e51b815260206004820152602660248201527f4f776e61626c653a206e6577206f776e657220697320746865207a65726f206160448201526564647265737360d01b6064820152608401610715565b61072781611c6c565b61193160405180606001604052806000815260200160008152602001600081525090565b600961193b610b56565b8154811061194b5761194b6120ca565b90600052602060002090600302016040518060600160405290816000820154815260200160018201548152602001600282015481525050905090565b6119ab60405180606001604052806000815260200160008152602001600081525090565b60096119cc836001600160a01b031660009081526008602052604090205490565b815481106119dc576119dc6120ca565b906000526020600020906003020160405180606001604052908160008201548152602001600182015481526020016002820154815250509050919050565b6000611a2682846120f6565b9392505050565b6000611a26828461210d565b6000611a26828461212c565b6000611a26828461214e565b6001600160a01b038116611abd5760405162461bcd60e51b815260206004820152602d60248201527f6f70657261746f723a207a65726f206164647265737320676976656e20666f7260448201526c103732bb9037b832b930ba37b960991b6064820152608401610715565b6040516001600160a01b038216906000907f74da04524d50c64947f5dd5381ef1a4dca5cba8ed1d816243f9e48aa0b5617ed908290a3600580546001600160a01b0319166001600160a01b0392909216919091179055565b3360009081526002602052604090205481811015611b9b5760405162461bcd60e51b815260206004820152603460248201527f52656163746f723a20776974686472617720726571756573742067726561746560448201527f72207468616e207374616b656420616d6f756e740000000000000000000000006064820152608401610715565b600154611ba89083611a1a565b600155611bb58183611a1a565b3360008181526002602052604081209290925590546115db916001600160a01b0390911690845b6040516001600160a01b038316602482015260448101829052610c4b90849063a9059cbb60e01b906064015b60408051601f198184030181529190526020810180517bffffffffffffffffffffffffffffffffffffffffffffffffffffffff167fffffffff0000000000000000000000000000000000000000000000000000000090931692909217909152611d52565b600480546001600160a01b038381166001600160a01b0319831681179093556040519116919082907f8be0079c531659141344cd1fd0a4f28419497f9722a3daafe3b4186f6b6457e090600090a35050565b6040516001600160a01b0380851660248301528316604482015260648101829052611cf69085906323b872dd60e01b90608401611c08565b50505050565b600154611d099082611a45565b60015533600090815260026020526040902054611d269082611a45565b336000818152600260205260408120929092559054610727916001600160a01b03909116903084611cbe565b6000611da7826040518060400160405280602081526020017f5361666545524332303a206c6f772d6c6576656c2063616c6c206661696c6564815250856001600160a01b0316611e249092919063ffffffff16565b805190915015610c4b5780806020019051810190611dc59190612166565b610c4b5760405162461bcd60e51b815260206004820152602a60248201527f5361666545524332303a204552433230206f7065726174696f6e20646964206e6044820152691bdd081cdd58d8d9595960b21b6064820152608401610715565b60606105658484600085856001600160a01b0385163b611e865760405162461bcd60e51b815260206004820152601d60248201527f416464726573733a2063616c6c20746f206e6f6e2d636f6e74726163740000006044820152606401610715565b600080866001600160a01b03168587604051611ea291906121b4565b60006040518083038185875af1925050503d8060008114611edf576040519150601f19603f3d011682016040523d82523d6000602084013e611ee4565b606091505b5091509150611ef4828286611eff565b979650505050505050565b60608315611f0e575081611a26565b825115611f1e5782518084602001fd5b8160405162461bcd60e51b815260040161071591906121d0565b6001600160a01b038116811461072757600080fd5b600060208284031215611f5f57600080fd5b8135611a2681611f38565b600060208284031215611f7c57600080fd5b5035919050565b60008060408385031215611f9657600080fd5b50508035926020909101359150565b600080600060608486031215611fba57600080fd5b8335611fc581611f38565b9250602084013591506040840135611fdc81611f38565b809150509250925092565b600080600060608486031215611ffc57600080fd5b833561200781611f38565b9250602084013561201781611f38565b91506040840135611fdc81611f38565b60006020828403121561203957600080fd5b5051919050565b60208082526024908201527f6f70657261746f723a2063616c6c6572206973206e6f7420746865206f70657260408201526330ba37b960e11b606082015260800190565b60208082526026908201527f436f6e747261637447756172643a206f6e6520626c6f636b2c206f6e652066756040820152653731ba34b7b760d11b606082015260800190565b634e487b7160e01b600052603260045260246000fd5b634e487b7160e01b600052601160045260246000fd5b600082821015612108576121086120e0565b500390565b6000816000190483118215151615612127576121276120e0565b500290565b60008261214957634e487b7160e01b600052601260045260246000fd5b500490565b60008219821115612161576121616120e0565b500190565b60006020828403121561217857600080fd5b81518015158114611a2657600080fd5b60005b838110156121a357818101518382015260200161218b565b83811115611cf65750506000910152565b600082516121c6818460208701612188565b9190910192915050565b60208152600082518060208401526121ef816040850160208701612188565b601f01601f1916919091016040019291505056fea2646970667358221220aec587f248a563501bd28449ad8f8419c4edb2bf9441ac9f3787b6c1802e39d564736f6c63430008090033",
  "linkReferences": {},
  "deployedLinkReferences": {}
}