{
  "_format": "hh-sol-artifact-1",
  "contractName": "Lyst",
  "sourceName": "contracts/Lyst.sol",
  "abi": [
    {
      "inputs": [],
      "stateMutability": "nonpayable",
      "type": "constructor"
    },
    {
      "anonymous": false,
      "inputs": [
        {
          "indexed": true,
          "internalType": "address",
          "name": "owner",
          "type": "address"
        },
        {
          "indexed": true,
          "internalType": "address",
          "name": "spender",
          "type": "address"
        },
        {
          "indexed": false,
          "internalType": "uint256",
          "name": "value",
          "type": "uint256"
        }
      ],
      "name": "Approval",
      "type": "event"
    },
    {
      "anonymous": false,
      "inputs": [
        {
          "indexed": true,
          "internalType": "address",
          "name": "previousOperator",
          "type": "address"
        },
        {
          "indexed": true,
          "internalType": "address",
          "name": "newOperator",
          "type": "address"
        }
      ],
      "name": "OperatorTransferred",
      "type": "event"
    },
    {
      "anonymous": false,
      "inputs": [
        {
          "indexed": true,
          "internalType": "address",
          "name": "previousOwner",
          "type": "address"
        },
        {
          "indexed": true,
          "internalType": "address",
          "name": "newOwner",
          "type": "address"
        }
      ],
      "name": "OwnershipTransferred",
      "type": "event"
    },
    {
      "anonymous": false,
      "inputs": [
        {
          "indexed": true,
          "internalType": "address",
          "name": "from",
          "type": "address"
        },
        {
          "indexed": true,
          "internalType": "address",
          "name": "to",
          "type": "address"
        },
        {
          "indexed": false,
          "internalType": "uint256",
          "name": "value",
          "type": "uint256"
        }
      ],
      "name": "Transfer",
      "type": "event"
    },
    {
      "inputs": [],
      "name": "FARMING_POOL_REWARD_ALLOCATION",
      "outputs": [
        {
          "internalType": "uint256",
          "name": "",
          "type": "uint256"
        }
      ],
      "stateMutability": "view",
      "type": "function"
    },
    {
      "inputs": [],
      "name": "_renounceOperator",
      "outputs": [],
      "stateMutability": "nonpayable",
      "type": "function"
    },
    {
      "inputs": [
        {
          "internalType": "address",
          "name": "owner",
          "type": "address"
        },
        {
          "internalType": "address",
          "name": "spender",
          "type": "address"
        }
      ],
      "name": "allowance",
      "outputs": [
        {
          "internalType": "uint256",
          "name": "",
          "type": "uint256"
        }
      ],
      "stateMutability": "view",
      "type": "function"
    },
    {
      "inputs": [
        {
          "internalType": "address",
          "name": "spender",
          "type": "address"
        },
        {
          "internalType": "uint256",
          "name": "amount",
          "type": "uint256"
        }
      ],
      "name": "approve",
      "outputs": [
        {
          "internalType": "bool",
          "name": "",
          "type": "bool"
        }
      ],
      "stateMutability": "nonpayable",
      "type": "function"
    },
    {
      "inputs": [
        {
          "internalType": "address",
          "name": "account",
          "type": "address"
        }
      ],
      "name": "balanceOf",
      "outputs": [
        {
          "internalType": "uint256",
          "name": "",
          "type": "uint256"
        }
      ],
      "stateMutability": "view",
      "type": "function"
    },
    {
      "inputs": [
        {
          "internalType": "uint256",
          "name": "amount",
          "type": "uint256"
        }
      ],
      "name": "burn",
      "outputs": [],
      "stateMutability": "nonpayable",
      "type": "function"
    },
    {
      "inputs": [
        {
          "internalType": "address",
          "name": "account",
          "type": "address"
        },
        {
          "internalType": "uint256",
          "name": "amount",
          "type": "uint256"
        }
      ],
      "name": "burnFrom",
      "outputs": [],
      "stateMutability": "nonpayable",
      "type": "function"
    },
    {
      "inputs": [],
      "name": "decimals",
      "outputs": [
        {
          "internalType": "uint8",
          "name": "",
          "type": "uint8"
        }
      ],
      "stateMutability": "view",
      "type": "function"
    },
    {
      "inputs": [
        {
          "internalType": "address",
          "name": "spender",
          "type": "address"
        },
        {
          "internalType": "uint256",
          "name": "subtractedValue",
          "type": "uint256"
        }
      ],
      "name": "decreaseAllowance",
      "outputs": [
        {
          "internalType": "bool",
          "name": "",
          "type": "bool"
        }
      ],
      "stateMutability": "nonpayable",
      "type": "function"
    },
    {
      "inputs": [
        {
          "internalType": "address",
          "name": "_farmingIncentiveFund",
          "type": "address"
        }
      ],
      "name": "distributeReward",
      "outputs": [],
      "stateMutability": "nonpayable",
      "type": "function"
    },
    {
      "inputs": [
        {
          "internalType": "contract IERC20",
          "name": "_token",
          "type": "address"
        },
        {
          "internalType": "uint256",
          "name": "_amount",
          "type": "uint256"
        },
        {
          "internalType": "address",
          "name": "_to",
          "type": "address"
        }
      ],
      "name": "governanceRecoverUnsupported",
      "outputs": [],
      "stateMutability": "nonpayable",
      "type": "function"
    },
    {
      "inputs": [
        {
          "internalType": "address",
          "name": "spender",
          "type": "address"
        },
        {
          "internalType": "uint256",
          "name": "addedValue",
          "type": "uint256"
        }
      ],
      "name": "increaseAllowance",
      "outputs": [
        {
          "internalType": "bool",
          "name": "",
          "type": "bool"
        }
      ],
      "stateMutability": "nonpayable",
      "type": "function"
    },
    {
      "inputs": [],
      "name": "isOperator",
      "outputs": [
        {
          "internalType": "bool",
          "name": "",
          "type": "bool"
        }
      ],
      "stateMutability": "view",
      "type": "function"
    },
    {
      "inputs": [],
      "name": "name",
      "outputs": [
        {
          "internalType": "string",
          "name": "",
          "type": "string"
        }
      ],
      "stateMutability": "view",
      "type": "function"
    },
    {
      "inputs": [],
      "name": "operator",
      "outputs": [
        {
          "internalType": "address",
          "name": "",
          "type": "address"
        }
      ],
      "stateMutability": "view",
      "type": "function"
    },
    {
      "inputs": [],
      "name": "owner",
      "outputs": [
        {
          "internalType": "address",
          "name": "",
          "type": "address"
        }
      ],
      "stateMutability": "view",
      "type": "function"
    },
    {
      "inputs": [],
      "name": "renounceOwnership",
      "outputs": [],
      "stateMutability": "nonpayable",
      "type": "function"
    },
    {
      "inputs": [],
      "name": "rewardPoolDistributed",
      "outputs": [
        {
          "internalType": "bool",
          "name": "",
          "type": "bool"
        }
      ],
      "stateMutability": "view",
      "type": "function"
    },
    {
      "inputs": [],
      "name": "symbol",
      "outputs": [
        {
          "internalType": "string",
          "name": "",
          "type": "string"
        }
      ],
      "stateMutability": "view",
      "type": "function"
    },
    {
      "inputs": [],
      "name": "totalSupply",
      "outputs": [
        {
          "internalType": "uint256",
          "name": "",
          "type": "uint256"
        }
      ],
      "stateMutability": "view",
      "type": "function"
    },
    {
      "inputs": [
        {
          "internalType": "address",
          "name": "to",
          "type": "address"
        },
        {
          "internalType": "uint256",
          "name": "amount",
          "type": "uint256"
        }
      ],
      "name": "transfer",
      "outputs": [
        {
          "internalType": "bool",
          "name": "",
          "type": "bool"
        }
      ],
      "stateMutability": "nonpayable",
      "type": "function"
    },
    {
      "inputs": [
        {
          "internalType": "address",
          "name": "from",
          "type": "address"
        },
        {
          "internalType": "address",
          "name": "to",
          "type": "address"
        },
        {
          "internalType": "uint256",
          "name": "amount",
          "type": "uint256"
        }
      ],
      "name": "transferFrom",
      "outputs": [
        {
          "internalType": "bool",
          "name": "",
          "type": "bool"
        }
      ],
      "stateMutability": "nonpayable",
      "type": "function"
    },
    {
      "inputs": [
        {
          "internalType": "address",
          "name": "newOperator_",
          "type": "address"
        }
      ],
      "name": "transferOperator",
      "outputs": [],
      "stateMutability": "nonpayable",
      "type": "function"
    },
    {
      "inputs": [
        {
          "internalType": "address",
          "name": "newOwner",
          "type": "address"
        }
      ],
      "name": "transferOwnership",
      "outputs": [],
      "stateMutability": "nonpayable",
      "type": "function"
    }
  ],
  "bytecode": "0x60806040526000600660146101000a81548160ff0219169083151502179055503480156200002c57600080fd5b506040518060400160405280600481526020017f4c595354000000000000000000000000000000000000000000000000000000008152506040518060400160405280600481526020017f4c595354000000000000000000000000000000000000000000000000000000008152508160039080519060200190620000b19291906200042b565b508060049080519060200190620000ca9291906200042b565b505050620000ed620000e1620001da60201b60201c565b620001e260201b60201c565b620000fd620001da60201b60201c565b600660006101000a81548173ffffffffffffffffffffffffffffffffffffffff021916908373ffffffffffffffffffffffffffffffffffffffff160217905550600660009054906101000a900473ffffffffffffffffffffffffffffffffffffffff1673ffffffffffffffffffffffffffffffffffffffff16600073ffffffffffffffffffffffffffffffffffffffff167f74da04524d50c64947f5dd5381ef1a4dca5cba8ed1d816243f9e48aa0b5617ed60405160405180910390a3620001d433678ac7230489e80000620002a860201b60201c565b62000687565b600033905090565b6000600560009054906101000a900473ffffffffffffffffffffffffffffffffffffffff16905081600560006101000a81548173ffffffffffffffffffffffffffffffffffffffff021916908373ffffffffffffffffffffffffffffffffffffffff1602179055508173ffffffffffffffffffffffffffffffffffffffff168173ffffffffffffffffffffffffffffffffffffffff167f8be0079c531659141344cd1fd0a4f28419497f9722a3daafe3b4186f6b6457e060405160405180910390a35050565b600073ffffffffffffffffffffffffffffffffffffffff168273ffffffffffffffffffffffffffffffffffffffff1614156200031b576040517f08c379a0000000000000000000000000000000000000000000000000000000008152600401620003129062000513565b60405180910390fd5b6200032f600083836200042160201b60201c565b806002600082825462000343919062000563565b92505081905550806000808473ffffffffffffffffffffffffffffffffffffffff1673ffffffffffffffffffffffffffffffffffffffff16815260200190815260200160002060008282546200039a919062000563565b925050819055508173ffffffffffffffffffffffffffffffffffffffff16600073ffffffffffffffffffffffffffffffffffffffff167fddf252ad1be2c89b69c2b068fc378daa952ba7f163c4a11628f55a4df523b3ef8360405162000401919062000535565b60405180910390a36200041d600083836200042660201b60201c565b5050565b505050565b505050565b8280546200043990620005ca565b90600052602060002090601f0160209004810192826200045d5760008555620004a9565b82601f106200047857805160ff1916838001178555620004a9565b82800160010185558215620004a9579182015b82811115620004a85782518255916020019190600101906200048b565b5b509050620004b89190620004bc565b5090565b5b80821115620004d7576000816000905550600101620004bd565b5090565b6000620004ea601f8362000552565b9150620004f7826200065e565b602082019050919050565b6200050d81620005c0565b82525050565b600060208201905081810360008301526200052e81620004db565b9050919050565b60006020820190506200054c600083018462000502565b92915050565b600082825260208201905092915050565b60006200057082620005c0565b91506200057d83620005c0565b9250827fffffffffffffffffffffffffffffffffffffffffffffffffffffffffffffffff03821115620005b557620005b462000600565b5b828201905092915050565b6000819050919050565b60006002820490506001821680620005e357607f821691505b60208210811415620005fa57620005f96200062f565b5b50919050565b7f4e487b7100000000000000000000000000000000000000000000000000000000600052601160045260246000fd5b7f4e487b7100000000000000000000000000000000000000000000000000000000600052602260045260246000fd5b7f45524332303a206d696e7420746f20746865207a65726f206164647265737300600082015250565b61267a80620006976000396000f3fe608060405234801561001057600080fd5b50600436106101585760003560e01c806370a08231116100c35780639662676c1161007c5780639662676c1461038f578063a06160fd146103ad578063a457c2d7146103cb578063a9059cbb146103fb578063dd62ed3e1461042b578063f2fde38b1461045b57610158565b806370a08231146102f3578063715018a61461032357806379cc67901461032d5780638a27f103146103495780638da5cb5b1461035357806395d89b411461037157610158565b8063313ce56711610115578063313ce56714610231578063395093511461024f57806342966c681461027f5780634456eda21461029b57806354575af4146102b9578063570ca735146102d557610158565b806306fdde031461015d578063092193ab1461017b578063095ea7b31461019757806318160ddd146101c757806323b872dd146101e557806329605e7714610215575b600080fd5b610165610477565b6040516101729190611d7d565b60405180910390f35b610195600480360381019061019091906118e8565b610509565b005b6101b160048036038101906101ac919061199c565b61068b565b6040516101be9190611d62565b60405180910390f35b6101cf6106ae565b6040516101dc9190611f9f565b60405180910390f35b6101ff60048036038101906101fa919061194d565b6106b8565b60405161020c9190611d62565b60405180910390f35b61022f600480360381019061022a91906118e8565b6106e7565b005b61023961076f565b6040516102469190611fba565b60405180910390f35b6102696004803603810190610264919061199c565b610778565b6040516102769190611d62565b60405180910390f35b61029960048036038101906102949190611a50565b6107af565b005b6102a36107bb565b6040516102b09190611d62565b60405180910390f35b6102d360048036038101906102ce9190611a01565b61081a565b005b6102dd61093d565b6040516102ea9190611d1e565b60405180910390f35b61030d600480360381019061030891906118e8565b610967565b60405161031a9190611f9f565b60405180910390f35b61032b6109af565b005b6103476004803603810190610342919061199c565b610a37565b005b610351610a57565b005b61035b610b94565b6040516103689190611d1e565b60405180910390f35b610379610bbe565b6040516103869190611d7d565b60405180910390f35b610397610c50565b6040516103a49190611d62565b60405180910390f35b6103b5610c63565b6040516103c29190611f9f565b60405180910390f35b6103e560048036038101906103e0919061199c565b610c71565b6040516103f29190611d62565b60405180910390f35b6104156004803603810190610410919061199c565b610ce8565b6040516104229190611d62565b60405180910390f35b61044560048036038101906104409190611911565b610d0b565b6040516104529190611f9f565b60405180910390f35b610475600480360381019061047091906118e8565b610d92565b005b60606003805461048690612115565b80601f01602080910402602001604051908101604052809291908181526020018280546104b290612115565b80156104ff5780601f106104d4576101008083540402835291602001916104ff565b820191906000526020600020905b8154815290600101906020018083116104e257829003601f168201915b5050505050905090565b3373ffffffffffffffffffffffffffffffffffffffff16600660009054906101000a900473ffffffffffffffffffffffffffffffffffffffff1673ffffffffffffffffffffffffffffffffffffffff1614610599576040517f08c379a000000000000000000000000000000000000000000000000000000000815260040161059090611edf565b60405180910390fd5b600660149054906101000a900460ff16156105e9576040517f08c379a00000000000000000000000000000000000000000000000000000000081526004016105e090611dbf565b60405180910390fd5b600073ffffffffffffffffffffffffffffffffffffffff168173ffffffffffffffffffffffffffffffffffffffff161415610659576040517f08c379a000000000000000000000000000000000000000000000000000000000815260040161065090611e9f565b60405180910390fd5b6001600660146101000a81548160ff02191690831515021790555061068881690a968163f0a57b400000610e8a565b50565b600080610696610fea565b90506106a3818585610ff2565b600191505092915050565b6000600254905090565b6000806106c3610fea565b90506106d08582856111bd565b6106db858585611249565b60019150509392505050565b6106ef610fea565b73ffffffffffffffffffffffffffffffffffffffff1661070d610b94565b73ffffffffffffffffffffffffffffffffffffffff1614610763576040517f08c379a000000000000000000000000000000000000000000000000000000000815260040161075a90611ebf565b60405180910390fd5b61076c816114ca565b50565b60006012905090565b600080610783610fea565b90506107a48185856107958589610d0b565b61079f9190611ff1565b610ff2565b600191505092915050565b6107b8816115d9565b50565b6000600660009054906101000a900473ffffffffffffffffffffffffffffffffffffffff1673ffffffffffffffffffffffffffffffffffffffff166107fe610fea565b73ffffffffffffffffffffffffffffffffffffffff1614905090565b3373ffffffffffffffffffffffffffffffffffffffff16600660009054906101000a900473ffffffffffffffffffffffffffffffffffffffff1673ffffffffffffffffffffffffffffffffffffffff16146108aa576040517f08c379a00000000000000000000000000000000000000000000000000000000081526004016108a190611edf565b60405180910390fd5b8273ffffffffffffffffffffffffffffffffffffffff1663a9059cbb82846040518363ffffffff1660e01b81526004016108e5929190611d39565b602060405180830381600087803b1580156108ff57600080fd5b505af1158015610913573d6000803e3d6000fd5b505050506040513d601f19601f8201168201806040525081019061093791906119d8565b50505050565b6000600660009054906101000a900473ffffffffffffffffffffffffffffffffffffffff16905090565b60008060008373ffffffffffffffffffffffffffffffffffffffff1673ffffffffffffffffffffffffffffffffffffffff168152602001908152602001600020549050919050565b6109b7610fea565b73ffffffffffffffffffffffffffffffffffffffff166109d5610b94565b73ffffffffffffffffffffffffffffffffffffffff1614610a2b576040517f08c379a0000000000000000000000000000000000000000000000000000000008152600401610a2290611ebf565b60405180910390fd5b610a3560006115ed565b565b610a4982610a43610fea565b836111bd565b610a5382826116b3565b5050565b610a5f610fea565b73ffffffffffffffffffffffffffffffffffffffff16610a7d610b94565b73ffffffffffffffffffffffffffffffffffffffff1614610ad3576040517f08c379a0000000000000000000000000000000000000000000000000000000008152600401610aca90611ebf565b60405180910390fd5b600073ffffffffffffffffffffffffffffffffffffffff16600660009054906101000a900473ffffffffffffffffffffffffffffffffffffffff1673ffffffffffffffffffffffffffffffffffffffff167f74da04524d50c64947f5dd5381ef1a4dca5cba8ed1d816243f9e48aa0b5617ed60405160405180910390a36000600660006101000a81548173ffffffffffffffffffffffffffffffffffffffff021916908373ffffffffffffffffffffffffffffffffffffffff160217905550565b6000600560009054906101000a900473ffffffffffffffffffffffffffffffffffffffff16905090565b606060048054610bcd90612115565b80601f0160208091040260200160405190810160405280929190818152602001828054610bf990612115565b8015610c465780601f10610c1b57610100808354040283529160200191610c46565b820191906000526020600020905b815481529060010190602001808311610c2957829003601f168201915b5050505050905090565b600660149054906101000a900460ff1681565b690a968163f0a57b40000081565b600080610c7c610fea565b90506000610c8a8286610d0b565b905083811015610ccf576040517f08c379a0000000000000000000000000000000000000000000000000000000008152600401610cc690611f5f565b60405180910390fd5b610cdc8286868403610ff2565b60019250505092915050565b600080610cf3610fea565b9050610d00818585611249565b600191505092915050565b6000600160008473ffffffffffffffffffffffffffffffffffffffff1673ffffffffffffffffffffffffffffffffffffffff16815260200190815260200160002060008373ffffffffffffffffffffffffffffffffffffffff1673ffffffffffffffffffffffffffffffffffffffff16815260200190815260200160002054905092915050565b610d9a610fea565b73ffffffffffffffffffffffffffffffffffffffff16610db8610b94565b73ffffffffffffffffffffffffffffffffffffffff1614610e0e576040517f08c379a0000000000000000000000000000000000000000000000000000000008152600401610e0590611ebf565b60405180910390fd5b600073ffffffffffffffffffffffffffffffffffffffff168173ffffffffffffffffffffffffffffffffffffffff161415610e7e576040517f08c379a0000000000000000000000000000000000000000000000000000000008152600401610e7590611dff565b60405180910390fd5b610e87816115ed565b50565b600073ffffffffffffffffffffffffffffffffffffffff168273ffffffffffffffffffffffffffffffffffffffff161415610efa576040517f08c379a0000000000000000000000000000000000000000000000000000000008152600401610ef190611f7f565b60405180910390fd5b610f066000838361188a565b8060026000828254610f189190611ff1565b92505081905550806000808473ffffffffffffffffffffffffffffffffffffffff1673ffffffffffffffffffffffffffffffffffffffff1681526020019081526020016000206000828254610f6d9190611ff1565b925050819055508173ffffffffffffffffffffffffffffffffffffffff16600073ffffffffffffffffffffffffffffffffffffffff167fddf252ad1be2c89b69c2b068fc378daa952ba7f163c4a11628f55a4df523b3ef83604051610fd29190611f9f565b60405180910390a3610fe66000838361188f565b5050565b600033905090565b600073ffffffffffffffffffffffffffffffffffffffff168373ffffffffffffffffffffffffffffffffffffffff161415611062576040517f08c379a000000000000000000000000000000000000000000000000000000000815260040161105990611f3f565b60405180910390fd5b600073ffffffffffffffffffffffffffffffffffffffff168273ffffffffffffffffffffffffffffffffffffffff1614156110d2576040517f08c379a00000000000000000000000000000000000000000000000000000000081526004016110c990611e1f565b60405180910390fd5b80600160008573ffffffffffffffffffffffffffffffffffffffff1673ffffffffffffffffffffffffffffffffffffffff16815260200190815260200160002060008473ffffffffffffffffffffffffffffffffffffffff1673ffffffffffffffffffffffffffffffffffffffff168152602001908152602001600020819055508173ffffffffffffffffffffffffffffffffffffffff168373ffffffffffffffffffffffffffffffffffffffff167f8c5be1e5ebec7d5bd14f71427d1e84f3dd0314c0f7b2291e5b200ac8c7c3b925836040516111b09190611f9f565b60405180910390a3505050565b60006111c98484610d0b565b90507fffffffffffffffffffffffffffffffffffffffffffffffffffffffffffffffff81146112435781811015611235576040517f08c379a000000000000000000000000000000000000000000000000000000000815260040161122c90611e3f565b60405180910390fd5b6112428484848403610ff2565b5b50505050565b600073ffffffffffffffffffffffffffffffffffffffff168373ffffffffffffffffffffffffffffffffffffffff1614156112b9576040517f08c379a00000000000000000000000000000000000000000000000000000000081526004016112b090611f1f565b60405180910390fd5b600073ffffffffffffffffffffffffffffffffffffffff168273ffffffffffffffffffffffffffffffffffffffff161415611329576040517f08c379a000000000000000000000000000000000000000000000000000000000815260040161132090611d9f565b60405180910390fd5b61133483838361188a565b60008060008573ffffffffffffffffffffffffffffffffffffffff1673ffffffffffffffffffffffffffffffffffffffff168152602001908152602001600020549050818110156113ba576040517f08c379a00000000000000000000000000000000000000000000000000000000081526004016113b190611e5f565b60405180910390fd5b8181036000808673ffffffffffffffffffffffffffffffffffffffff1673ffffffffffffffffffffffffffffffffffffffff16815260200190815260200160002081905550816000808573ffffffffffffffffffffffffffffffffffffffff1673ffffffffffffffffffffffffffffffffffffffff168152602001908152602001600020600082825461144d9190611ff1565b925050819055508273ffffffffffffffffffffffffffffffffffffffff168473ffffffffffffffffffffffffffffffffffffffff167fddf252ad1be2c89b69c2b068fc378daa952ba7f163c4a11628f55a4df523b3ef846040516114b19190611f9f565b60405180910390a36114c484848461188f565b50505050565b600073ffffffffffffffffffffffffffffffffffffffff168173ffffffffffffffffffffffffffffffffffffffff16141561153a576040517f08c379a000000000000000000000000000000000000000000000000000000000815260040161153190611e7f565b60405180910390fd5b8073ffffffffffffffffffffffffffffffffffffffff16600073ffffffffffffffffffffffffffffffffffffffff167f74da04524d50c64947f5dd5381ef1a4dca5cba8ed1d816243f9e48aa0b5617ed60405160405180910390a380600660006101000a81548173ffffffffffffffffffffffffffffffffffffffff021916908373ffffffffffffffffffffffffffffffffffffffff16021790555050565b6115ea6115e4610fea565b826116b3565b50565b6000600560009054906101000a900473ffffffffffffffffffffffffffffffffffffffff16905081600560006101000a81548173ffffffffffffffffffffffffffffffffffffffff021916908373ffffffffffffffffffffffffffffffffffffffff1602179055508173ffffffffffffffffffffffffffffffffffffffff168173ffffffffffffffffffffffffffffffffffffffff167f8be0079c531659141344cd1fd0a4f28419497f9722a3daafe3b4186f6b6457e060405160405180910390a35050565b600073ffffffffffffffffffffffffffffffffffffffff168273ffffffffffffffffffffffffffffffffffffffff161415611723576040517f08c379a000000000000000000000000000000000000000000000000000000000815260040161171a90611eff565b60405180910390fd5b61172f8260008361188a565b60008060008473ffffffffffffffffffffffffffffffffffffffff1673ffffffffffffffffffffffffffffffffffffffff168152602001908152602001600020549050818110156117b5576040517f08c379a00000000000000000000000000000000000000000000000000000000081526004016117ac90611ddf565b60405180910390fd5b8181036000808573ffffffffffffffffffffffffffffffffffffffff1673ffffffffffffffffffffffffffffffffffffffff16815260200190815260200160002081905550816002600082825461180c9190612047565b92505081905550600073ffffffffffffffffffffffffffffffffffffffff168373ffffffffffffffffffffffffffffffffffffffff167fddf252ad1be2c89b69c2b068fc378daa952ba7f163c4a11628f55a4df523b3ef846040516118719190611f9f565b60405180910390a36118858360008461188f565b505050565b505050565b505050565b6000813590506118a3816125e8565b92915050565b6000815190506118b8816125ff565b92915050565b6000813590506118cd81612616565b92915050565b6000813590506118e28161262d565b92915050565b6000602082840312156118fa57600080fd5b600061190884828501611894565b91505092915050565b6000806040838503121561192457600080fd5b600061193285828601611894565b925050602061194385828601611894565b9150509250929050565b60008060006060848603121561196257600080fd5b600061197086828701611894565b935050602061198186828701611894565b9250506040611992868287016118d3565b9150509250925092565b600080604083850312156119af57600080fd5b60006119bd85828601611894565b92505060206119ce858286016118d3565b9150509250929050565b6000602082840312156119ea57600080fd5b60006119f8848285016118a9565b91505092915050565b600080600060608486031215611a1657600080fd5b6000611a24868287016118be565b9350506020611a35868287016118d3565b9250506040611a4686828701611894565b9150509250925092565b600060208284031215611a6257600080fd5b6000611a70848285016118d3565b91505092915050565b611a828161207b565b82525050565b611a918161208d565b82525050565b6000611aa282611fd5565b611aac8185611fe0565b9350611abc8185602086016120e2565b611ac5816121a5565b840191505092915050565b6000611add602383611fe0565b9150611ae8826121b6565b604082019050919050565b6000611b00601883611fe0565b9150611b0b82612205565b602082019050919050565b6000611b23602283611fe0565b9150611b2e8261222e565b604082019050919050565b6000611b46602683611fe0565b9150611b518261227d565b604082019050919050565b6000611b69602283611fe0565b9150611b74826122cc565b604082019050919050565b6000611b8c601d83611fe0565b9150611b978261231b565b602082019050919050565b6000611baf602683611fe0565b9150611bba82612344565b604082019050919050565b6000611bd2602d83611fe0565b9150611bdd82612393565b604082019050919050565b6000611bf5601683611fe0565b9150611c00826123e2565b602082019050919050565b6000611c18602083611fe0565b9150611c238261240b565b602082019050919050565b6000611c3b602483611fe0565b9150611c4682612434565b604082019050919050565b6000611c5e602183611fe0565b9150611c6982612483565b604082019050919050565b6000611c81602583611fe0565b9150611c8c826124d2565b604082019050919050565b6000611ca4602483611fe0565b9150611caf82612521565b604082019050919050565b6000611cc7602583611fe0565b9150611cd282612570565b604082019050919050565b6000611cea601f83611fe0565b9150611cf5826125bf565b602082019050919050565b611d09816120cb565b82525050565b611d18816120d5565b82525050565b6000602082019050611d336000830184611a79565b92915050565b6000604082019050611d4e6000830185611a79565b611d5b6020830184611d00565b9392505050565b6000602082019050611d776000830184611a88565b92915050565b60006020820190508181036000830152611d978184611a97565b905092915050565b60006020820190508181036000830152611db881611ad0565b9050919050565b60006020820190508181036000830152611dd881611af3565b9050919050565b60006020820190508181036000830152611df881611b16565b9050919050565b60006020820190508181036000830152611e1881611b39565b9050919050565b60006020820190508181036000830152611e3881611b5c565b9050919050565b60006020820190508181036000830152611e5881611b7f565b9050919050565b60006020820190508181036000830152611e7881611ba2565b9050919050565b60006020820190508181036000830152611e9881611bc5565b9050919050565b60006020820190508181036000830152611eb881611be8565b9050919050565b60006020820190508181036000830152611ed881611c0b565b9050919050565b60006020820190508181036000830152611ef881611c2e565b9050919050565b60006020820190508181036000830152611f1881611c51565b9050919050565b60006020820190508181036000830152611f3881611c74565b9050919050565b60006020820190508181036000830152611f5881611c97565b9050919050565b60006020820190508181036000830152611f7881611cba565b9050919050565b60006020820190508181036000830152611f9881611cdd565b9050919050565b6000602082019050611fb46000830184611d00565b92915050565b6000602082019050611fcf6000830184611d0f565b92915050565b600081519050919050565b600082825260208201905092915050565b6000611ffc826120cb565b9150612007836120cb565b9250827fffffffffffffffffffffffffffffffffffffffffffffffffffffffffffffffff0382111561203c5761203b612147565b5b828201905092915050565b6000612052826120cb565b915061205d836120cb565b9250828210156120705761206f612147565b5b828203905092915050565b6000612086826120ab565b9050919050565b60008115159050919050565b60006120a48261207b565b9050919050565b600073ffffffffffffffffffffffffffffffffffffffff82169050919050565b6000819050919050565b600060ff82169050919050565b60005b838110156121005780820151818401526020810190506120e5565b8381111561210f576000848401525b50505050565b6000600282049050600182168061212d57607f821691505b6020821081141561214157612140612176565b5b50919050565b7f4e487b7100000000000000000000000000000000000000000000000000000000600052601160045260246000fd5b7f4e487b7100000000000000000000000000000000000000000000000000000000600052602260045260246000fd5b6000601f19601f8301169050919050565b7f45524332303a207472616e7366657220746f20746865207a65726f206164647260008201527f6573730000000000000000000000000000000000000000000000000000000000602082015250565b7f6f6e6c792063616e2064697374726962757465206f6e63650000000000000000600082015250565b7f45524332303a206275726e20616d6f756e7420657863656564732062616c616e60008201527f6365000000000000000000000000000000000000000000000000000000000000602082015250565b7f4f776e61626c653a206e6577206f776e657220697320746865207a65726f206160008201527f6464726573730000000000000000000000000000000000000000000000000000602082015250565b7f45524332303a20617070726f766520746f20746865207a65726f20616464726560008201527f7373000000000000000000000000000000000000000000000000000000000000602082015250565b7f45524332303a20696e73756666696369656e7420616c6c6f77616e6365000000600082015250565b7f45524332303a207472616e7366657220616d6f756e742065786365656473206260008201527f616c616e63650000000000000000000000000000000000000000000000000000602082015250565b7f6f70657261746f723a207a65726f206164647265737320676976656e20666f7260008201527f206e6577206f70657261746f7200000000000000000000000000000000000000602082015250565b7f215f6661726d696e67496e63656e7469766546756e6400000000000000000000600082015250565b7f4f776e61626c653a2063616c6c6572206973206e6f7420746865206f776e6572600082015250565b7f6f70657261746f723a2063616c6c6572206973206e6f7420746865206f70657260008201527f61746f7200000000000000000000000000000000000000000000000000000000602082015250565b7f45524332303a206275726e2066726f6d20746865207a65726f2061646472657360008201527f7300000000000000000000000000000000000000000000000000000000000000602082015250565b7f45524332303a207472616e736665722066726f6d20746865207a65726f20616460008201527f6472657373000000000000000000000000000000000000000000000000000000602082015250565b7f45524332303a20617070726f76652066726f6d20746865207a65726f2061646460008201527f7265737300000000000000000000000000000000000000000000000000000000602082015250565b7f45524332303a2064656372656173656420616c6c6f77616e63652062656c6f7760008201527f207a65726f000000000000000000000000000000000000000000000000000000602082015250565b7f45524332303a206d696e7420746f20746865207a65726f206164647265737300600082015250565b6125f18161207b565b81146125fc57600080fd5b50565b6126088161208d565b811461261357600080fd5b50565b61261f81612099565b811461262a57600080fd5b50565b612636816120cb565b811461264157600080fd5b5056fea264697066735822122087609972c7222e22832d8c13f2a4ebf78ae1c26e2a9bcbd9c086a6ea1487197864736f6c63430008030033",
  "linkReferences": {},
  "deployedLinkReferences": {}
}