{
  "_format": "hh-sol-artifact-1",
  "contractName": "Cata",
  "sourceName": "contracts/cata.sol",
  "abi": [
    {
      "inputs": [],
      "stateMutability": "nonpayable",
      "type": "constructor"
    },
    {
      "anonymous": false,
      "inputs": [
        {
          "indexed": true,
          "internalType": "address",
          "name": "owner",
          "type": "address"
        },
        {
          "indexed": true,
          "internalType": "address",
          "name": "spender",
          "type": "address"
        },
        {
          "indexed": false,
          "internalType": "uint256",
          "name": "value",
          "type": "uint256"
        }
      ],
      "name": "Approval",
      "type": "event"
    },
    {
      "anonymous": false,
      "inputs": [
        {
          "indexed": true,
          "internalType": "address",
          "name": "previousOperator",
          "type": "address"
        },
        {
          "indexed": true,
          "internalType": "address",
          "name": "newOperator",
          "type": "address"
        }
      ],
      "name": "OperatorTransferred",
      "type": "event"
    },
    {
      "anonymous": false,
      "inputs": [
        {
          "indexed": true,
          "internalType": "address",
          "name": "previousOwner",
          "type": "address"
        },
        {
          "indexed": true,
          "internalType": "address",
          "name": "newOwner",
          "type": "address"
        }
      ],
      "name": "OwnershipTransferred",
      "type": "event"
    },
    {
      "anonymous": false,
      "inputs": [
        {
          "indexed": true,
          "internalType": "address",
          "name": "from",
          "type": "address"
        },
        {
          "indexed": true,
          "internalType": "address",
          "name": "to",
          "type": "address"
        },
        {
          "indexed": false,
          "internalType": "uint256",
          "name": "value",
          "type": "uint256"
        }
      ],
      "name": "Transfer",
      "type": "event"
    },
    {
      "inputs": [],
      "name": "INITIAL_DAOFUND_DISTRIBUTION",
      "outputs": [
        {
          "internalType": "uint256",
          "name": "",
          "type": "uint256"
        }
      ],
      "stateMutability": "view",
      "type": "function"
    },
    {
      "inputs": [],
      "name": "INITIAL_GENESIS_POOL_DISTRIBUTION",
      "outputs": [
        {
          "internalType": "uint256",
          "name": "",
          "type": "uint256"
        }
      ],
      "stateMutability": "view",
      "type": "function"
    },
    {
      "inputs": [],
      "name": "_renounceOperator",
      "outputs": [],
      "stateMutability": "nonpayable",
      "type": "function"
    },
    {
      "inputs": [
        {
          "internalType": "address",
          "name": "owner",
          "type": "address"
        },
        {
          "internalType": "address",
          "name": "spender",
          "type": "address"
        }
      ],
      "name": "allowance",
      "outputs": [
        {
          "internalType": "uint256",
          "name": "",
          "type": "uint256"
        }
      ],
      "stateMutability": "view",
      "type": "function"
    },
    {
      "inputs": [
        {
          "internalType": "address",
          "name": "spender",
          "type": "address"
        },
        {
          "internalType": "uint256",
          "name": "amount",
          "type": "uint256"
        }
      ],
      "name": "approve",
      "outputs": [
        {
          "internalType": "bool",
          "name": "",
          "type": "bool"
        }
      ],
      "stateMutability": "nonpayable",
      "type": "function"
    },
    {
      "inputs": [
        {
          "internalType": "address",
          "name": "account",
          "type": "address"
        }
      ],
      "name": "balanceOf",
      "outputs": [
        {
          "internalType": "uint256",
          "name": "",
          "type": "uint256"
        }
      ],
      "stateMutability": "view",
      "type": "function"
    },
    {
      "inputs": [
        {
          "internalType": "uint256",
          "name": "amount",
          "type": "uint256"
        }
      ],
      "name": "burn",
      "outputs": [],
      "stateMutability": "nonpayable",
      "type": "function"
    },
    {
      "inputs": [
        {
          "internalType": "address",
          "name": "account",
          "type": "address"
        },
        {
          "internalType": "uint256",
          "name": "amount",
          "type": "uint256"
        }
      ],
      "name": "burnFrom",
      "outputs": [],
      "stateMutability": "nonpayable",
      "type": "function"
    },
    {
      "inputs": [],
      "name": "cataOracle",
      "outputs": [
        {
          "internalType": "address",
          "name": "",
          "type": "address"
        }
      ],
      "stateMutability": "view",
      "type": "function"
    },
    {
      "inputs": [],
      "name": "decimals",
      "outputs": [
        {
          "internalType": "uint8",
          "name": "",
          "type": "uint8"
        }
      ],
      "stateMutability": "view",
      "type": "function"
    },
    {
      "inputs": [
        {
          "internalType": "address",
          "name": "spender",
          "type": "address"
        },
        {
          "internalType": "uint256",
          "name": "subtractedValue",
          "type": "uint256"
        }
      ],
      "name": "decreaseAllowance",
      "outputs": [
        {
          "internalType": "bool",
          "name": "",
          "type": "bool"
        }
      ],
      "stateMutability": "nonpayable",
      "type": "function"
    },
    {
      "inputs": [
        {
          "internalType": "address",
          "name": "_genesisPool",
          "type": "address"
        },
        {
          "internalType": "address",
          "name": "_daoFund",
          "type": "address"
        }
      ],
      "name": "distributeReward",
      "outputs": [],
      "stateMutability": "nonpayable",
      "type": "function"
    },
    {
      "inputs": [
        {
          "internalType": "contract IERC20",
          "name": "_token",
          "type": "address"
        },
        {
          "internalType": "uint256",
          "name": "_amount",
          "type": "uint256"
        },
        {
          "internalType": "address",
          "name": "_to",
          "type": "address"
        }
      ],
      "name": "governanceRecoverUnsupported",
      "outputs": [],
      "stateMutability": "nonpayable",
      "type": "function"
    },
    {
      "inputs": [
        {
          "internalType": "address",
          "name": "spender",
          "type": "address"
        },
        {
          "internalType": "uint256",
          "name": "addedValue",
          "type": "uint256"
        }
      ],
      "name": "increaseAllowance",
      "outputs": [
        {
          "internalType": "bool",
          "name": "",
          "type": "bool"
        }
      ],
      "stateMutability": "nonpayable",
      "type": "function"
    },
    {
      "inputs": [],
      "name": "isOperator",
      "outputs": [
        {
          "internalType": "bool",
          "name": "",
          "type": "bool"
        }
      ],
      "stateMutability": "view",
      "type": "function"
    },
    {
      "inputs": [
        {
          "internalType": "address",
          "name": "recipient_",
          "type": "address"
        },
        {
          "internalType": "uint256",
          "name": "amount_",
          "type": "uint256"
        }
      ],
      "name": "mint",
      "outputs": [
        {
          "internalType": "bool",
          "name": "",
          "type": "bool"
        }
      ],
      "stateMutability": "nonpayable",
      "type": "function"
    },
    {
      "inputs": [],
      "name": "name",
      "outputs": [
        {
          "internalType": "string",
          "name": "",
          "type": "string"
        }
      ],
      "stateMutability": "view",
      "type": "function"
    },
    {
      "inputs": [],
      "name": "operator",
      "outputs": [
        {
          "internalType": "address",
          "name": "",
          "type": "address"
        }
      ],
      "stateMutability": "view",
      "type": "function"
    },
    {
      "inputs": [],
      "name": "owner",
      "outputs": [
        {
          "internalType": "address",
          "name": "",
          "type": "address"
        }
      ],
      "stateMutability": "view",
      "type": "function"
    },
    {
      "inputs": [],
      "name": "renounceOwnership",
      "outputs": [],
      "stateMutability": "nonpayable",
      "type": "function"
    },
    {
      "inputs": [],
      "name": "rewardPoolDistributed",
      "outputs": [
        {
          "internalType": "bool",
          "name": "",
          "type": "bool"
        }
      ],
      "stateMutability": "view",
      "type": "function"
    },
    {
      "inputs": [
        {
          "internalType": "address",
          "name": "_CataOracle",
          "type": "address"
        }
      ],
      "name": "setCataOracle",
      "outputs": [],
      "stateMutability": "nonpayable",
      "type": "function"
    },
    {
      "inputs": [],
      "name": "symbol",
      "outputs": [
        {
          "internalType": "string",
          "name": "",
          "type": "string"
        }
      ],
      "stateMutability": "view",
      "type": "function"
    },
    {
      "inputs": [],
      "name": "totalSupply",
      "outputs": [
        {
          "internalType": "uint256",
          "name": "",
          "type": "uint256"
        }
      ],
      "stateMutability": "view",
      "type": "function"
    },
    {
      "inputs": [
        {
          "internalType": "address",
          "name": "to",
          "type": "address"
        },
        {
          "internalType": "uint256",
          "name": "amount",
          "type": "uint256"
        }
      ],
      "name": "transfer",
      "outputs": [
        {
          "internalType": "bool",
          "name": "",
          "type": "bool"
        }
      ],
      "stateMutability": "nonpayable",
      "type": "function"
    },
    {
      "inputs": [
        {
          "internalType": "address",
          "name": "sender",
          "type": "address"
        },
        {
          "internalType": "address",
          "name": "recipient",
          "type": "address"
        },
        {
          "internalType": "uint256",
          "name": "amount",
          "type": "uint256"
        }
      ],
      "name": "transferFrom",
      "outputs": [
        {
          "internalType": "bool",
          "name": "",
          "type": "bool"
        }
      ],
      "stateMutability": "nonpayable",
      "type": "function"
    },
    {
      "inputs": [
        {
          "internalType": "address",
          "name": "newOperator_",
          "type": "address"
        }
      ],
      "name": "transferOperator",
      "outputs": [],
      "stateMutability": "nonpayable",
      "type": "function"
    },
    {
      "inputs": [
        {
          "internalType": "address",
          "name": "newOwner",
          "type": "address"
        }
      ],
      "name": "transferOwnership",
      "outputs": [],
      "stateMutability": "nonpayable",
      "type": "function"
    }
  ],
  "bytecode": "0x60806040526000600660146101000a81548160ff0219169083151502179055503480156200002c57600080fd5b506040518060400160405280600481526020017f43415441000000000000000000000000000000000000000000000000000000008152506040518060400160405280600481526020017f43415441000000000000000000000000000000000000000000000000000000008152508160039080519060200190620000b19291906200042d565b508060049080519060200190620000ca9291906200042d565b505050620000ed620000e1620001dc60201b60201c565b620001e460201b60201c565b620000fd620001dc60201b60201c565b600660006101000a81548173ffffffffffffffffffffffffffffffffffffffff021916908373ffffffffffffffffffffffffffffffffffffffff160217905550600660009054906101000a900473ffffffffffffffffffffffffffffffffffffffff1673ffffffffffffffffffffffffffffffffffffffff16600073ffffffffffffffffffffffffffffffffffffffff167f74da04524d50c64947f5dd5381ef1a4dca5cba8ed1d816243f9e48aa0b5617ed60405160405180910390a3620001d63369010f0cf064dd59200000620002aa60201b60201c565b62000689565b600033905090565b6000600560009054906101000a900473ffffffffffffffffffffffffffffffffffffffff16905081600560006101000a81548173ffffffffffffffffffffffffffffffffffffffff021916908373ffffffffffffffffffffffffffffffffffffffff1602179055508173ffffffffffffffffffffffffffffffffffffffff168173ffffffffffffffffffffffffffffffffffffffff167f8be0079c531659141344cd1fd0a4f28419497f9722a3daafe3b4186f6b6457e060405160405180910390a35050565b600073ffffffffffffffffffffffffffffffffffffffff168273ffffffffffffffffffffffffffffffffffffffff1614156200031d576040517f08c379a0000000000000000000000000000000000000000000000000000000008152600401620003149062000515565b60405180910390fd5b62000331600083836200042360201b60201c565b806002600082825462000345919062000565565b92505081905550806000808473ffffffffffffffffffffffffffffffffffffffff1673ffffffffffffffffffffffffffffffffffffffff16815260200190815260200160002060008282546200039c919062000565565b925050819055508173ffffffffffffffffffffffffffffffffffffffff16600073ffffffffffffffffffffffffffffffffffffffff167fddf252ad1be2c89b69c2b068fc378daa952ba7f163c4a11628f55a4df523b3ef8360405162000403919062000537565b60405180910390a36200041f600083836200042860201b60201c565b5050565b505050565b505050565b8280546200043b90620005cc565b90600052602060002090601f0160209004810192826200045f5760008555620004ab565b82601f106200047a57805160ff1916838001178555620004ab565b82800160010185558215620004ab579182015b82811115620004aa5782518255916020019190600101906200048d565b5b509050620004ba9190620004be565b5090565b5b80821115620004d9576000816000905550600101620004bf565b5090565b6000620004ec601f8362000554565b9150620004f98262000660565b602082019050919050565b6200050f81620005c2565b82525050565b600060208201905081810360008301526200053081620004dd565b9050919050565b60006020820190506200054e600083018462000504565b92915050565b600082825260208201905092915050565b60006200057282620005c2565b91506200057f83620005c2565b9250827fffffffffffffffffffffffffffffffffffffffffffffffffffffffffffffffff03821115620005b757620005b662000602565b5b828201905092915050565b6000819050919050565b60006002820490506001821680620005e557607f821691505b60208210811415620005fc57620005fb62000631565b5b50919050565b7f4e487b7100000000000000000000000000000000000000000000000000000000600052601160045260246000fd5b7f4e487b7100000000000000000000000000000000000000000000000000000000600052602260045260246000fd5b7f45524332303a206d696e7420746f20746865207a65726f206164647265737300600082015250565b612c7c80620006996000396000f3fe608060405234801561001057600080fd5b50600436106101c45760003560e01c8063570ca735116100f95780639662676c11610097578063af342c1311610071578063af342c13146104e5578063dd62ed3e14610503578063f2fde38b14610533578063f4fd47cf1461054f576101c4565b80639662676c14610467578063a457c2d714610485578063a9059cbb146104b5576101c4565b806379cc6790116100d357806379cc6790146104055780638a27f103146104215780638da5cb5b1461042b57806395d89b4114610449576101c4565b8063570ca735146103ad57806370a08231146103cb578063715018a6146103fb576101c4565b806340c10f19116101665780634b46594c116101405780634b46594c146103395780634e20a02c1461035557806350c5bd721461037357806354575af414610391576101c4565b806340c10f19146102cf57806342966c68146102ff5780634456eda21461031b576101c4565b806323b872dd116101a257806323b872dd1461023557806329605e7714610265578063313ce56714610281578063395093511461029f576101c4565b806306fdde03146101c9578063095ea7b3146101e757806318160ddd14610217575b600080fd5b6101d161056b565b6040516101de919061229f565b60405180910390f35b61020160048036038101906101fc9190611e78565b6105fd565b60405161020e9190612284565b60405180910390f35b61021f610620565b60405161022c9190612501565b60405180910390f35b61024f600480360381019061024a9190611e29565b61062a565b60405161025c9190612284565b60405180910390f35b61027f600480360381019061027a9190611dc4565b610690565b005b610289610718565b604051610296919061251c565b60405180910390f35b6102b960048036038101906102b49190611e78565b610721565b6040516102c69190612284565b60405180910390f35b6102e960048036038101906102e49190611e78565b610758565b6040516102f69190612284565b60405180910390f35b61031960048036038101906103149190611f2c565b61081b565b005b610323610827565b6040516103309190612284565b60405180910390f35b610353600480360381019061034e9190611dc4565b610886565b005b61035d6109ca565b60405161036a9190612501565b60405180910390f35b61037b6109d8565b6040516103889190612501565b60405180910390f35b6103ab60048036038101906103a69190611edd565b6109e5565b005b6103b5610b08565b6040516103c29190612240565b60405180910390f35b6103e560048036038101906103e09190611dc4565b610b32565b6040516103f29190612501565b60405180910390f35b610403610b7a565b005b61041f600480360381019061041a9190611e78565b610c02565b005b610429610ca0565b005b610433610ddd565b6040516104409190612240565b60405180910390f35b610451610e07565b60405161045e919061229f565b60405180910390f35b61046f610e99565b60405161047c9190612284565b60405180910390f35b61049f600480360381019061049a9190611e78565b610eac565b6040516104ac9190612284565b60405180910390f35b6104cf60048036038101906104ca9190611e78565b610f23565b6040516104dc9190612284565b60405180910390f35b6104ed610f46565b6040516104fa9190612240565b60405180910390f35b61051d60048036038101906105189190611ded565b610f6c565b60405161052a9190612501565b60405180910390f35b61054d60048036038101906105489190611dc4565b610ff3565b005b61056960048036038101906105649190611ded565b6110eb565b005b60606003805461057a90612677565b80601f01602080910402602001604051908101604052809291908181526020018280546105a690612677565b80156105f35780601f106105c8576101008083540402835291602001916105f3565b820191906000526020600020905b8154815290600101906020018083116105d657829003601f168201915b5050505050905090565b6000806106086112f1565b90506106158185856112f9565b600191505092915050565b6000600254905090565b60006106378484846114c4565b610685846106436112f1565b61068085604051806060016040528060288152602001612c1f602891396106718a61066c6112f1565b610f6c565b6117459092919063ffffffff16565b6112f9565b600190509392505050565b6106986112f1565b73ffffffffffffffffffffffffffffffffffffffff166106b6610ddd565b73ffffffffffffffffffffffffffffffffffffffff161461070c576040517f08c379a0000000000000000000000000000000000000000000000000000000008152600401610703906123e1565b60405180910390fd5b6107158161179a565b50565b60006012905090565b60008061072c6112f1565b905061074d81858561073e8589610f6c565b6107489190612553565b6112f9565b600191505092915050565b60003373ffffffffffffffffffffffffffffffffffffffff16600660009054906101000a900473ffffffffffffffffffffffffffffffffffffffff1673ffffffffffffffffffffffffffffffffffffffff16146107ea576040517f08c379a00000000000000000000000000000000000000000000000000000000081526004016107e190612401565b60405180910390fd5b60006107f584610b32565b905061080184846118a9565b600061080c85610b32565b90508181119250505092915050565b61082481611a09565b50565b6000600660009054906101000a900473ffffffffffffffffffffffffffffffffffffffff1673ffffffffffffffffffffffffffffffffffffffff1661086a6112f1565b73ffffffffffffffffffffffffffffffffffffffff1614905090565b3373ffffffffffffffffffffffffffffffffffffffff16600660009054906101000a900473ffffffffffffffffffffffffffffffffffffffff1673ffffffffffffffffffffffffffffffffffffffff1614610916576040517f08c379a000000000000000000000000000000000000000000000000000000000815260040161090d90612401565b60405180910390fd5b600073ffffffffffffffffffffffffffffffffffffffff168173ffffffffffffffffffffffffffffffffffffffff161415610986576040517f08c379a000000000000000000000000000000000000000000000000000000000815260040161097d90612441565b60405180910390fd5b80600760006101000a81548173ffffffffffffffffffffffffffffffffffffffff021916908373ffffffffffffffffffffffffffffffffffffffff16021790555050565b6905d2c72a2ac16a30000081565b683635c9adc5dea0000081565b3373ffffffffffffffffffffffffffffffffffffffff16600660009054906101000a900473ffffffffffffffffffffffffffffffffffffffff1673ffffffffffffffffffffffffffffffffffffffff1614610a75576040517f08c379a0000000000000000000000000000000000000000000000000000000008152600401610a6c90612401565b60405180910390fd5b8273ffffffffffffffffffffffffffffffffffffffff1663a9059cbb82846040518363ffffffff1660e01b8152600401610ab092919061225b565b602060405180830381600087803b158015610aca57600080fd5b505af1158015610ade573d6000803e3d6000fd5b505050506040513d601f19601f82011682018060405250810190610b029190611eb4565b50505050565b6000600660009054906101000a900473ffffffffffffffffffffffffffffffffffffffff16905090565b60008060008373ffffffffffffffffffffffffffffffffffffffff1673ffffffffffffffffffffffffffffffffffffffff168152602001908152602001600020549050919050565b610b826112f1565b73ffffffffffffffffffffffffffffffffffffffff16610ba0610ddd565b73ffffffffffffffffffffffffffffffffffffffff1614610bf6576040517f08c379a0000000000000000000000000000000000000000000000000000000008152600401610bed906123e1565b60405180910390fd5b610c006000611a1d565b565b3373ffffffffffffffffffffffffffffffffffffffff16600660009054906101000a900473ffffffffffffffffffffffffffffffffffffffff1673ffffffffffffffffffffffffffffffffffffffff1614610c92576040517f08c379a0000000000000000000000000000000000000000000000000000000008152600401610c8990612401565b60405180910390fd5b610c9c8282611ae3565b5050565b610ca86112f1565b73ffffffffffffffffffffffffffffffffffffffff16610cc6610ddd565b73ffffffffffffffffffffffffffffffffffffffff1614610d1c576040517f08c379a0000000000000000000000000000000000000000000000000000000008152600401610d13906123e1565b60405180910390fd5b600073ffffffffffffffffffffffffffffffffffffffff16600660009054906101000a900473ffffffffffffffffffffffffffffffffffffffff1673ffffffffffffffffffffffffffffffffffffffff167f74da04524d50c64947f5dd5381ef1a4dca5cba8ed1d816243f9e48aa0b5617ed60405160405180910390a36000600660006101000a81548173ffffffffffffffffffffffffffffffffffffffff021916908373ffffffffffffffffffffffffffffffffffffffff160217905550565b6000600560009054906101000a900473ffffffffffffffffffffffffffffffffffffffff16905090565b606060048054610e1690612677565b80601f0160208091040260200160405190810160405280929190818152602001828054610e4290612677565b8015610e8f5780601f10610e6457610100808354040283529160200191610e8f565b820191906000526020600020905b815481529060010190602001808311610e7257829003601f168201915b5050505050905090565b600660149054906101000a900460ff1681565b600080610eb76112f1565b90506000610ec58286610f6c565b905083811015610f0a576040517f08c379a0000000000000000000000000000000000000000000000000000000008152600401610f01906124c1565b60405180910390fd5b610f1782868684036112f9565b60019250505092915050565b600080610f2e6112f1565b9050610f3b8185856114c4565b600191505092915050565b600760009054906101000a900473ffffffffffffffffffffffffffffffffffffffff1681565b6000600160008473ffffffffffffffffffffffffffffffffffffffff1673ffffffffffffffffffffffffffffffffffffffff16815260200190815260200160002060008373ffffffffffffffffffffffffffffffffffffffff1673ffffffffffffffffffffffffffffffffffffffff16815260200190815260200160002054905092915050565b610ffb6112f1565b73ffffffffffffffffffffffffffffffffffffffff16611019610ddd565b73ffffffffffffffffffffffffffffffffffffffff161461106f576040517f08c379a0000000000000000000000000000000000000000000000000000000008152600401611066906123e1565b60405180910390fd5b600073ffffffffffffffffffffffffffffffffffffffff168173ffffffffffffffffffffffffffffffffffffffff1614156110df576040517f08c379a00000000000000000000000000000000000000000000000000000000081526004016110d690612321565b60405180910390fd5b6110e881611a1d565b50565b3373ffffffffffffffffffffffffffffffffffffffff16600660009054906101000a900473ffffffffffffffffffffffffffffffffffffffff1673ffffffffffffffffffffffffffffffffffffffff161461117b576040517f08c379a000000000000000000000000000000000000000000000000000000000815260040161117290612401565b60405180910390fd5b600660149054906101000a900460ff16156111cb576040517f08c379a00000000000000000000000000000000000000000000000000000000081526004016111c2906122e1565b60405180910390fd5b600073ffffffffffffffffffffffffffffffffffffffff168273ffffffffffffffffffffffffffffffffffffffff16141561123b576040517f08c379a0000000000000000000000000000000000000000000000000000000008152600401611232906124a1565b60405180910390fd5b600073ffffffffffffffffffffffffffffffffffffffff168173ffffffffffffffffffffffffffffffffffffffff1614156112ab576040517f08c379a00000000000000000000000000000000000000000000000000000000081526004016112a2906123c1565b60405180910390fd5b6001600660146101000a81548160ff0219169083151502179055506112da826905d2c72a2ac16a3000006118a9565b6112ed81683635c9adc5dea000006118a9565b5050565b600033905090565b600073ffffffffffffffffffffffffffffffffffffffff168373ffffffffffffffffffffffffffffffffffffffff161415611369576040517f08c379a000000000000000000000000000000000000000000000000000000000815260040161136090612481565b60405180910390fd5b600073ffffffffffffffffffffffffffffffffffffffff168273ffffffffffffffffffffffffffffffffffffffff1614156113d9576040517f08c379a00000000000000000000000000000000000000000000000000000000081526004016113d090612341565b60405180910390fd5b80600160008573ffffffffffffffffffffffffffffffffffffffff1673ffffffffffffffffffffffffffffffffffffffff16815260200190815260200160002060008473ffffffffffffffffffffffffffffffffffffffff1673ffffffffffffffffffffffffffffffffffffffff168152602001908152602001600020819055508173ffffffffffffffffffffffffffffffffffffffff168373ffffffffffffffffffffffffffffffffffffffff167f8c5be1e5ebec7d5bd14f71427d1e84f3dd0314c0f7b2291e5b200ac8c7c3b925836040516114b79190612501565b60405180910390a3505050565b600073ffffffffffffffffffffffffffffffffffffffff168373ffffffffffffffffffffffffffffffffffffffff161415611534576040517f08c379a000000000000000000000000000000000000000000000000000000000815260040161152b90612461565b60405180910390fd5b600073ffffffffffffffffffffffffffffffffffffffff168273ffffffffffffffffffffffffffffffffffffffff1614156115a4576040517f08c379a000000000000000000000000000000000000000000000000000000000815260040161159b906122c1565b60405180910390fd5b6115af838383611b03565b60008060008573ffffffffffffffffffffffffffffffffffffffff1673ffffffffffffffffffffffffffffffffffffffff16815260200190815260200160002054905081811015611635576040517f08c379a000000000000000000000000000000000000000000000000000000000815260040161162c90612381565b60405180910390fd5b8181036000808673ffffffffffffffffffffffffffffffffffffffff1673ffffffffffffffffffffffffffffffffffffffff16815260200190815260200160002081905550816000808573ffffffffffffffffffffffffffffffffffffffff1673ffffffffffffffffffffffffffffffffffffffff16815260200190815260200160002060008282546116c89190612553565b925050819055508273ffffffffffffffffffffffffffffffffffffffff168473ffffffffffffffffffffffffffffffffffffffff167fddf252ad1be2c89b69c2b068fc378daa952ba7f163c4a11628f55a4df523b3ef8460405161172c9190612501565b60405180910390a361173f848484611b08565b50505050565b600083831115829061178d576040517f08c379a0000000000000000000000000000000000000000000000000000000008152600401611784919061229f565b60405180910390fd5b5082840390509392505050565b600073ffffffffffffffffffffffffffffffffffffffff168173ffffffffffffffffffffffffffffffffffffffff16141561180a576040517f08c379a0000000000000000000000000000000000000000000000000000000008152600401611801906123a1565b60405180910390fd5b8073ffffffffffffffffffffffffffffffffffffffff16600073ffffffffffffffffffffffffffffffffffffffff167f74da04524d50c64947f5dd5381ef1a4dca5cba8ed1d816243f9e48aa0b5617ed60405160405180910390a380600660006101000a81548173ffffffffffffffffffffffffffffffffffffffff021916908373ffffffffffffffffffffffffffffffffffffffff16021790555050565b600073ffffffffffffffffffffffffffffffffffffffff168273ffffffffffffffffffffffffffffffffffffffff161415611919576040517f08c379a0000000000000000000000000000000000000000000000000000000008152600401611910906124e1565b60405180910390fd5b61192560008383611b03565b80600260008282546119379190612553565b92505081905550806000808473ffffffffffffffffffffffffffffffffffffffff1673ffffffffffffffffffffffffffffffffffffffff168152602001908152602001600020600082825461198c9190612553565b925050819055508173ffffffffffffffffffffffffffffffffffffffff16600073ffffffffffffffffffffffffffffffffffffffff167fddf252ad1be2c89b69c2b068fc378daa952ba7f163c4a11628f55a4df523b3ef836040516119f19190612501565b60405180910390a3611a0560008383611b08565b5050565b611a1a611a146112f1565b82611b0d565b50565b6000600560009054906101000a900473ffffffffffffffffffffffffffffffffffffffff16905081600560006101000a81548173ffffffffffffffffffffffffffffffffffffffff021916908373ffffffffffffffffffffffffffffffffffffffff1602179055508173ffffffffffffffffffffffffffffffffffffffff168173ffffffffffffffffffffffffffffffffffffffff167f8be0079c531659141344cd1fd0a4f28419497f9722a3daafe3b4186f6b6457e060405160405180910390a35050565b611af582611aef6112f1565b83611ce4565b611aff8282611b0d565b5050565b505050565b505050565b600073ffffffffffffffffffffffffffffffffffffffff168273ffffffffffffffffffffffffffffffffffffffff161415611b7d576040517f08c379a0000000000000000000000000000000000000000000000000000000008152600401611b7490612421565b60405180910390fd5b611b8982600083611b03565b60008060008473ffffffffffffffffffffffffffffffffffffffff1673ffffffffffffffffffffffffffffffffffffffff16815260200190815260200160002054905081811015611c0f576040517f08c379a0000000000000000000000000000000000000000000000000000000008152600401611c0690612301565b60405180910390fd5b8181036000808573ffffffffffffffffffffffffffffffffffffffff1673ffffffffffffffffffffffffffffffffffffffff168152602001908152602001600020819055508160026000828254611c6691906125a9565b92505081905550600073ffffffffffffffffffffffffffffffffffffffff168373ffffffffffffffffffffffffffffffffffffffff167fddf252ad1be2c89b69c2b068fc378daa952ba7f163c4a11628f55a4df523b3ef84604051611ccb9190612501565b60405180910390a3611cdf83600084611b08565b505050565b6000611cf08484610f6c565b90507fffffffffffffffffffffffffffffffffffffffffffffffffffffffffffffffff8114611d6a5781811015611d5c576040517f08c379a0000000000000000000000000000000000000000000000000000000008152600401611d5390612361565b60405180910390fd5b611d6984848484036112f9565b5b50505050565b600081359050611d7f81612bc2565b92915050565b600081519050611d9481612bd9565b92915050565b600081359050611da981612bf0565b92915050565b600081359050611dbe81612c07565b92915050565b600060208284031215611dd657600080fd5b6000611de484828501611d70565b91505092915050565b60008060408385031215611e0057600080fd5b6000611e0e85828601611d70565b9250506020611e1f85828601611d70565b9150509250929050565b600080600060608486031215611e3e57600080fd5b6000611e4c86828701611d70565b9350506020611e5d86828701611d70565b9250506040611e6e86828701611daf565b9150509250925092565b60008060408385031215611e8b57600080fd5b6000611e9985828601611d70565b9250506020611eaa85828601611daf565b9150509250929050565b600060208284031215611ec657600080fd5b6000611ed484828501611d85565b91505092915050565b600080600060608486031215611ef257600080fd5b6000611f0086828701611d9a565b9350506020611f1186828701611daf565b9250506040611f2286828701611d70565b9150509250925092565b600060208284031215611f3e57600080fd5b6000611f4c84828501611daf565b91505092915050565b611f5e816125dd565b82525050565b611f6d816125ef565b82525050565b6000611f7e82612537565b611f888185612542565b9350611f98818560208601612644565b611fa181612707565b840191505092915050565b6000611fb9602383612542565b9150611fc482612718565b604082019050919050565b6000611fdc601883612542565b9150611fe782612767565b602082019050919050565b6000611fff602283612542565b915061200a82612790565b604082019050919050565b6000612022602683612542565b915061202d826127df565b604082019050919050565b6000612045602283612542565b91506120508261282e565b604082019050919050565b6000612068601d83612542565b91506120738261287d565b602082019050919050565b600061208b602683612542565b9150612096826128a6565b604082019050919050565b60006120ae602d83612542565b91506120b9826128f5565b604082019050919050565b60006120d1600a83612542565b91506120dc82612944565b602082019050919050565b60006120f4602083612542565b91506120ff8261296d565b602082019050919050565b6000612117602483612542565b915061212282612996565b604082019050919050565b600061213a602183612542565b9150612145826129e5565b604082019050919050565b600061215d602283612542565b915061216882612a34565b604082019050919050565b6000612180602583612542565b915061218b82612a83565b604082019050919050565b60006121a3602483612542565b91506121ae82612ad2565b604082019050919050565b60006121c6600d83612542565b91506121d182612b21565b602082019050919050565b60006121e9602583612542565b91506121f482612b4a565b604082019050919050565b600061220c601f83612542565b915061221782612b99565b602082019050919050565b61222b8161262d565b82525050565b61223a81612637565b82525050565b60006020820190506122556000830184611f55565b92915050565b60006040820190506122706000830185611f55565b61227d6020830184612222565b9392505050565b60006020820190506122996000830184611f64565b92915050565b600060208201905081810360008301526122b98184611f73565b905092915050565b600060208201905081810360008301526122da81611fac565b9050919050565b600060208201905081810360008301526122fa81611fcf565b9050919050565b6000602082019050818103600083015261231a81611ff2565b9050919050565b6000602082019050818103600083015261233a81612015565b9050919050565b6000602082019050818103600083015261235a81612038565b9050919050565b6000602082019050818103600083015261237a8161205b565b9050919050565b6000602082019050818103600083015261239a8161207e565b9050919050565b600060208201905081810360008301526123ba816120a1565b9050919050565b600060208201905081810360008301526123da816120c4565b9050919050565b600060208201905081810360008301526123fa816120e7565b9050919050565b6000602082019050818103600083015261241a8161210a565b9050919050565b6000602082019050818103600083015261243a8161212d565b9050919050565b6000602082019050818103600083015261245a81612150565b9050919050565b6000602082019050818103600083015261247a81612173565b9050919050565b6000602082019050818103600083015261249a81612196565b9050919050565b600060208201905081810360008301526124ba816121b9565b9050919050565b600060208201905081810360008301526124da816121dc565b9050919050565b600060208201905081810360008301526124fa816121ff565b9050919050565b60006020820190506125166000830184612222565b92915050565b60006020820190506125316000830184612231565b92915050565b600081519050919050565b600082825260208201905092915050565b600061255e8261262d565b91506125698361262d565b9250827fffffffffffffffffffffffffffffffffffffffffffffffffffffffffffffffff0382111561259e5761259d6126a9565b5b828201905092915050565b60006125b48261262d565b91506125bf8361262d565b9250828210156125d2576125d16126a9565b5b828203905092915050565b60006125e88261260d565b9050919050565b60008115159050919050565b6000612606826125dd565b9050919050565b600073ffffffffffffffffffffffffffffffffffffffff82169050919050565b6000819050919050565b600060ff82169050919050565b60005b83811015612662578082015181840152602081019050612647565b83811115612671576000848401525b50505050565b6000600282049050600182168061268f57607f821691505b602082108114156126a3576126a26126d8565b5b50919050565b7f4e487b7100000000000000000000000000000000000000000000000000000000600052601160045260246000fd5b7f4e487b7100000000000000000000000000000000000000000000000000000000600052602260045260246000fd5b6000601f19601f8301169050919050565b7f45524332303a207472616e7366657220746f20746865207a65726f206164647260008201527f6573730000000000000000000000000000000000000000000000000000000000602082015250565b7f6f6e6c792063616e2064697374726962757465206f6e63650000000000000000600082015250565b7f45524332303a206275726e20616d6f756e7420657863656564732062616c616e60008201527f6365000000000000000000000000000000000000000000000000000000000000602082015250565b7f4f776e61626c653a206e6577206f776e657220697320746865207a65726f206160008201527f6464726573730000000000000000000000000000000000000000000000000000602082015250565b7f45524332303a20617070726f766520746f20746865207a65726f20616464726560008201527f7373000000000000000000000000000000000000000000000000000000000000602082015250565b7f45524332303a20696e73756666696369656e7420616c6c6f77616e6365000000600082015250565b7f45524332303a207472616e7366657220616d6f756e742065786365656473206260008201527f616c616e63650000000000000000000000000000000000000000000000000000602082015250565b7f6f70657261746f723a207a65726f206164647265737320676976656e20666f7260008201527f206e6577206f70657261746f7200000000000000000000000000000000000000602082015250565b7f215f747265617375727900000000000000000000000000000000000000000000600082015250565b7f4f776e61626c653a2063616c6c6572206973206e6f7420746865206f776e6572600082015250565b7f6f70657261746f723a2063616c6c6572206973206e6f7420746865206f70657260008201527f61746f7200000000000000000000000000000000000000000000000000000000602082015250565b7f45524332303a206275726e2066726f6d20746865207a65726f2061646472657360008201527f7300000000000000000000000000000000000000000000000000000000000000602082015250565b7f6f7261636c6520616464726573732063616e6e6f74206265203020616464726560008201527f7373000000000000000000000000000000000000000000000000000000000000602082015250565b7f45524332303a207472616e736665722066726f6d20746865207a65726f20616460008201527f6472657373000000000000000000000000000000000000000000000000000000602082015250565b7f45524332303a20617070726f76652066726f6d20746865207a65726f2061646460008201527f7265737300000000000000000000000000000000000000000000000000000000602082015250565b7f215f67656e65736973506f6f6c00000000000000000000000000000000000000600082015250565b7f45524332303a2064656372656173656420616c6c6f77616e63652062656c6f7760008201527f207a65726f000000000000000000000000000000000000000000000000000000602082015250565b7f45524332303a206d696e7420746f20746865207a65726f206164647265737300600082015250565b612bcb816125dd565b8114612bd657600080fd5b50565b612be2816125ef565b8114612bed57600080fd5b50565b612bf9816125fb565b8114612c0457600080fd5b50565b612c108161262d565b8114612c1b57600080fd5b5056fe45524332303a207472616e7366657220616d6f756e74206578636565647320616c6c6f77616e6365a26469706673582212209692a8fffd3b6a251c8489ae2b6f4cfb748b45d9522a38375a19696e2de5d45064736f6c63430008030033",
  "linkReferences": {},
  "deployedLinkReferences": {}
}