{
  "_format": "hh-sol-artifact-1",
  "contractName": "Cata",
  "sourceName": "contracts/Cata.sol",
  "abi": [
    {
      "inputs": [],
      "stateMutability": "nonpayable",
      "type": "constructor"
    },
    {
      "anonymous": false,
      "inputs": [
        {
          "indexed": true,
          "internalType": "address",
          "name": "owner",
          "type": "address"
        },
        {
          "indexed": true,
          "internalType": "address",
          "name": "spender",
          "type": "address"
        },
        {
          "indexed": false,
          "internalType": "uint256",
          "name": "value",
          "type": "uint256"
        }
      ],
      "name": "Approval",
      "type": "event"
    },
    {
      "anonymous": false,
      "inputs": [
        {
          "indexed": true,
          "internalType": "address",
          "name": "previousOperator",
          "type": "address"
        },
        {
          "indexed": true,
          "internalType": "address",
          "name": "newOperator",
          "type": "address"
        }
      ],
      "name": "OperatorTransferred",
      "type": "event"
    },
    {
      "anonymous": false,
      "inputs": [
        {
          "indexed": true,
          "internalType": "address",
          "name": "previousOwner",
          "type": "address"
        },
        {
          "indexed": true,
          "internalType": "address",
          "name": "newOwner",
          "type": "address"
        }
      ],
      "name": "OwnershipTransferred",
      "type": "event"
    },
    {
      "anonymous": false,
      "inputs": [
        {
          "indexed": true,
          "internalType": "address",
          "name": "from",
          "type": "address"
        },
        {
          "indexed": true,
          "internalType": "address",
          "name": "to",
          "type": "address"
        },
        {
          "indexed": false,
          "internalType": "uint256",
          "name": "value",
          "type": "uint256"
        }
      ],
      "name": "Transfer",
      "type": "event"
    },
    {
      "inputs": [],
      "name": "INITIAL_DAOFUND_DISTRIBUTION",
      "outputs": [
        {
          "internalType": "uint256",
          "name": "",
          "type": "uint256"
        }
      ],
      "stateMutability": "view",
      "type": "function"
    },
    {
      "inputs": [],
      "name": "INITIAL_GENESIS_POOL_DISTRIBUTION",
      "outputs": [
        {
          "internalType": "uint256",
          "name": "",
          "type": "uint256"
        }
      ],
      "stateMutability": "view",
      "type": "function"
    },
    {
      "inputs": [],
      "name": "_renounceOperator",
      "outputs": [],
      "stateMutability": "nonpayable",
      "type": "function"
    },
    {
      "inputs": [
        {
          "internalType": "address",
          "name": "owner",
          "type": "address"
        },
        {
          "internalType": "address",
          "name": "spender",
          "type": "address"
        }
      ],
      "name": "allowance",
      "outputs": [
        {
          "internalType": "uint256",
          "name": "",
          "type": "uint256"
        }
      ],
      "stateMutability": "view",
      "type": "function"
    },
    {
      "inputs": [
        {
          "internalType": "address",
          "name": "spender",
          "type": "address"
        },
        {
          "internalType": "uint256",
          "name": "amount",
          "type": "uint256"
        }
      ],
      "name": "approve",
      "outputs": [
        {
          "internalType": "bool",
          "name": "",
          "type": "bool"
        }
      ],
      "stateMutability": "nonpayable",
      "type": "function"
    },
    {
      "inputs": [
        {
          "internalType": "address",
          "name": "account",
          "type": "address"
        }
      ],
      "name": "balanceOf",
      "outputs": [
        {
          "internalType": "uint256",
          "name": "",
          "type": "uint256"
        }
      ],
      "stateMutability": "view",
      "type": "function"
    },
    {
      "inputs": [
        {
          "internalType": "uint256",
          "name": "amount",
          "type": "uint256"
        }
      ],
      "name": "burn",
      "outputs": [],
      "stateMutability": "nonpayable",
      "type": "function"
    },
    {
      "inputs": [
        {
          "internalType": "address",
          "name": "account",
          "type": "address"
        },
        {
          "internalType": "uint256",
          "name": "amount",
          "type": "uint256"
        }
      ],
      "name": "burnFrom",
      "outputs": [],
      "stateMutability": "nonpayable",
      "type": "function"
    },
    {
      "inputs": [],
      "name": "cataOracle",
      "outputs": [
        {
          "internalType": "address",
          "name": "",
          "type": "address"
        }
      ],
      "stateMutability": "view",
      "type": "function"
    },
    {
      "inputs": [],
      "name": "decimals",
      "outputs": [
        {
          "internalType": "uint8",
          "name": "",
          "type": "uint8"
        }
      ],
      "stateMutability": "view",
      "type": "function"
    },
    {
      "inputs": [
        {
          "internalType": "address",
          "name": "spender",
          "type": "address"
        },
        {
          "internalType": "uint256",
          "name": "subtractedValue",
          "type": "uint256"
        }
      ],
      "name": "decreaseAllowance",
      "outputs": [
        {
          "internalType": "bool",
          "name": "",
          "type": "bool"
        }
      ],
      "stateMutability": "nonpayable",
      "type": "function"
    },
    {
      "inputs": [
        {
          "internalType": "address",
          "name": "_genesisPool",
          "type": "address"
        },
        {
          "internalType": "address",
          "name": "_daoFund",
          "type": "address"
        }
      ],
      "name": "distributeReward",
      "outputs": [],
      "stateMutability": "nonpayable",
      "type": "function"
    },
    {
      "inputs": [
        {
          "internalType": "contract IERC20",
          "name": "_token",
          "type": "address"
        },
        {
          "internalType": "uint256",
          "name": "_amount",
          "type": "uint256"
        },
        {
          "internalType": "address",
          "name": "_to",
          "type": "address"
        }
      ],
      "name": "governanceRecoverUnsupported",
      "outputs": [],
      "stateMutability": "nonpayable",
      "type": "function"
    },
    {
      "inputs": [
        {
          "internalType": "address",
          "name": "spender",
          "type": "address"
        },
        {
          "internalType": "uint256",
          "name": "addedValue",
          "type": "uint256"
        }
      ],
      "name": "increaseAllowance",
      "outputs": [
        {
          "internalType": "bool",
          "name": "",
          "type": "bool"
        }
      ],
      "stateMutability": "nonpayable",
      "type": "function"
    },
    {
      "inputs": [],
      "name": "isOperator",
      "outputs": [
        {
          "internalType": "bool",
          "name": "",
          "type": "bool"
        }
      ],
      "stateMutability": "view",
      "type": "function"
    },
    {
      "inputs": [
        {
          "internalType": "address",
          "name": "recipient_",
          "type": "address"
        },
        {
          "internalType": "uint256",
          "name": "amount_",
          "type": "uint256"
        }
      ],
      "name": "mint",
      "outputs": [
        {
          "internalType": "bool",
          "name": "",
          "type": "bool"
        }
      ],
      "stateMutability": "nonpayable",
      "type": "function"
    },
    {
      "inputs": [],
      "name": "name",
      "outputs": [
        {
          "internalType": "string",
          "name": "",
          "type": "string"
        }
      ],
      "stateMutability": "view",
      "type": "function"
    },
    {
      "inputs": [],
      "name": "operator",
      "outputs": [
        {
          "internalType": "address",
          "name": "",
          "type": "address"
        }
      ],
      "stateMutability": "view",
      "type": "function"
    },
    {
      "inputs": [],
      "name": "owner",
      "outputs": [
        {
          "internalType": "address",
          "name": "",
          "type": "address"
        }
      ],
      "stateMutability": "view",
      "type": "function"
    },
    {
      "inputs": [],
      "name": "renounceOwnership",
      "outputs": [],
      "stateMutability": "nonpayable",
      "type": "function"
    },
    {
      "inputs": [],
      "name": "rewardPoolDistributed",
      "outputs": [
        {
          "internalType": "bool",
          "name": "",
          "type": "bool"
        }
      ],
      "stateMutability": "view",
      "type": "function"
    },
    {
      "inputs": [
        {
          "internalType": "address",
          "name": "_CataOracle",
          "type": "address"
        }
      ],
      "name": "setCataOracle",
      "outputs": [],
      "stateMutability": "nonpayable",
      "type": "function"
    },
    {
      "inputs": [],
      "name": "symbol",
      "outputs": [
        {
          "internalType": "string",
          "name": "",
          "type": "string"
        }
      ],
      "stateMutability": "view",
      "type": "function"
    },
    {
      "inputs": [],
      "name": "totalSupply",
      "outputs": [
        {
          "internalType": "uint256",
          "name": "",
          "type": "uint256"
        }
      ],
      "stateMutability": "view",
      "type": "function"
    },
    {
      "inputs": [
        {
          "internalType": "address",
          "name": "to",
          "type": "address"
        },
        {
          "internalType": "uint256",
          "name": "amount",
          "type": "uint256"
        }
      ],
      "name": "transfer",
      "outputs": [
        {
          "internalType": "bool",
          "name": "",
          "type": "bool"
        }
      ],
      "stateMutability": "nonpayable",
      "type": "function"
    },
    {
      "inputs": [
        {
          "internalType": "address",
          "name": "sender",
          "type": "address"
        },
        {
          "internalType": "address",
          "name": "recipient",
          "type": "address"
        },
        {
          "internalType": "uint256",
          "name": "amount",
          "type": "uint256"
        }
      ],
      "name": "transferFrom",
      "outputs": [
        {
          "internalType": "bool",
          "name": "",
          "type": "bool"
        }
      ],
      "stateMutability": "nonpayable",
      "type": "function"
    },
    {
      "inputs": [
        {
          "internalType": "address",
          "name": "newOperator_",
          "type": "address"
        }
      ],
      "name": "transferOperator",
      "outputs": [],
      "stateMutability": "nonpayable",
      "type": "function"
    },
    {
      "inputs": [
        {
          "internalType": "address",
          "name": "newOwner",
          "type": "address"
        }
      ],
      "name": "transferOwnership",
      "outputs": [],
      "stateMutability": "nonpayable",
      "type": "function"
    }
  ],
  "bytecode": "0x60806040526006805460ff60a01b191690553480156200001e57600080fd5b506040805180820182526004808252634341544160e01b6020808401828152855180870190965292855284015281519192916200005e916003916200022b565b508051620000749060049060208401906200022b565b505050620000916200008b620000ed60201b60201c565b620000f1565b600680546001600160a01b031916339081179091556040516000907f74da04524d50c64947f5dd5381ef1a4dca5cba8ed1d816243f9e48aa0b5617ed908290a3620000e73369010f0cf064dd5920000062000143565b62000335565b3390565b600580546001600160a01b038381166001600160a01b0319831681179093556040519116919082907f8be0079c531659141344cd1fd0a4f28419497f9722a3daafe3b4186f6b6457e090600090a35050565b6001600160a01b0382166200019e5760405162461bcd60e51b815260206004820152601f60248201527f45524332303a206d696e7420746f20746865207a65726f206164647265737300604482015260640160405180910390fd5b8060026000828254620001b29190620002d1565b90915550506001600160a01b03821660009081526020819052604081208054839290620001e1908490620002d1565b90915550506040518181526001600160a01b038316906000907fddf252ad1be2c89b69c2b068fc378daa952ba7f163c4a11628f55a4df523b3ef9060200160405180910390a35050565b8280546200023990620002f8565b90600052602060002090601f0160209004810192826200025d5760008555620002a8565b82601f106200027857805160ff1916838001178555620002a8565b82800160010185558215620002a8579182015b82811115620002a85782518255916020019190600101906200028b565b50620002b6929150620002ba565b5090565b5b80821115620002b65760008155600101620002bb565b60008219821115620002f357634e487b7160e01b600052601160045260246000fd5b500190565b600181811c908216806200030d57607f821691505b602082108114156200032f57634e487b7160e01b600052602260045260246000fd5b50919050565b61157380620003456000396000f3fe608060405234801561001057600080fd5b50600436106101c45760003560e01c8063570ca735116100f95780639662676c11610097578063af342c1311610071578063af342c13146103aa578063dd62ed3e146103bd578063f2fde38b146103f6578063f4fd47cf1461040957600080fd5b80639662676c14610370578063a457c2d714610384578063a9059cbb1461039757600080fd5b806379cc6790116100d357806379cc67901461033c5780638a27f1031461034f5780638da5cb5b1461035757806395d89b411461036857600080fd5b8063570ca735146102e657806370a082311461030b578063715018a61461033457600080fd5b806340c10f19116101665780634b46594c116101405780634b46594c1461029f5780634e20a02c146102b257806350c5bd72146102c357806354575af4146102d357600080fd5b806340c10f191461026657806342966c68146102795780634456eda21461028c57600080fd5b806323b872dd116101a257806323b872dd1461021c57806329605e771461022f578063313ce56714610244578063395093511461025357600080fd5b806306fdde03146101c9578063095ea7b3146101e757806318160ddd1461020a575b600080fd5b6101d161041c565b6040516101de91906112a0565b60405180910390f35b6101fa6101f536600461130a565b6104ae565b60405190151581526020016101de565b6002545b6040519081526020016101de565b6101fa61022a366004611336565b6104c6565b61024261023d366004611377565b61050b565b005b604051601281526020016101de565b6101fa61026136600461130a565b610576565b6101fa61027436600461130a565b6105b0565b61024261028736600461139b565b610625565b6006546001600160a01b031633146101fa565b6102426102ad366004611377565b61062e565b61020e6905d2c72a2ac16a30000081565b61020e683635c9adc5dea0000081565b6102426102e13660046113b4565b6106db565b6006546001600160a01b03165b6040516001600160a01b0390911681526020016101de565b61020e610319366004611377565b6001600160a01b031660009081526020819052604090205490565b61024261078d565b61024261034a36600461130a565b6107f3565b61024261082b565b6005546001600160a01b03166102f3565b6101d16108cf565b6006546101fa90600160a01b900460ff1681565b6101fa61039236600461130a565b6108de565b6101fa6103a536600461130a565b61097b565b6007546102f3906001600160a01b031681565b61020e6103cb3660046113f6565b6001600160a01b03918216600090815260016020908152604080832093909416825291909152205490565b610242610404366004611377565b610989565b6102426104173660046113f6565b610a51565b60606003805461042b9061142f565b80601f01602080910402602001604051908101604052809291908181526020018280546104579061142f565b80156104a45780601f10610479576101008083540402835291602001916104a4565b820191906000526020600020905b81548152906001019060200180831161048757829003601f168201915b5050505050905090565b6000336104bc818585610b98565b5060019392505050565b60006104d3848484610cbc565b6104bc843361050685604051806060016040528060288152602001611516602891396104ff8a336103cb565b9190610e8a565b610b98565b6005546001600160a01b0316331461056a5760405162461bcd60e51b815260206004820181905260248201527f4f776e61626c653a2063616c6c6572206973206e6f7420746865206f776e657260448201526064015b60405180910390fd5b61057381610eb6565b50565b3360008181526001602090815260408083206001600160a01b03871684529091528120549091906104bc9082908690610506908790611480565b6006546000906001600160a01b031633146105dd5760405162461bcd60e51b815260040161056190611498565b6001600160a01b0383166000908152602081905260409020546106008484610f7a565b6001600160a01b03841660009081526020819052604081205491909111949350505050565b61057381611059565b6006546001600160a01b031633146106585760405162461bcd60e51b815260040161056190611498565b6001600160a01b0381166106b95760405162461bcd60e51b815260206004820152602260248201527f6f7261636c6520616464726573732063616e6e6f742062652030206164647265604482015261737360f01b6064820152608401610561565b600780546001600160a01b0319166001600160a01b0392909216919091179055565b6006546001600160a01b031633146107055760405162461bcd60e51b815260040161056190611498565b60405163a9059cbb60e01b81526001600160a01b0382811660048301526024820184905284169063a9059cbb90604401602060405180830381600087803b15801561074f57600080fd5b505af1158015610763573d6000803e3d6000fd5b505050506040513d601f19601f8201168201806040525081019061078791906114dc565b50505050565b6005546001600160a01b031633146107e75760405162461bcd60e51b815260206004820181905260248201527f4f776e61626c653a2063616c6c6572206973206e6f7420746865206f776e65726044820152606401610561565b6107f16000611063565b565b6006546001600160a01b0316331461081d5760405162461bcd60e51b815260040161056190611498565b61082782826110b5565b5050565b6005546001600160a01b031633146108855760405162461bcd60e51b815260206004820181905260248201527f4f776e61626c653a2063616c6c6572206973206e6f7420746865206f776e65726044820152606401610561565b6006546040516000916001600160a01b0316907f74da04524d50c64947f5dd5381ef1a4dca5cba8ed1d816243f9e48aa0b5617ed908390a3600680546001600160a01b0319169055565b60606004805461042b9061142f565b3360008181526001602090815260408083206001600160a01b0387168452909152812054909190838110156109635760405162461bcd60e51b815260206004820152602560248201527f45524332303a2064656372656173656420616c6c6f77616e63652062656c6f77604482015264207a65726f60d81b6064820152608401610561565b6109708286868403610b98565b506001949350505050565b6000336104bc818585610cbc565b6005546001600160a01b031633146109e35760405162461bcd60e51b815260206004820181905260248201527f4f776e61626c653a2063616c6c6572206973206e6f7420746865206f776e65726044820152606401610561565b6001600160a01b038116610a485760405162461bcd60e51b815260206004820152602660248201527f4f776e61626c653a206e6577206f776e657220697320746865207a65726f206160448201526564647265737360d01b6064820152608401610561565b61057381611063565b6006546001600160a01b03163314610a7b5760405162461bcd60e51b815260040161056190611498565b600654600160a01b900460ff1615610ad55760405162461bcd60e51b815260206004820152601860248201527f6f6e6c792063616e2064697374726962757465206f6e636500000000000000006044820152606401610561565b6001600160a01b038216610b1b5760405162461bcd60e51b815260206004820152600d60248201526c0857d9d95b995cda5cd41bdbdb609a1b6044820152606401610561565b6001600160a01b038116610b5e5760405162461bcd60e51b815260206004820152600a602482015269215f747265617375727960b01b6044820152606401610561565b6006805460ff60a01b1916600160a01b179055610b85826905d2c72a2ac16a300000610f7a565b61082781683635c9adc5dea00000610f7a565b6001600160a01b038316610bfa5760405162461bcd60e51b8152602060048201526024808201527f45524332303a20617070726f76652066726f6d20746865207a65726f206164646044820152637265737360e01b6064820152608401610561565b6001600160a01b038216610c5b5760405162461bcd60e51b815260206004820152602260248201527f45524332303a20617070726f766520746f20746865207a65726f206164647265604482015261737360f01b6064820152608401610561565b6001600160a01b0383811660008181526001602090815260408083209487168084529482529182902085905590518481527f8c5be1e5ebec7d5bd14f71427d1e84f3dd0314c0f7b2291e5b200ac8c7c3b925910160405180910390a3505050565b6001600160a01b038316610d205760405162461bcd60e51b815260206004820152602560248201527f45524332303a207472616e736665722066726f6d20746865207a65726f206164604482015264647265737360d81b6064820152608401610561565b6001600160a01b038216610d825760405162461bcd60e51b815260206004820152602360248201527f45524332303a207472616e7366657220746f20746865207a65726f206164647260448201526265737360e81b6064820152608401610561565b6001600160a01b03831660009081526020819052604090205481811015610dfa5760405162461bcd60e51b815260206004820152602660248201527f45524332303a207472616e7366657220616d6f756e7420657863656564732062604482015265616c616e636560d01b6064820152608401610561565b6001600160a01b03808516600090815260208190526040808220858503905591851681529081208054849290610e31908490611480565b92505081905550826001600160a01b0316846001600160a01b03167fddf252ad1be2c89b69c2b068fc378daa952ba7f163c4a11628f55a4df523b3ef84604051610e7d91815260200190565b60405180910390a3610787565b60008184841115610eae5760405162461bcd60e51b815260040161056191906112a0565b505050900390565b6001600160a01b038116610f225760405162461bcd60e51b815260206004820152602d60248201527f6f70657261746f723a207a65726f206164647265737320676976656e20666f7260448201526c103732bb9037b832b930ba37b960991b6064820152608401610561565b6040516001600160a01b038216906000907f74da04524d50c64947f5dd5381ef1a4dca5cba8ed1d816243f9e48aa0b5617ed908290a3600680546001600160a01b0319166001600160a01b0392909216919091179055565b6001600160a01b038216610fd05760405162461bcd60e51b815260206004820152601f60248201527f45524332303a206d696e7420746f20746865207a65726f2061646472657373006044820152606401610561565b8060026000828254610fe29190611480565b90915550506001600160a01b0382166000908152602081905260408120805483929061100f908490611480565b90915550506040518181526001600160a01b038316906000907fddf252ad1be2c89b69c2b068fc378daa952ba7f163c4a11628f55a4df523b3ef9060200160405180910390a35050565b61057333826110c6565b600580546001600160a01b038381166001600160a01b0319831681179093556040519116919082907f8be0079c531659141344cd1fd0a4f28419497f9722a3daafe3b4186f6b6457e090600090a35050565b6110c0823383611214565b61082782825b6001600160a01b0382166111265760405162461bcd60e51b815260206004820152602160248201527f45524332303a206275726e2066726f6d20746865207a65726f206164647265736044820152607360f81b6064820152608401610561565b6001600160a01b0382166000908152602081905260409020548181101561119a5760405162461bcd60e51b815260206004820152602260248201527f45524332303a206275726e20616d6f756e7420657863656564732062616c616e604482015261636560f01b6064820152608401610561565b6001600160a01b03831660009081526020819052604081208383039055600280548492906111c99084906114fe565b90915550506040518281526000906001600160a01b038516907fddf252ad1be2c89b69c2b068fc378daa952ba7f163c4a11628f55a4df523b3ef9060200160405180910390a3505050565b6001600160a01b03838116600090815260016020908152604080832093861683529290522054600019811461078757818110156112935760405162461bcd60e51b815260206004820152601d60248201527f45524332303a20696e73756666696369656e7420616c6c6f77616e63650000006044820152606401610561565b6107878484848403610b98565b600060208083528351808285015260005b818110156112cd578581018301518582016040015282016112b1565b818111156112df576000604083870101525b50601f01601f1916929092016040019392505050565b6001600160a01b038116811461057357600080fd5b6000806040838503121561131d57600080fd5b8235611328816112f5565b946020939093013593505050565b60008060006060848603121561134b57600080fd5b8335611356816112f5565b92506020840135611366816112f5565b929592945050506040919091013590565b60006020828403121561138957600080fd5b8135611394816112f5565b9392505050565b6000602082840312156113ad57600080fd5b5035919050565b6000806000606084860312156113c957600080fd5b83356113d4816112f5565b92506020840135915060408401356113eb816112f5565b809150509250925092565b6000806040838503121561140957600080fd5b8235611414816112f5565b91506020830135611424816112f5565b809150509250929050565b600181811c9082168061144357607f821691505b6020821081141561146457634e487b7160e01b600052602260045260246000fd5b50919050565b634e487b7160e01b600052601160045260246000fd5b600082198211156114935761149361146a565b500190565b60208082526024908201527f6f70657261746f723a2063616c6c6572206973206e6f7420746865206f70657260408201526330ba37b960e11b606082015260800190565b6000602082840312156114ee57600080fd5b8151801515811461139457600080fd5b6000828210156115105761151061146a565b50039056fe45524332303a207472616e7366657220616d6f756e74206578636565647320616c6c6f77616e6365a2646970667358221220f72256204b205215eb701194dae699c0d7bd9a0c2009aea15ab4a62466d98a8364736f6c63430008090033",
  "linkReferences": {},
  "deployedLinkReferences": {}
}