{
  "_format": "hh-sol-artifact-1",
  "contractName": "Distributor",
  "sourceName": "contracts/Distributor.sol",
  "abi": [
    {
      "inputs": [
        {
          "internalType": "contract IDistributor[]",
          "name": "_distributors",
          "type": "address[]"
        }
      ],
      "stateMutability": "nonpayable",
      "type": "constructor"
    },
    {
      "inputs": [],
      "name": "distribute",
      "outputs": [],
      "stateMutability": "nonpayable",
      "type": "function"
    },
    {
      "inputs": [
        {
          "internalType": "uint256",
          "name": "",
          "type": "uint256"
        }
      ],
      "name": "distributors",
      "outputs": [
        {
          "internalType": "contract IDistributor",
          "name": "",
          "type": "address"
        }
      ],
      "stateMutability": "view",
      "type": "function"
    }
  ],
  "bytecode": "0x608060405234801561001057600080fd5b5060405161038a38038061038a83398101604081905261002f916100f5565b8051610042906000906020840190610049565b50506101b9565b82805482825590600052602060002090810192821561009e579160200282015b8281111561009e57825182546001600160a01b0319166001600160a01b03909116178255602090920191600190910190610069565b506100aa9291506100ae565b5090565b5b808211156100aa57600081556001016100af565b634e487b7160e01b600052604160045260246000fd5b80516001600160a01b03811681146100f057600080fd5b919050565b6000602080838503121561010857600080fd5b82516001600160401b038082111561011f57600080fd5b818501915085601f83011261013357600080fd5b815181811115610145576101456100c3565b8060051b604051601f19603f8301168101818110858211171561016a5761016a6100c3565b60405291825284820192508381018501918883111561018857600080fd5b938501935b828510156101ad5761019e856100d9565b8452938501939285019261018d565b98975050505050505050565b6101c2806101c86000396000f3fe608060405234801561001057600080fd5b50600436106100365760003560e01c806350b492ba1461003b578063e4fc6b6d1461006a575b600080fd5b61004e610049366004610134565b610074565b6040516001600160a01b03909116815260200160405180910390f35b61007261009e565b005b6000818154811061008457600080fd5b6000918252602090912001546001600160a01b0316905081565b60005b60005481101561013157600081815481106100be576100be61014d565b60009182526020822001546040805163e4fc6b6d60e01b815290516001600160a01b039092169263e4fc6b6d9260048084019382900301818387803b15801561010657600080fd5b505af115801561011a573d6000803e3d6000fd5b50505050808061012990610163565b9150506100a1565b50565b60006020828403121561014657600080fd5b5035919050565b634e487b7160e01b600052603260045260246000fd5b600060001982141561018557634e487b7160e01b600052601160045260246000fd5b506001019056fea26469706673582212207ce19f44ebced74defd1a4948e640ad84d24fa173cd8a8a979c0e1e22ae22b1e64736f6c63430008090033",
  "linkReferences": {},
  "deployedLinkReferences": {}
}